S01400004C5048525F536F6674776172652E73333700
S3150800000000100020451E0008A37E0008A37E0008F5
S31508000010A37E0008A37E0008A37E0008A37E00082E
S31508000020A37E0008A37E0008A37E0008A37E00081E
S31508000030A37E0008A37E0008A37E0008A37E00080E
S31508000040A37E0008A37E0008A37E0008A37E0008FE
S31508000050A37E0008A37E0008A37E0008A37E0008EE
S31508000060A37E0008A37E0008A37E0008691C00087A
S31508000070AB7D0008A37E0008A37E0008A37E0008C7
S31508000080A37E0008A37E0008A37E0008A37E0008BE
S31508000090A37E000859280008A37E0008A37E00084E
S315080000A0A37E0008A37E0008A37E0008A37E00089E
S315080000B0A37E0008A37E0008A37E0008A37E00088E
S315080000C0A37E0008A37E0008A37E0008A37E00087E
S315080000D0A37E0008A37E0008A37E0008A37E00086E
S315080000E0A37E0008A37E0008A37E0008A37E00085E
S315080000F0A37E0008A37E0008A37E0008A37E00084E
S31508000100A37E0008A37E0008A37E0008A37E00083D
S31508000110A37E0008A37E0008A37E0008A37E00082D
S31508000120A37E0008A37E0008A37E0008A37E00081D
S31508000130A37E0008A37E0008A37E0008A37E00080D
S31508000140A37E0008A37E0008A37E0008F3820008A9
S31508000150A37E0008A37E0008A37E0008A37E0008ED
S31508000160A37E0008A37E0008A37E0008A37E0008DD
S31508000170013800D0FCE7704707B500F0DDFF4FF403
S315080001807A7005F065FA00F061FF022301221A4928
S3150800019004200A700093194B00F06AFF20B140F260
S315080001A0ED11174807F091FE00F0F0FF134B188881
S315080001B007EE900AF8EE677A17EE900A05F02CFD1E
S315080001C009A3D3E9002307F0BBFA09A3D3E900235F
S315080001D005F0C2FB05F078FD0A4B186003B05DF820
S315080001E004FB00BFAFF300809A9999999999A93FA2
S315080001F09A99999999B95040EF150020DF15002072
S31508000200CE8E00082C1200202DE9F04FC76997B052
S315080002108346209E08910C92129355EC104B8DED57
S31508000220000B7FB9102006F029FD0246CBF81C000A
S3150800023020B9A74BEF21A74807F038FAC0E901779C
S315080002400760C760DBF81C30196859B15A68012382
S31508000250584693404A608B6006F0FEFDDBF81C307A
S3150800026000221A602B1EB7BF23F000430023012289
S315080002700193A8BF3360019F974BB8BF3260BB4359
S3150800028019D142F20F73129A1360C7F3130323436B
S3150800029000F0DB85219B53B9904B21E0904B0393EB
S315080002A00833219A1360039817B0BDE8F08F8B4B7B
S315080002B003930333F5E79DED007B0022002351EC01
S315080002C0170B8DED0A7B07F0A3FC804650B101237E
S315080002D0129A1360219B13B1824B219A1360824BA9
S315080002E00393E0E7C7F30A5614AA15A958469DEDE5
S315080002F00A0B07F039F80290002E76D00B9BA6F26F
S31508000300FF36CDF84C80C3F3130343F07F53DDE982
S315080003100A0143F4401319460022744B05F01CFBEE
S3150800032065A3D3E9002307F00BFA65A3D3E90023F5
S3150800033005F014FB04460D46304605F05BFC62A347
S31508000340D3E9002307F0FCF902460B462046294666
S3150800035005F004FB04460D4607F0A2FC00220746FA
S3150800036000232046294607F05DFC40B1384605F0D3
S3150800037041FC22462B4607F04BFC00B9013F162FDD
S3150800038052D85B4B03EBC703DDE90A01D3E9002327
S3150800039007F048FC002849D0013F00231193149B1D
S315080003A09B1B5A1E4CBFC3F101030023079245BF8E
S315080003B00693002306930793002F39DB079B1097B4
S315080003C03B44079300230993089B092B66D8052B02
S315080003D0C5BF043B002401240893089B023B032B5A
S315080003E067D8DFE803F02D3A3859DDE914631E446F
S315080003F006F23243202BC9BFC3F14003C3F12003E1
S315080004009F4006F21243D8BF04FA03F006F1FF36FE
S31508000410C4BF24FA03F347EA030005F0DBFB012215
S31508000420A1F1F873139276E70123B7E71190B6E7BF
S31508000430069BDB1B06937B42099300231093C3E7B5
S3150800044000230D930C9B002B56DC012399461A4674
S3150800045004930C920CE00123F3E700230D930C9B05
S31508000460FB1803F1010904934B46012BB8BF01237E
S31508000470DBF81C000021042202F114059D423FD935
S315080004804160584606F0A8FC039000283BD1194B5A
S31508000490024640F2AF11CEE60123DFE7012400232E
S315080004A00D9408934FF0FF330022994604931223C4
S315080004B0CFE701230D93F5E761436F63A787D23F23
S315080004C0B3C8608B288AC63FFB799F501344D33F35
S315080004D02E980008459800080000F07F2A98000822
S315080004E021980008FE970008FD9700080000F83FCD
S315080004F0409900089E9800080C9B99460493B7E714
S3150800050001315200B8E7DBF81C30B9F10E0F039A37
S315080005101A606FD8002C6DD0002F36DD07F00F0259
S31508000520A04BF8054FEA271403EBC20393ED007BB3
S315080005308DED0E7B17D59C4B04F00F044FF0030886
S31508000540D3E90823DDE90A0107F024FACDE9000119
S31508000550954D5CB9DDE90E23DDE9000107F01AFACD
S31508000560CDE900012BE04FF00208F1E7E10709D5D4
S3150800057008F10108DDE90E01D5E9002307F0E0F8E6
S31508000580CDE90E0164100835E3E700F007817C42E7
S31508000590844B854D4FF0020804F00F02241103EB3B
S315080005A0C203DDE90A01D3E9002307F0C9F80023ED
S315080005B0CDE90001002C40F0E580002BD0D1119B3D
S315080005C0DDE90045002B00F04C810022774B2046E0
S315080005D0294607F027FB002800F04381B9F1000FF0
S315080005E000F03F81049B002B00F3E480DDE90A3428
S315080005F0CDE90034159B002B02DB0E2F40F3428217
S315080006000D9A002A40F06782099C0025DDF81880BB
S31508000610B8F1000F0DD0079B002B0ADD4345069A5B
S31508000620A8BF4346D21AA8EB03080692079AD31A1C
S315080006300793099B0BB30D9B002B00F0A682002C99
S3150800064000F0A18229462246584606F02FFD029A56
S3150800065001460546584606F07FFC02990646584666
S3150800066006F0FAFB099B1B1B099300F09182099A75
S315080006703146584606F01AFD02900121584606F002
S3150800068055FC109B0446002B00F084821A4601464E
S31508000690584606F00BFD089B0446012B03DC009B1D
S315080006A0002B00F07C820026236904EB830318697B
S315080006B008F016F9C0F120001096079B184410F0B0
S315080006C01F0000F09182C0F12003042B40F38182C1
S315080006D0C0F11C00069B034480440693079B034411
S315080006E00793069B002B05DD1A460299584606F025
S315080006F037FD0290079B002B05DD21461A46584612
S3150800070006F02EFD0446119B002B00F0768221464A
S31508000710029808F034F9002880F26F8200230A2232
S315080007200299584606F0BAFB0D9B7E1E0290002BD6
S3150800073000F05C82002329460A22584606F0AEFBE2
S31508000740049B0546002B03DC089B022B00F35E8204
S31508000750B8F1000F05DD29464246584606F000FD69
S315080007600546109B002B00F0D0826968584606F0B3
S3150800077033FB0746002840F07F820D4B024640F2C5
S31508000780EF2158E5E20706D508F10108D5E9002367
S3150800079006F0D6FF0123641008350BE74FF0020870
S315080007A00DE700BF40990008189900080000F03FBF
S315080007B09E98000820460022AC4B294606F0C0FF4A
S315080007C07E1E08F10108049CCDE90001404605F0AB
S315080007D011FADDE9002306F0B3FFA54B002205F068
S315080007E0BDF8A1F15073CDE90E010F93002C3BD152
S315080007F00022A04BDDE9000105F0AEF802460B46E3
S31508000800CDE90023DDE90E2307F02AFA002840F097
S315080008105781DDE90E2101F10043DDE9000107F00A
S3150800082001FA00283FF4E2AE002425460C9BDDF8C9
S315080008300CA0DE434FF000082146584606F00CFB94
S31508000840002D00F0A980B8F1000F05D0A84503D007
S315080008504146584606F000FB2946584606F0FCFA7B
S315080008609AE03E464C46B1E7834B03EBC40353E993
S315080008700201039B1C440D9B002B4AD002460B46E3
S3150800088000207E4907F086F8DDE90E2305F064F8B6
S31508000890DDF80CA0CDE90E01DDE9000107F000FA4C
S315080008A0054605F0A7F9024630350B46DDE9000195
S315080008B005F052F80AF8015B02460B46CDE900013D
S315080008C0DDE90E0107F0CCF9002865D100206C4956
S315080008D0DDE9002305F040F802460B46DDE90E0186
S315080008E007F0BEF9002840F00D81A24500F0EA8025
S315080008F000225E4BDDE90E0106F022FF00225B4B6B
S31508000900CDE90E01DDE9000106F01AFFCDE9000187
S31508000910C2E7DDE90E2306F013FFA046DDF80CA0BA
S31508000920CDE90E01DDE9000107F0BAF9054605F043
S3150800093061F9024630350B46DDE9000105F00CF891
S315080009400AF8015B02460B46A245CDE900234FF0A3
S31508000950000223D1494BDDE90E0104F0FFFF0246F0
S315080009600B46DDE9000107F07BF9002840F0CA8054
S3150800097000204249DDE90E2304F0EEFF02460B464D
S31508000980DDE9000107F04EF970B1C24608F1FF38FB
S315080009901AF8013C302BF8D0374655E0334B06F0B1
S315080009A0CFFECDE90001BDE7DDE90A34CDE9003423
S315080009B0159B002BFFF628AE0E2F3FF725AE2E4BC4
S315080009C003EBC70393ED007B0C9B002B8DED047B9B
S315080009D002DAB9F1000F64D0DDF80CA0DDE90045B4
S315080009E0DDE904232046294606F0D4FF07F058F926
S315080009F0064605F0FFF8DDE9042306F0A1FE0246E7
S31508000A00204606F130040B46294604F0A5FF0AF8ED
S31508000A10014B039C02460B46AAEB0404A14540F091
S31508000A20828004F09BFF04460D46DDE9042307F0A7
S31508000A3017F9002865D120462946DDE9042307F081
S31508000A40E7F808B1F3075CD40299584606F004FAA9
S31508000A50002301378AF80030129B1F60219B002B68
S31508000A603FF421ACC3F800A01DE400BF00002440F9
S31508000A7000001C4000001440409900080000E03FB8
S31508000A800000F03FA24B03EBC70393ED007B0C9BE2
S31508000A90002B8DED047B9FDAB9F1000F9CDC7FF407
S31508000AA0C3AE00229B4BDDE9040106F049FEDDE9F1
S31508000AB0002307F0CBF8044600287FF4B5AE3E467F
S31508000AC02546B4E0DDE90A34CDE90034159B002B50
S31508000AD001DB0E2FD6DD089A012A36DC139A82B37B
S31508000AE003F23343099CDDF81880069A012158461B
S31508000AF01A440692079A1A44079206F017FA054608
S31508000B0086E53E4653469A4613F8012D392A06D1FC
S31508000B10039A9A42F7D13022039901360A701A7855
S31508000B2001321A7038E700227B4B06F009FE0022D4
S31508000B30002304460D4607F06BF800283FF450AF33
S31508000B4082E7149BC3F13603CCE709F1FF34099B0E
S31508000B50A34208DBB9F1000FA3EB04040EDBDDF8B2
S31508000B6018804B46C1E7099B109AE31A0994DDF8E9
S31508000B70188000241A444B461092B6E7069BA3EB4E
S31508000B8009080023B1E7029E71E5099A029970E502
S31508000B90029672E5089B012B17DC009BABB9019BFB
S31508000BA0C3F313039BB9019B23F00046360D3605A4
S31508000BB036B1069B012601330693079B013307933B
S31508000BC0109B002B7FF470AD1096012075E500266A
S31508000BD0F6E73FF486AD1C33069A1A449844069203
S31508000BE0079A1A4407927CE50346F4E7049B002B10
S31508000BF02BDC089B022B09DC27E0B9F1000F1DDC72
S31508000C00089B022B1ADD3E46CDF81090049B002B5C
S31508000C107FF40CAE21460522584606F03FF90146F8
S31508000C200446029807F0ABFE00287FF7FFADDDF813
S31508000C300CA0312301360AF8013BFBE50D9B3E4625
S31508000C40CDF81090002B7FF483AD039F21460298C0
S31508000C5007F0B9FD039B00F13009049A07F8019BD8
S31508000C60FB1A9A4240F3CB8000230A22029958467F
S31508000C7006F014F90290E9E72A6905F10C010C302F
S31508000C800232920007F08AFD01223946584606F0DC
S31508000C9067FA039BA846054603F1010ADDE9032323
S31508000CA013440793009B03F0010309930AF1FF33EA
S31508000CB021460298049307F086FD4146069000F106
S31508000CC03009029807F05BFE2A4621460746584631
S31508000CD006F0B2FAC268014602B3584606F0BCF8F6
S31508000CE0002F3ADA01220299584606F039FA2146C7
S31508000CF0029007F044FE002803DC29D119F0010F01
S31508000D0026D0B9F1390F1DD132E02846C1E700BF18
S31508000D104099000800001440000024400A900298F8
S31508000D2007F02DFE0A990C90584606F095F80C9A8D
S31508000D305ABB089B53B9099B43B9B9F1390F17D068
S31508000D40002F05DD069B03F1310901E0002F2ADAA1
S31508000D50DDF810A00AF8019B6EE5089B3B4304D119
S31508000D60009B03F00103002BBCD0B9F1390F36D133
S31508000D70049F392307F8013BBA46013F1AF8013C9C
S31508000D80392B5AD001333B7056E5002F06DB089BFA
S31508000D903B4306D1009B03F0010313B9002AA1DCEB
S31508000DA0D6E7002AE1DC079B57460AF8019C53451B
S31508000DB02ED000230A220299584606F06FF8A84555
S31508000DC002904FF000034FF00A02414658460BD1F5
S31508000DD006F064F8804605460AF1010A66E7DDF87A
S31508000DE010A009F10109B5E706F058F8294680462A
S31508000DF000230A22584606F051F80546ECE7049BFC
S31508000E004FF00008002BCCBF1F460127039B1F4449
S31508000E1001220299584606F0A3F92146029007F0E6
S31508000E20AEFD0028A8DC02D119F0010FA4D1BA46FC
S31508000E3017F8013D302BFAD0FEE4039BBB429BD149
S31508000E403123039A01361370F6E4219B002B7FF4B5
S31508000E5025AA014BFFF744BA219800080348044B1A
S31508000E60834202D0034B03B118477047081200208B
S31508000E700812002000000000064B0749C91A89100D
S31508000E8048BF0131491003D0044B0BB1014818473C
S31508000E90704700BF0812002008120020000000005A
S31508000EA010B5064C237843B9FFF7D8FF044B13B1A6
S31508000EB00448AFF300800123237010BDDE1500201F
S31508000EC000000000609A000808B5054B1BB10549EB
S31508000ED00548AFF30080BDE80840FFF7CDBF00BF67
S31508000EE00000000008120020609A0008A3F5803A66
S31508000EF0704700BF174B002B08BF134B9D46FFF7E3
S31508000F00F5FF00218B460F461348144A121A07F0BC
S31508000F102CFC0E4B002B00D098470D4B002B00D015
S31508000F2098470020002104000D000D48002802D033
S31508000F300C48AFF3008005F033FE2000290006F0C8
S31508000F40E5FE05F0A1F800BF00000800000000005B
S31508000F500000000000100020081200204C16002097
S31508000F60000000000000000010B5224805F0A2FCB1
S31508000F704FF4FA7004F06CFB1F4805F0B5FC1F48E7
S31508000F8005F098FC0A242E2005F0A6FC322004F071
S31508000F905FFB013CF7D11A4805F0A6FC194805F095
S31508000FA0A3FC194805F0A0FC184805F09DFC12485A
S31508000FB005F09AFC164805F097FC00F011FD00F0C4
S31508000FC0D5F900F099FB0C4805F08EFC114805F0A0
S31508000FD08BFC00F041FD00F001FA00F0CFFB06485B
S31508000FE005F082FC0C4805F07FFCBDE8104002487D
S31508000FF005F07ABCA08D0008A58D0008E48D0008D0
S31508001000CC8E0008FD8D0008258E00084D8E000840
S31508001010668E00088C8E0008B48E000808B500F0AD
S3150800102051FD06F065FE06F07BFE4FF47A7004F07B
S315080010300FFB00F027FD00F057FA00F001FCBDE8B1
S315080010400840014805F050BCA58D000810B51024CD
S3150800105000212246044807F088FB2246BDE81040D6
S315080010600021024807F081BBEF150020DF1500209C
S3150800107010B5E82486B00428ADF80440ADF806009B
S315080010800BD0012811D10291ADF80C20084B01A90B
S31508001090186801F03DF906B010BD0493089B02914B
S315080010A0ADF80C20ADF81430F0E76FF00300F2E766
S315080010B01410002073B50646FFF7C8FF00231B4D22
S315080010C01B4C2B7002230122009329462346042039
S315080010D0FFF7CEFF2478E6B904F00703022B03D006
S315080010E024F0070444F00204FFF7B0FF00230120B0
S315080010F02B706C7002220E4B0C490090FFF7B8FF5C
S3150800110090B14FF4B0710B4802B0BDE8704006F0DC
S31508001110DCBE012EE8D104F00703032B1CBF04F044
S31508001120F80444F00304DFE702B070BDEF150020B1
S31508001130DF150020CE8E00081FB5002301228DF88A
S315080011400C300420009202AB03A9FFF791FF20B1EF
S315080011504FF4B9710C4806F0B8FE9DF80830022223
S3150800116063F07F038DF80D3000230120009303A957
S3150800117002ABFFF77DFF20B140F27B11024806F073
S31508001180A4FE05B05DF804FBCE8E00081FB500234B
S3150800119001228DF80C300420009202AB03A9FFF758
S315080011A067FF20B140F28D110C4806F08EFE9DF8BF
S315080011B00830022203F07F038DF80D30002301204A
S315080011C0009303A902ABFFF753FF20B14FF4CB718D
S315080011D0024806F07AFE05B05DF804FBCE8E0008DC
S315080011E00A231A44D2B29A420CD101280DD00228F9
S315080011F00DD0C8B90D4B102A53F8210015D9103A4D
S31508001200D04070470133DBB2EDE7094BF3E7094BF2
S315080012100D2A53F8210008D9A2F10E03032B4FEA31
S31508001220500002D9113AEBE700207047D490000825
S31508001230A4900008749000082DE9F0472DED028B64
S31508001240044682B00020FFF735FFFFF7FFFE0623AE
S31508001250DFF80881012288F800300223414600930E
S3150800126004203C4BFFF704FF20B140F20B213A481B
S3150800127006F02BFE374F01253E78FFF7E7FE0823D9
S3150800128088F8003002234FEA161A06F00F0605FA08
S3150800129006F900932A463B46042030491FFA89F985
S315080012A0FFF7E6FE20B140F215212B4806F00DFEA9
S315080012B04FF47A253B78324603F00303514620461D
S315080012C09D40FFF78DFF08EE100A0120FFF7F2FE9A
S315080012D0FFF732FFFFF7BAFE484604F0B9F9012CCA
S315080012E02BD0022C0CBF0423022388F800300223DB
S315080012F0012200930420174B1849FFF7B9FE20B1C5
S315080013004FF40E71144806F0E0FDB540FFF73EFFB6
S3150800131007EE905AB8EE488AB8EE677A3B88C8EE68
S31508001320077A07EE103AB8EEC77A012C67EE877A85
S3150800133005D0022C0BD10A4B02E00323D5E7094B53
S31508001340C3ED007A02B0BDEC028BBDE8F087064B10
S31508001350F6E700BFDF150020CE8E0008EF15002047
S3150800136020120020241200202812002037B5002061
S31508001370FFF7A0FEFFF76AFE0223134D50202B70DD
S3150800138004F066F90122114C2946009223460420EE
S31508001390FFF76EFE054622780D490E4805F08AFAD3
S315080013A025B140F265210C4806F08FFD2378212BE4
S315080013B007D04FF41A71084803B0BDE8304006F06C
S315080013C084BD03B030BD00BFEF150020DF15002037
S315080013D0D68E0008DD8E0008CE8E000873B5384913
S315080013E0384805F067FA0020FFF764FE4226FFF743
S315080013F02DFE00230120344C0222237021466670FC
S31508001400324B0090FFF734FE054632462C493048E9
S3150800141005F050FA25B140F282212E4806F055FD16
S315080014200623A62601202370022227496670274B29
S315080014300090FFF71DFE054632462149264805F06D
S3150800144039FA25B140F28F21224806F03EFD0723DE
S3150800145040260120237002221B4966701B4B009010
S31508001460FFF706FE0546324615491C4805F022FADE
S3150800147025B14FF42771174806F027FD08234025A4
S3150800148001202370657002220F49104B0090FFF768
S31508001490EFFD04462A460A49114805F00BFA24B11D
S315080014A040F2AB210B4806F010FD05490D4805F042
S315080014B001FA012002B0BDE87040FFF7FBBD00BF8E
S315080014C0D68E0008F78E0008EF150020DF150020DD
S315080014D02E8F0008CE8E0008538F00087A8F0008DA
S315080014E0A18F0008C88F0008184B37B5186804F094
S315080014F093FB174CCDE90001164A2146164805F01C
S31508001500D9F9164B164D186804F086FB154ACDE92D
S3150800151000012146284605F0CDF9134B186804F05A
S315080015207BFB124ACDE900012146284605F0C2F99F
S315080015300F4B186804F070FB0E4ACDE900012146EE
S31508001540284605F0B7F903B030BD00BF2C120020BD
S31508001550D68E0008FD8F0008099000082812002082
S3150800156035900008269000082412002053900008A1
S31508001570201200206290000810B51024002122468F
S31508001580044807F0F2F82246BDE810400021024858
S3150800159007F0EBB80F160020FF150020F0B587B04E
S315080015A0FFF7EAFF4FF4007004F052F80623224DC5
S315080015B0224F234E2B700123224C306801A9CDE916
S315080015C00175ADF80C300494ADF8143000F0A0FEA7
S315080015D020B14FF48F711C4806F077FC23781B075F
S315080015E0E9D5FFF7C9FF01232B70ADF80C300323AB
S315080015F0124A306801A9CDE901250494ADF81430E2
S3150800160000F086FE20B14FF493710F4806F05DFC9A
S31508001610637822781B0243EA0243A278DFED0B6A5D
S31508001620134307EE903AF8EEE77A87EEA67A084B68
S3150800163083ED007A07B0F0BD0F160020C000040045
S3150800164014100020FF1500200491000800007A47B6
S3150800165030120020F0B587B0FFF78EFF4FF4007008
S3150800166003F0F6FF06231E4D1E4F1F4E2B70012357
S315080016701E4C306801A9CDE90175ADF80C3004940B
S31508001680ADF8143000F044FE20B14FF4A0711848AC
S3150800169006F01BFC23781B07E9D5FFF76DFF04232B
S315080016A02B70104B3068CDE901350123ADF80C30AD
S315080016B0022301A90494ADF8143000F029FE20B1E4
S315080016C04FF4A4710A4806F000FC2388DBBA07EE3B
S315080016D0903AFAEECC7A074BC3ED007A07B0F0BD24
S315080016E00F160020C000040014100020FF1500206B
S315080016F0049100083412002030B587B0FFF73CFF8C
S315080017000C23174C5020237003F0A2FF154B01A998
S31508001710CDE901340123ADF80C300823ADF81430B7
S31508001720114B124C1868049400F0F2FD0546227815
S315080017300F49104805F0BEF825B14FF4B2710E48AE
S3150800174006F0C3FB2378C42B04D040F267110A487D
S3150800175006F0BBFB07B0BDE83040FFF70DBF00BF82
S315080017600F160020C000040014100020FF150020EA
S315080017700D910008DD8E00080491000830B587B089
S31508001780FFF7FAFE2623274C274D2370382363706C
S31508001790264B2868CDE90134022301A9ADF80C309F
S315080017A000F0B6FD20B14FF4BE71214806F08DFB5E
S315080017B020493822204805F07DF813232370072393
S315080017C063701A4B2868CDE90134022301A9ADF8E4
S315080017D00C3000F09DFD20B14FF4C371144806F09B
S315080017E074FB14490722154805F064F8262323706C
S315080017F0392363700D4B2868CDE90134022301A90A
S31508001800ADF80C3000F084FD20B14FF4C7710848DC
S3150800181006F05BFB39220749074807B0BDE83040A8
S3150800182005F048B80F16002014100020C00001006B
S31508001830049100080D9100081791000842910008CC
S315080018400C4B13B5186804F0E7F90B4CCDE9000109
S315080018500A4A21460A4805F02DF80A4B186804F08A
S31508001860DBF9094ACDE900012146084805F022F8C6
S3150800187002B010BD301200200D9100086F910008CB
S315080018807891000834120020FD8F00089291000814
S315080018900122014B1A7070471F1600204378027800
S315080018A003F0FC0303EB022307EE103ADFED0D7A93
S315080018B0B8EEC77ADFED0C6A27EE277ADFED0B7AEA
S315080018C057EE267AF5EEC07AB6EE007AF1EE10FA01
S315080018D04CBF77EEC77A77EE877AFCEEE77A17EE93
S315080018E0900A704752B82F430000803766663B421D
S315080018F0F5232DE9F04389B08DF80730284B294E9A
S315080019000393022305460DF10707306803A90497D8
S31508001910ADF8143000F0FCFC18B1B721224806F0E7
S31508001920D4FA4FF4FA744FF00209DFF88880013CC4
S3150800193022D202A806F0FBF91C4B03A91860E02383
S315080019408DF807301A4B3068CDE903370123ADF817
S31508001950143002AB06930223ADF81C3000F0D8FC15
S3150800196018B1CD21104806F0B0FA02A8FFF796FF85
S31508001970286009B0BDE8F08302AB306803A9CDF84A
S315080019800C800493ADF8149000F0C2FC0028CED168
S31508001990002CCED1C521044806F097FAC9E700BF46
S315080019A08000010014100020AF9100086812002082
S315080019B0800004008000020010B5064C2046FFF7A0
S315080019C097FF2368044A991E1160044A023313607C
S315080019D010BD00BF60120020581200205C120020C3
S315080019E04CF6FC1310B5502088B0ADF8003003F063
S315080019F02FFE144B03A903930223ADF8143001AB51
S31508001A0006930823ADF81C300F4BCDF810D0186894
S31508001A1000F07EFC04469DF804200C490C4804F0AE
S31508001A2049FF24B14FF494710A4806F04EFA9DF81E
S31508001A300430152B04D040F22B11064806F045FA5F
S31508001A4008B010BD8000040014100020B7910008EB
S31508001A50DD8E0008AF91000807B5FFF7ADFF4FF41C
S31508001A607A7003F0E3FD00230146CDE90033034A0B
S31508001A70034806F00CFC03B05DF804FB9118000857
S31508001A803812002010B5084B084C1B682146084A36
S31508001A90084804F00FFF084B2146BDE810401B68B4
S31508001AA0064A074804F006BF68120020B7910008E6
S31508001AB0BE910008D091000864120020FD8F00082E
S31508001AC0E891000810B5044C237823B10348FFF7C2
S31508001AD00FFF0023237010BD1F160020641200207C
S31508001AE010B5274C01F022FC01F04AFE236F23F0C3
S31508001AF0070343F00303236706F061FA214B00202E
S31508001B009B6ADB015EBF4FF480321F4B9A62D4F8A2
S31508001B10203123F0070343F00203C4F82031D4F838
S31508001B20283123F0070343F00203C4F82831D4F818
S31508001B30403123F0030343F00203C4F84031D4F8DC
S31508001B40603123F0030343F00203C4F86031D4F88C
S31508001B50403223F0030343F00203C4F84032D4F8BA
S31508001B60003223F0070343F00203C4F80032D4F826
S31508001B70083223F0070343F00203C4F8083210BD05
S31508001B80008000500040005A0060005A08B53A200C
S31508001B90012101F07BF9BDE80840014800F00CBBC3
S31508001BA00010002030B5294D9DB008AC0FCD0FC4EC
S31508001BB095E80F0084E80F002A2200210DF146005F
S31508001BC006F0D3FD224B01241093562312930823C3
S31508001BD01593092317930523199303230E2200212E
S31508001BE00DF112008DF845408DF860408DF84430AF
S31508001BF006F0BBFD4FF47020164B08AACDE9020388
S31508001C000B238DF810300C238DF81130124B134826
S31508001C10059320230693124B02A9009310AB8DF867
S31508001C201D4003F039F8044618B17C210D4806F02A
S31508001C304CF99DF81E304FF4E130002B0CBF032100
S31508001C40002106F01FF920461DB030BD3492000869
S31508001C500000015B3C00015B20160020D01200202A
S31508001C606C12002004920008014806F08BBA00BFE7
S31508001C70D012002008B5044806F03FF9BDE8084030
S31508001C80024806F03AB900BF6C9200085492000860
S31508001C90082808B50ADC00280EDD013807280BD805
S31508001CA0DFE800F00C140A1A0A0A0A1C202819D0C0
S31508001CB0402819D0102813D0D82108E00321012381
S31508001CC00846042202F0EAF9002008BD92210748D6
S31508001CD006F0FBF80E20F8E79F21F8E7AC21F6E7B7
S31508001CE0B921F4E7C621F2E7D321F0E78492000888
S31508001CF01022024BC3F8A020704700BF00D0035043
S31508001D001022024BC3F8A020704700BF00E0035022
S31508001D1070B5404D88B001AC0FCD0FC495E80700EB
S31508001D2084E80700012401213A2001F0AFF83A4E71
S31508001D300121292001F0AAF8384B304601A903935E
S31508001D408DF8124002F0CEFD2346214604220220D9
S31508001D5002F0A4F9022122460846002302F09EF961
S31508001D60234604220321022002F098F9042223467E
S31508001D701146022002F092F9294D2A4B4FF4487079
S31508001D80C5F834374FF00213C5F83037A3F580335A
S31508001D90C5F838371C23C5F8203703F0ADFD1420E5
S31508001DA0FFF7AEFF03F0A8FD2320FFF7A1FF03F01E
S31508001DB0A3FDB9213046FFF7A3FF06F05AF9FFF74E
S31508001DC097FF002321461A46022002F067F90023EE
S31508001DD002211A46084602F061F923460022032129
S31508001DE0022002F05BF9234600220421022002F0B9
S31508001DF055F9304602F04AFD00212920C5F8341766
S31508001E00C5F83017C5F83817C5F8201701F03EF899
S31508001E1008B070BDC492000800C0055000127A00D0
S31508001E2000C00350020003000348044A0449121A7A
S31508001E30921006F037B800BF7C9C00087C9C00080E
S31508001E404C16002008B500F02FF8FFF7EDFF124BEF
S31508001E5012498B4212D30020114B12498B4218D3D8
S31508001E60FFF748F8186850F82240586840F82240AA
S31508001E70013298688242F5D30C33EAE70022F8E784
S31508001E801C6844F8220001325C68A242F8D3083381
S31508001E90E4E70022F8E700BF689A0008749A000889
S31508001EA0749A0008749A00084FF480414FF0FF3086
S31508001EB0114B124A10B59A60D3F8882042F4700282
S31508001EC0C3F888200E4A91660E4901F5005210663D
S31508001ED00D4850660220C3F8D000BFF34F8FBFF3FA
S31508001EE06F8F01244FF440330848C0F88041D3600F
S31508001EF004600B6110BD00BF00ED00E000000008A3
S31508001F000090005000800044F7FF370000E100E031
S31508001F10014B1868704700BF1C100020084B1B6F48
S31508001F2003F00703022B04D0032B05D0012B05D0A1
S31508001F30FEE7044B18687047034BFBE703487047F6
S31508001F40008000501C10002024100020002D3101B4
S31508001F5008B5FFF7E3FF054B1B6FC3F303330133E4
S31508001F60B0FBF3F0024B186008BD00BF00800050BC
S31508001F70181000200048704700B4C404014B1868C4
S31508001F80704700BF24100020054B1860054B1B6FD7
S31508001F9003F00703032B01D1FFF7DABF704700BF31
S31508001FA0241000200080005000487047002D3101A1
S31508001FB04FF0B4439868C0F304400C280AD8DFE809
S31508001FC000F00B0909090909072119091B1D1F003A
S31508001FD00F487047002070479B6803F04073B3F1C1
S31508001FE0807F11D0B3F1007F10D00A4A002B08BFBA
S31508001FF010467047084870470848704708487047B1
S3150800200008487047084870470848704708487047A6
S31508002010405DC60000093D00C0EA210180BA8C0176
S315080020200048E801005A62020024F40080841E0079
S3150800203040420F00014B1868704700BF201000206F
S315080020400346054A0549106803448B428CBF4FF086
S31508002050FF301360704700BF2810002000000420DE
S3150800206008B501213A2000F011FF012304220321BB
S31508002070002002F013F8002005F0FAFF0122354B84
S315080020803549C3F844244FF40022A3F550335A6661
S31508002090324BD3F8FC20D20146D4D1F8803023F055
S315080020A0030343F00203C1F880304FF4607000F078
S315080020B015FF2A4B00F5D520D3F8F02000F2FC4096
S315080020C042F00102C3F8F020D3F8FC2042F08072F7
S315080020D0C3F8FC20224AA3F55D431A60214B02226D
S315080020E0B0FBF3F0204B01381861C3F8F0204FF429
S315080020F08072C3F804234FF060431C4A0020C3F8DB
S31508002100B02F1B4AC3F8802ED3F8002E42F48072F3
S31508002110C3F8002EFF2283F82020D3F8002E22F4DD
S315080021208072C3F8002E08BDD3F8FC2022F0807216
S31508002130C3F8FC20D1F8802022F0030242F0020204
S31508002140C1F88020D3F8FC2042F08072C3F8FC2046
S31508002150ABE700BF00D003500080005000ED00E060
S31508002160FF030040F8590D00000004E055CEACC549
S31508002170090001004FF06043D3F8802E30B5D2072E
S3150800218015D501240B4D8440D5F8FC2042F0807209
S31508002190C5F8FC20D3F8002E2243C3F8002E53F8C6
S315080021A02020002AF0D003F82010002030BD11208E
S315080021B0FCE700BF00ED00E02DE9FF47044618B92B
S315080021C039214D4805F081FE2368B3F1B64F09D091
S315080021D04A4A93427BD04F21474804B0BDE8F047AE
S315080021E005F073BE2E20012100F050FE01230A22BD
S315080021F06179207901F052FF01230A22E179A07959
S3150800220001F04CFF0A27DFF80081DFF800913C4D0A
S31508002210267994F805A0032E05D839F8163023FA3E
S315080022200AF3DA0704D440F2FE31404605F04DFEC3
S315080022303022012302FB065603FA0AF306F5015675
S315080022403360642003F058FB267994F805A0032E22
S3150800225006D82C4B33F8163023FA0AF3DB0704D4D6
S3150800226040F22D41404605F030FE3022012302FBA4
S31508002270065603FA0AF306F582566420336003F01D
S315080022803BFB013FC4D12068B0F1B64F21D10323EF
S31508002290C5F8E8346279237943EA0243C5F8EC3491
S315080022A0E279A37943EA0243C5F8F03440F2011310
S315080022B0ADF80030E36869460293A3680193237C6E
S315080022C08DF80C3001F0D4FF04B0BDE8F0872F205C
S315080022D089E70A4B9842E9D10323C5F8F8346279AD
S315080022E0237943EA0243C5F8FC34E279A37943EA41
S315080022F00243C5F80035D9E7E09200080080065089
S3150800230000C00350829300081A93000882930008BD
S3150800231038B5054602F0F0F8044C012801D1013C15
S3150800232000D138BD284601F0D5FFF6E7E193040051
S31508002330032838B504460D4605D8094B33F810303E
S31508002340CB40DB0704D440F2FE31064805F0BDFD5C
S31508002350302301225C43044BAA401A5138BD00BF02
S315080023608A9300081A93000840E00350032838B5FA
S3150800237004460D4605D8094B33F81030CB40DB0729
S3150800238004D440F22D41064805F09FFD3023012272
S315080023905C43044BAA401A5138BD00BF8A93000813
S315080023A01A93000840D0035038B504784578032CB2
S315080023B005D8094B33F81430EB40DB0704D44FF447
S315080023C08961064805F081FD302301225C43044BF0
S315080023D0AA401A5138BD00BF8A9300081A9300080C
S315080023E040F0035070B505780446032D467805D8A5
S315080023F00C4B33F81530F340DB0704D44FF48361F4
S31508002400094805F062FD1022302313FB0523074A0D
S315080024109B58F34003F00100A3780BB980F0010044
S3150800242070BD00BF8A9300081A93000830C0035095
S315080024302DE9F04F9A46564B85B01B7806460F464F
S315080024401546DDF83C909DF844B0DDF85080002B29
S3150800245000F09780072A00F296800E9B002B00F06A
S315080024609280B9F1000F00F08E80129BB3F5006FD1
S3150800247000F38980012803D1109B002B00F083808C
S31508002480444B03EB05131B7B002B7ED0424C1022DA
S315080024900021684606F069F904EB45141022A7BB2B
S315080024A03946204606F061F943F210036380BBF112
S315080024B0000F03D1E37843F00303E370364A0E9B1B
S315080024C002EB451CCCE90193129B6901581E9DF845
S315080024D04C30C0F30A0003F003039B0643EA001ED0
S315080024E053582E48012E00EA03004EEA0003CDF8A1
S315080024F000A0535017D0B8F1000F2ED19CF8023027
S3150800250068F304138CF8023027E00021204606F011
S315080025102CF94FF444736380BBF1000FCED1E378F6
S3150800252043F03003C9E713230CF1100ECCF80C3036
S315080025309CE80F008EE80F006FF00301DCF81C2002
S31508002540109B61F39F02012FCCF81C20CCF81430A5
S3150800255003D1CCF81890CCF8043000270D4A29018D
S3150800256002EB051342F80180159A28465A60694617
S3150800257022469F605E7302F0A5F8384605B0BDE8AE
S31508002580F08F0748FAE70748F8E70748F6E700BF75
S3150800259040160020E8130020E81200200F80FFF301
S315080025A0028000F0018000F0078000F038B5124B79
S315080025B005461B78DBB1E0B105F01DFD0F4A002387
S315080025C01146147B54B92B6001251A0101EB03133C
S315080025D01D738C5005F015FD204638BD0133082BB8
S315080025E002F11002EDD105F00CFD0548F5E70548A6
S315080025F0F3E70548F1E700BF40160020E81300207E
S31508002600048000F0028000F0018000F038B505F083
S31508002610F2FC002305460B4A147B6CB90133082BE0
S3150800262002F11002F8D101F0C5FF074B28461C70CD
S3150800263005F0E7FC204603E0284605F0E2FC0348DF
S3150800264038BD00BFE813002040160020058000F0C2
S315080026500D4B10B51B78044693B1072812D805F020
S31508002660CAFC0A4B03EB04131A7B2AB100241C7319
S3150800267005F0C7FC204610BD05F0C3FC0448FAE780
S315080026800448F8E70448F6E740160020E813002057
S31508002690068000F0028000F0018000F0154B13B5AB
S315080026A01868002301908DF8043005F0A4FC124B3D
S315080026B01C7824B105F0A5FC104802B010BD012213
S315080026C01A7005F09EFC0E4B01A81C731C7783F844
S315080026D02C4083F83C4083F84C4083F85C4083F8F0
S315080026E06C4083F87C4008238DF8073001F0A0FF82
S315080026F02046E2E79293000840160020038000F087
S31508002700E81300200A4A08B512785AB107280BD8E8
S31508002710084A02EB00131B7B43B1002101F068FF56
S31508002720002008BD0448FCE70448FAE70448F8E72F
S3150800273040160020E8130020028000F0018000F017
S31508002740078000F00A4A08B512785AB107280BD84C
S31508002750084A02EB00131B7B43B1012101F048FF35
S31508002760002008BD0448FCE70448FAE70448F8E7EF
S3150800277040160020E8130020028000F0018000F0D7
S31508002780078000F00A4A08B5127852B107280AD815
S31508002790084A02EB00131B7B3BB102F015F8002038
S315080027A008BD0548FCE70548FAE70548F8E700BF0D
S315080027B040160020E8130020028000F0018000F097
S315080027C0078000F00D4B1B7893B1072812D889B102
S315080027D00B4B03EB00131B7B73B10A4B1A6D0123DA
S315080027E08340134214BF0123002300200B70704757
S315080027F00548704705487047054870474016002049
S31508002800E813002000000450028000F0018000F068
S31508002810078000F00B4A10B512780C4662B10728FB
S315080028200CD859B1084A02EB00131B7B43B101F0DF
S31508002830E7FF2070002010BD0448FCE70448FAE7CB
S315080028400448F8E740160020E8130020028000F04C
S31508002850018000F0078000F0184B2DE9F0411F6D4C
S315080028605B6D1F4000D5FEE701260025144CDFF8F6
S315080028705880374218D02368C8F85060A3B1A168B9
S31508002880284601316268A1609847637B012B0BD10A
S3150800289050B90C4B03EB45131A7B60F341021A73CC
S315080028A01A7F60F341021A770135082D4FEA46066A
S315080028B004F11004DDD1BDE8F08100BF000004502A
S315080028C0E8130020E812002000200450044BD3F837
S315080028D08420D206FBD4D3F88400C0F38110704755
S315080028E00040005038B5124B0546D3F880300C46E8
S315080028F003F00303022B0BD0032B0DD0012B0FD1B2
S31508002900FFF70CFB0E2305B1286004B1236038BD20
S31508002910FFF74EFB0723F6E7FFF7FAFA0623F2E777
S31508002920044841F2DF1105F0D0FA00231846EAE719
S31508002930008000509693000838B51A4B0546D3F820
S3150800294020010C4600F00700062821D8DFE800F031
S3150800295028040C1410181C00FFF7DAFA052305B131
S31508002960286004B1236038BDFFF708FB0323F6E7A8
S31508002970FFF71EFB0723F2E7FFF716FB0223EEE736
S31508002980FFF7C6FA0623EAE7FFF7F8FA0423E6E7AD
S31508002990054841F25C2105F098FA00231846DEE75F
S315080029A00123DCE7008000509693000838B5194BE0
S315080029B00546D3F828310C4603F00703013B052BDF
S315080029C020D8DFE803F003131B0F0B17FFF7A0FA55
S315080029D0052305B1286004B1236038BDFFF798FACE
S315080029E00623F6E7FFF7E4FA0723F2E7FFF7C6FA46
S315080029F00323EEE7FFF7C2FA0423EAE7FFF7D4FA60
S31508002A000223E6E7044841F2640105F05EFA002372
S31508002A101846DEE70080005096930008F7B50027B1
S31508002A20144B0197D3F88041064604F00304022CA0
S31508002A300D4614D0032C0DD0012C14D1394601A80B
S31508002A40FFF77AFF10240EB1019B336005B12C60A5
S31508002A5003B0F0BDFFF7ACFA07240190F3E7FFF7E0
S31508002A60A3FA0190EFE741F2B131034805F02DFAD8
S31508002A703C46E8E70080005096930008002337B5E7
S31508002A800193194B0546D3F820320C4603F0070389
S31508002A90042B1FD8DFE803F025030F1419000021C3
S31508002AA001A8FFF783FF12230DB1019A2A6004B12A
S31508002AB0236003B030BDFFF77BFA07230190F3E7E5
S31508002AC005F0FDF90A230190EEE7FFF7B3FA0923AB
S31508002AD00190E9E741F22301044805F0F6F90023DD
S31508002AE0E2E70123E0E700BF008000509693000864
S31508002AF038B5104B0546D3F840310C4603F00303AE
S31508002B00022B0BD0032B0DD0012B0FD105F0D7F9D3
S31508002B100A2305B1286004B1236038BDFFF78AFA95
S31508002B200923F6E705F0CEF90C23F2E70123002086
S31508002B30EFE700BF00800050002337B50193184B1C
S31508002B400546D3F860320C4603F00703013B032B16
S31508002B501FD8DFE803F0020E1914002101A8FFF7B9
S31508002B60EBFE10230DB1019A2A6004B1236003B06D
S31508002B7030BD002101A8FFF7BBFF1123F2E7FFF7DD
S31508002B8017FA07230190EDE7FFF70EFA02230190E3
S31508002B90E8E741F2C801034805F097F90023E1E7A1
S31508002BA00080005096930008002337B50193184B10
S31508002BB00546D3F894320C4603F00703013B032B72
S31508002BC01FD8DFE803F0020E1914002101A8FFF749
S31508002BD0B3FE10230DB1019A2A6004B1236003B035
S31508002BE030BD002101A8FFF783FF1123F2E7FFF7A5
S31508002BF0DFF907230190EDE7FFF7D6F902230190E5
S31508002C00E8E741F2FB01034805F05FF90023E1E735
S31508002C10008000509693000873B500240F4B01946A
S31508002C20D3F87032064603F00303012B0D4607D08E
S31508002C30022B11D041F22611094805F046F904E0A5
S31508002C40214601A8FFF754FF11240EB1019B3360FA
S31508002C5005B12C6002B070BD1524F6E7008000505F
S31508002C609693000838B5164B0546D3F800020C466D
S31508002C7000F00700042819D8DFE800F020030B0F3E
S31508002C80130005F01CF90A2305B1286004B1236076
S31508002C9038BDFFF7CFF90923F6E705F013F90C233A
S31508002CA0F2E7FFF755F90F23800AEDE7054841F2E9
S31508002CB06F4105F00AF900231846E5E70123E3E723
S31508002CC0008000509693000838B5164B0546D3F891
S31508002CD008020C4600F00700042819D8DFE800F0BF
S31508002CE020030B0F130005F0EAF80A2305B1286044
S31508002CF004B1236038BDFFF79DF90923F6E705F00F
S31508002D00E1F80C23F2E7FFF723F90F23800AEDE732
S31508002D10054841F2A74105F0D8F800231846E5E72B
S31508002D200123E3E7008000509693000838B5104B5E
S31508002D300546D3F840320C4603F00303022B0BD0AA
S31508002D40032B0DD0012B0FD105F0B9F80A2305B1D5
S31508002D50286004B1236038BDFFF76CF90923F6E74C
S31508002D6005F0B0F80C23F2E701230020EFE700BFD7
S31508002D700080005038B5104B0546D3F860310C4634
S31508002D8003F00303022B0BD0032B0DD0012B0FD11D
S31508002D9005F095F80A2305B1286004B1236038BD0B
S31508002DA0FFF748F90923F6E705F08CF80C23F2E754
S31508002DB001230020EFE700BF00800050B0F5207F18
S31508002DC010B52ED009D8B0F5007F24D003D868B145
S31508002DD0B0F5C07F0AD000241BE0B0F5607FFAD1B9
S31508002DE0124BD3F88040C4F3011412E00F4B1C6F4A
S31508002DF0230B13F00E0FC4F303340AD0072C08D0A4
S31508002E000F2C06D0032C04D040F28521084805F083
S31508002E105CF8601C10BD054BD3F89040C4F30464FD
S31508002E20F7E7024B1C6FC4F38024F2E700800050DA
S31508002E30969300084FF4803238B5104B04469A66CC
S31508002E4000200D46FFF7BAFF41F671320C4B60437E
S31508002E50DC69DA635A6804F4803422F440125DB9F6
S31508002E600849884294BF00200120000502435A60A1
S31508002E700CB10022DA6338BD0349F2E7009000502E
S31508002E8000000350005A6202002D310138B543098B
S31508002E9004460D460ED140F22F310D4805F015F8BF
S31508002EA0002304F01F0485B103F580530122A240D4
S31508002EB01A6038BD012B04D0022B04D040F23D31F4
S31508002EC0EBE7044BEDE7044BEBE703F50053EDE7BF
S31508002ED0969300086480005068800050002130B541
S31508002EE0802885B00446CDE9001100F09F8035D8CA
S31508002EF05E2846D85E2844D8DFE800F09E43434360
S31508002F004343434343434343434343434343434383
S31508002F104343434343434343434343439EAB9EABED
S31508002F20BBBBBBBBBBABC550DB7450ABABAB434306
S31508002F30434343434343ABABAB7CE5AB43434343D8
S31508002F40434343434343434343BB9E9E9EE0505003
S31508002F50EA8B61C04343434343939E00B0F5B06F89
S31508002F6000F0918030D8B0F5207F72D00FD8B0F538
S31508002F70C07F61D0B0F5007F61D0B0F5807F00F0EA
S31508002F80878040F29441554804F09FFF51E0B0F520
S31508002F90607F69D00DD8B0F5407FF2D1FEF7D8FF33
S31508002FA004464FF42070FFF709FFB4FBF0F46408F9
S31508002FB058E0B0F5806F5CD0B0F5A06FE1D1002184
S31508002FC06846FFF75BFD34E0B0F5106F76D016D88B
S31508002FD0B0F5E06F77D00AD8B0F5C06F69D0B0F514
S31508002FE0D06FCED100216846FFF73CFE21E0B0F550
S31508002FF0F06FC6D100216846FFF7BCFE19E0B0F5B0
S31508003000406F3BD00AD8B0F5206F61D0B0F5286F75
S31508003010B7D100216846FFF7FFFD0AE0B0F5486F13
S31508003020AFD100216846FFF7BFFD02E0FEF776FF45
S315080030300090009805B030BDFEF78AFFF8E7FEF766
S315080030406DFF05462046FFF7B9FEB5FBF0F500957E
S31508003050EFE7FEF77DFF04464FF42070FFF7AEFE5C
S31508003060B4FBF0F40094E4E701A8FFF73BFC019DEC
S31508003070E8E700216846FFF75FFCDAE700216846C3
S31508003080FFF794FCD5E700216846FFF7C7FCD0E7B1
S315080030904FF0E02302911B695B0705D5FEF758FF41
S315080030A00290029B0093C4E703A902A8FFF720FD3C
S315080030B0F7E700216846FFF71BFDBAE700216846D7
S315080030C0FFF702FEB5E700216846FFF72FFEB0E7D7
S315080030D000216846FFF730FDABE700BF969300086E
S315080030E008B58020FFF7FAFE034B98429EBF4FF4BF
S315080030F08032024B1A6708BD005A620200A00050CF
S315080031001FB503460020B3F5807F019000F0C2800A
S3150800311063D85D2B54D84C2B06D82D2B46D8232B99
S315080031202AD840F27951A4E04D3B102BF9D801A2D8
S3150800313052F823F08B3200082331000823310008A7
S31508003140233100083D3200082331000823310008E6
S315080031500F3300085B320008013200080533000807
S3150800316023310008233100082331000823310008E1
S315080031702331000819330008243B092BD1D801A2B2
S3150800318052F823F08B3200088B3200088B32000885
S315080031908B3200088B320008233100087B32000886
S315080031A0233100081D320008C13200083D2B00F00B
S315080031B082803E2BB5D1002001A9FFF7B7FD60E05C
S315080031C0802BAED1574B1B6F03F00703013B032B34
S315080031D04DD8DFE803F04A47878FB3F5F06F6AD01A
S315080031E021D8B3F5B06F48D00FD8B3F5607F00F09B
S315080031F0858096D3B3F5806F47D0B3F5A06F90D18D
S31508003200002001A9FFF73AFC3BE0B3F5D06F57D091
S31508003210B3F5E06FCFD0B3F5C06F82D1002001A916
S31508003220FFF766FC2DE0B3F5206F70D00BD8B3F529
S31508003230086F4AD0B3F5106F7FF473AF002001A969
S31508003240FFF742FD1DE0B3F5406F5BD0B3F5486F5D
S3150800325062D0B3F5286F7FF464AF002001A9FFF7A9
S31508003260DBFC0EE0052301930BE00223FBE740F2AB
S31508003270C6412D4804F029FE03E0002001A9FFF706
S31508003280CDFB019805B05DF804FB002001A9FFF706
S3150800329053FBF6E74FF0E02302901B695B0705D561
S315080032A0FEF756FE0D230393039BDCE703A902A84A
S315080032B0FFF71EFCF8E7002001A9FFF75BFDE0E732
S315080032C0002001A9FFF7CEFCDBE7164BD3F8003147
S315080032D003F00303022B07D0032B09D0012B0BD1D4
S315080032E0FEF74CFE0323BEE7FEF7A4FE0923BAE762
S315080032F004F0E3FD0823B6E70123B4E701A9FFF7C5
S31508003300F1FABEE7002001A9FFF750FBB9E7002054
S3150800331001A9FFF711FCB4E7002001A9FFF744FC57
S31508003320AFE700BF00800050969300084FF4801264
S31508003330034B5A664FF48032024B9A62704700BFBD
S31508003340009000500050005A38B5036804460F2B09
S3150800335004D940F66D317C4804F0B7FD63680F2B3D
S3150800336004D94FF43761784804F0AFFDA3680F2BF2
S3150800337004D940F67331744804F0A7FD237B0F2B5C
S3150800338004D940F67631704804F09FFD637B0F2B15
S3150800339004D940F679316C4804F097FDA37B3F2B9E
S315080033A004D940F67C31684804F08FFDE37B3F2B57
S315080033B004D940F67F31644804F087FD2369032B5E
S315080033C004D940F68231604804F07FFD6369032B17
S315080033D004D940F685315C4804F077FDE369032B90
S315080033E004D940F68831584804F06FFD8020FFF76D
S315080033F087FE032800F083804FF48012534B4FF06A
S31508003400A0615A6645F60E02514BC3F88020514A10
S3150800341091624FF4803102F5805291629A6DD2031F
S31508003420FCD4996D11F08041FBD1D4E90002120554
S3150800343042EA0062E07B0243207B42EA0042607B6C
S3150800344042EA0032A07B42EA80121A619869D4E9FE
S315080034500452120642EA856200F000400243A07E4A
S31508003460E57E0243207E42EA0042607E42EA00226E
S315080034709A611A6AE06922F00F0242EA8502364D1D
S3150800348000283DD11A6294F82420996A94F82000FD
S31508003490D200294042EA40120A4394F8211042EA2F
S315080034A0011242F480329A622C49294A936D31EA14
S315080034B00303FBD14FF08071264881621369A56822
S315080034C023F4700343EA055313614FF00043836105
S315080034D094F822300BB9224B996294F823303BB901
S315080034E04FF480321E4B9A62194A936D5B00FCD4E6
S315080034F094F825301BB1164B1A4AC3F8802038BDFC
S31508003500024342F0080202281A6208D119614FF4F0
S315080035100852996114484FF47F4104F02EFD0C4976
S3150800352094F822308A6A94F820001B062A4043EA57
S315080035304013134394F8242043EAC20394F8232043
S3150800354043EA02438B62D3E7969300080090005043
S315080035500040005A0050005AC7FFFEFE0300010053
S315080035600060005AF1A7FFFF3440005A014B93F957
S3150800357000007047FE110020436810B5072B04466B
S3150800358004D940F6B3512A4804F09FFCA368032BDC
S3150800359004D940F6B551264804F097FC2378032B46
S315080035A004D940F6B751224804F08FFC94F901304B
S315080035B0002B04DA40F6B9511D4804F086FC4FF496
S315080035C000011C4A637851664FF4D151022002F576
S315080035D0B832516218494F2B48604FF0010028BF96
S315080035E04F2301F5805148601169C903FCD421783D
S315080035F043EA01235361D4E901131B0143EA01237A
S31508003600617B0B43217B43EA41039360E37BA17B08
S315080036101B0143EA4113617C0B43217C43EA4103C6
S315080036205360A37C13B16FF4D153536210BD00BF2E
S31508003630969300080090005000100250014B188025
S31508003640704700BFF6110020014B1880704700BF75
S31508003650F4110020B0F5207F38B577D00ED8B0F534
S31508003660007F61D003D890B3B0F5C07F2FD040F269
S315080036701231BDE838403D4804F027BCB0F5607FFC
S31508003680F5D13B4A4C1ED2F8FC5015F080751EBF8A
S31508003690D2F8FC3023F08073C2F8FC30032C04D92E
S315080036A040F2F221314804F010FC324AD2F8803058
S315080036B023F0300343EA0413C2F8803035B12C4AAC
S315080036C0D2F8FC3043F08073C2F8FC3038BD4C1E8B
S315080036D0012C0AD9102903D8274BCB40DB0704D481
S315080036E040F2C721214804F0F0FB04F055FC04F031
S315080036F061FC4FF48031214B1E4A1967136F23F47E
S31508003700704343EA04331367FEF722FC0446FFF7C7
S31508003710DDF8C0F10201204604F046FC00F040F84E
S31508003720BDE83840FFF7DCBC4C1E1F2C04D940F21C
S3150800373006310E4804F0C9FB0E4AD2F8903023F041
S31508003740F85343EA0463C2F89030BFE74C1E012CD5
S3150800375004D94FF44371054804F0B7FB054A136FC3
S3150800376023F4806343EA84231367AFE7969300083C
S3150800377000ED00E0008000501001010000900050AC
S3150800378008B50121022000F02FF804F005FC04F02A
S3150800379011FC4FF48032014B1A6708BD00900050A7
S315080037A008B54FF4C070FFF799FBBDE80840044917
S315080037B0884294BF012102214FF42070FFF74ABFC7
S315080037C080F0FA02024A536B0342FCD1704700BFED
S315080037D000400950034A0179D36E23F030030B43A6
S315080037E0D366704700400050F8B50446244BD3F81A
S315080037F08420D006FBD4D3F88430C3F381139C42CB
S315080038003CD0FEF78BFB012C05460BD11D4B98428D
S3150800381004D940F281711C4804F057FB012128465F
S3150800382004F0C2FB04F0E0FB4FF00072174B0746AA
S315080038305A66204604F0E8FB4FF48063104E621E79
S3150800384093403367736E9A0103D4D6F884309B0687
S315080038500AD5384604F0CCFB022C0FD12846BDE821
S31508003860F840002104F0A0BBD6F884309906E9D5C3
S3150800387040F28F71044804F028FBE3E7F8BD00BF67
S3150800388000400050005A6202C593000800600050CC
S3150800389010B50C4608B9FEF741FB074B21461B78C5
S315080038A03BB1064B984204D80120BDE81040FFF70B
S315080038B09BBF0220F9E700BF41160020005A6202AA
S315080038C04FF0004238B5244B244C5A664AF6CD339D
S315080038D0656C014605F00105236428BB0120FFF746
S315080038E071FF6368DB0715D51D4B586008461D4BED
S315080038F0226BD2070CD4984208D1072415B1174B6E
S31508003900194A1A6404F081FB204638BD0130EFE7F6
S315080039109842F2D00024F1E70132236B13F0080332
S3150800392005D08A42F8D1E8E700220E49F5E78A422F
S31508003930E3D020210A4A91620121A2F58052516002
S315080039400649084A886A800603D49342D5D00133CB
S31508003950F8E79342DDE700BF0090005000400950A9
S315080039600060095040420F003254FFFF4FF00042FA
S3150800397038B5164B01465A664AF6CD33144C154AE5
S31508003980656C236443780B205B0043F00103D36323
S31508003990FFF718FF63688A7823F4F87343EA02137B
S315080039A06360CA784B7943EA0223A3600A798B7964
S315080039B043EA022323610878FFF782FFEB0744BF37
S315080039C0054B236404F021FB012038BD009000500C
S315080039D000400950004000503254FFFF0F2870B5D0
S315080039E0044605D940F61C61124804F06EFA0F2405
S315080039F04FF00042104B11495D6E03F580535A662D
S31508003A004AF6CD334E6C80200B64FFF7DBFE0B6A5B
S31508003A1023F00F0323430B62F30744BF084B0B64E1
S31508003A20002DA2BF4FF00042064B5A6604F0EDFA8D
S31508003A3070BD00BFC59300080080005000400950C3
S31508003A403254FFFF00A0005010B504F0E3FA042337
S31508003A5000F5805100F500520B6113610B6113618B
S31508003A600B6113610B611361202341F202010361AB
S31508003A700023C360836041614FF4A021836183659D
S31508003A8041620549C36103628362C3624363036596
S31508003A90D164036310BD00BFFF3F0D0338B5174B54
S31508003AA0044698420D4607D0154B984204D04FF469
S31508003AB0B371144804F009FA25B92046BDE8384020
S31508003AC004F0A8BA012204F580535A6040F6FF7143
S31508003AD0204605F00F0204F099FAA263782104F053
S31508003AE095FA05F001036A0748BF43F00203A26C82
S31508003AF002F003029A42FAD138BD00BF0000015B0A
S31508003B0000000A50F4930008F8B505460C46164618
S31508003B1022B94FF409716B4804F0D7F96A4B9D42F4
S31508003B2002D19CB956240DE0684B9D4247D040F21D
S31508003B302721644804F0C9F944B940F2763161484E
S31508003B4004F0C3F92046FFF7C9F90446AB68D8075D
S31508003B5045D5B44204D240F231215A4804F0B5F9A9
S31508003B60B4FBF6F46F68013CFF2C07F0010704D993
S31508003B7040F23921534804F0A8F924064FB3282106
S31508003B80284604F043FAAB6C99071CD1AB6CDA07EC
S31508003B901BD4AE6C16F0020619D140F246214948EC
S31508003BA004F093F9284604F035FA2B69314623F0D8
S31508003BB07F4323432B61BDE8F840FFF76FBF002C16
S31508003BC0C4D15724BEE70526ECE70926EAE7062608
S31508003BD0E8E72B6923F07F4323432B61F8BD6B6825
S31508003BE0012B04D040F25921364804F06EF9AB6D2A
S31508003BF0DB07AB6848BF760003F0E003402B42D0F2
S31508003C0009D893B1202B1AD040F29B21BDE8F84081
S31508003C102C4804F05AB9602B42D0802BF4D106EB1D
S31508003C204603A34247D801230DE0B6EB141F04D977
S31508003C3040F28121234804F048F9102303E0B6EB4B
S31508003C40D40F1AD8082373436401B4FBF3F4204F46
S31508003C50203CB7EBC40F4FEAC40604D240F2A621B3
S31508003C60184804F032F928463E40012104F0CEF9FE
S31508003C702E63BDE8F84004F0C9B940F28621114820
S31508003C8004F023F9DEE70623B4FBF3F3B34201D3CA
S31508003C900623D8E740F28B210A4804F016F9F7E71D
S31508003CA0B6EB940F01D80423CDE74FF424710548E9
S31508003CB004F00BF9F7E740F29521024804F005F9FC
S31508003CC0B1E700BFF49300080000015B00000A504A
S31508003CD0F8FF7F002DE9F0419846436804460E46F2
S31508003CE017461BB140F6FF7104F090F92046FFF71E
S31508003CF0ABFEF189737B62690B43318A22F44C521D
S31508003D000B4322F00F0213436361A168337E327BB3
S31508003D1021F0804121F0E2011A430A4371690A43FE
S31508003D20A260B2681AB9A26842F00042A260F069BD
S31508003D30002874D0857A027A6D04A16845EA82550E
S31508003D406C4A0A401543828802F4C04215434278F9
S31508003D5045EA8205427B45EAC205827B45EA0215A9
S31508003D60827845EA8225A560D0E90421E5680A43F8
S31508003D70614929400A43817942EA8122C17942EAA6
S31508003D804122E26002785D49012A14D1E26842F0D4
S31508003D900402E2608C4200F09180594A94420CBFBA
S31508003DA001224FF0FF32520102F1A04242F2944141
S31508003DB002F5703214E0032A7AD1E26842F004026E
S31508003DC0E2608C4278D04E4A94420CBF01224FF0F2
S31508003DD0FF3241F29441520102F1A04202F57032DB
S31508003DE002255550427A04F580518A621AB1E26872
S31508003DF042F40062E260C27A5AB1E26842F40042D2
S31508003E00E2603E4A94425BD1027B3E4902F00F02D1
S31508003E104A67626AC17B22F003020A4362623FB1C3
S31508003E2097F8202004F58050002A53D00122026218
S31508003E30B8F1000F27D004F5805113B14FF40043B1
S31508003E408B652E4BB8F822009C4298F821304ED04C
S31508003E502B4A94420DD10122112B34BF0127022788
S31508003E60294DB0F5006FAF5494BF01270227274D9F
S31508003E70AF54A26D034322F4F95222F01E021343F3
S31508003E80A36501238B6505212046FFF707FEB26867
S31508003E901AB120467168FFF737FE20463178FFF7DA
S31508003EA0FDFDA36CDB4313F4405FFAD1BDE8F08156
S31508003EB0023A012A85D96DE700228AE7002272E7CD
S31508003EC00F4A944201BF027B0E4902F00F02C1F865
S31508003ED080209EE7E16997F8222097F8215021F083
S31508003EE009012A430A4342F00102C261A0E70022FF
S31508003EF0B2E700BFE39BBDFFFFF9F0870000015B57
S31508003F0000000A5000900350441600204216002074
S31508003F10134B70B5984205460C4606D0114B98428D
S31508003F2003D07021104803F0D0FF1CB972210E4847
S31508003F3003F0CBFF237B802B03D176210A4803F0BD
S31508003F40C4FF637B032B03D97921074803F0BDFF20
S31508003F50002321462846BDE870401A46FFF7BABE38
S31508003F600000015B00000A50F49300082B4B70B563
S31508003F70984205460C4643D119B98C21284803F0C6
S31508003F80A4FF5620FFF7BCF80C2807D0A0F10903B8
S31508003F90012B03D9A0F11103012B3AD8637B032B1C
S31508003FA003D9AA211E4803F090FF237B802B03D058
S31508003FB0AC211B4803F089FF6369B3F1804F03D036
S31508003FC0AE21174803F081FF238A23F400539BB2DE
S31508003FD0B3F5805F03D0B021114803F076FFA368DC
S31508003FE0013BB3F5165F03D3B2210D4803F06DFF0D
S31508003FF0002321462846BDE870401A46FFF76ABEE8
S315080040008A21074803F061FF1CB98C21044803F094
S315080040105CFF9E21024803F058FFBFE70000015BE2
S31508004020F4930008032838B504460D4605D8094B0D
S3150800403033F81030CB40DB0704D440F22D41064854
S3150800404003F043FF302301225C43044BAA401A5174
S3150800405038BD00BF569400081A93000840D0035094
S31508004060032838B504460D4605D8094B33F81030F1
S31508004070CB40DB0704D440F2FE31064803F025FFA7
S31508004080302301225C43044BAA401A5138BD00BFB5
S31508004090569400081A93000840E0035003282DE9B7
S315080040A0F04104460D461746984605D81D4B33F889
S315080040B01030CB40DB0704D44FF4B0711A4803F034
S315080040C004FF37B129462046B8F1000F20D0FFF784
S315080040D0A9FF0F21072D04EB440688BFA5F10803A5
S315080040E04FEA0616114895BFAB009B0004360C36FE
S315080040F007FA03F29940304403F0ABFF7FB929462B
S315080041002046B8F1000F06D0BDE8F041FFF78ABF98
S31508004110FFF7A6FFDDE7BDE8F041FFF7A1BFBDE861
S31508004120F08100BF569400082694000830C003505A
S31508004130F8B506460F461546002A6AD003F003046A
S31508004140836823F44073836003F04EFFB26882EA03
S31508004150042303F440735340B36003F049FF37B9AF
S31508004160B6F1B64F0DD12E20FEF7B8FE0746B36856
S315080041709A0717D5012C1BD0022C27D064B9264BD9
S3150800418017E0264B9E4201D12F20EDE740F22F1172
S31508004190234803F09AFEB3684FF4B271204803F03F
S315080041A094FE08E0012C13D0022CE7D11D4B00E049
S315080041B01D4B9F42F0D91D4B1B5D6B430AD140F244
S315080041C07511BDE8F840164803F07FBE184BF0E7B6
S315080041D0184BEEE7A3EBC504013C3C44B4FBF3F4EF
S315080041E0013C0CD540F27B110D4803F06EFE4FF4EE
S315080041F0BE710B4803F069FEB368B461F8BDB4F547
S31508004200007FF4D2B3689B07F7D5002C08BF0124BA
S31508004210F3E740F21511D4E780841E0000800650AB
S315080042205E940008002D3101404B4C008D94000827
S31508004230809FD50040548900B0F1B64F38B5044682
S315080042400D4607D0084B984204D040F2951107480E
S3150800425003F03BFE043425B104F5805401232360A2
S3150800426038BD04F50054F9E7008006505E9400084E
S31508004270B0F1B64F38B504460D4607D0124B9842F2
S3150800428004D04FF4D571114803F01FFE0023104ADD
S31508004290236404F50053DA636A7804F108037AB9EB
S315080042A003F5805302221A602046D5E901122B7BBA
S315080042B0FFF73EFF20462978BDE83840FFF7BCBF28
S315080042C003F50053EEE700BF008006505E94000831
S315080042D0FFFF1F00B0F1B64F70B50AD0824B984267
S315080042E01DD0824840F2012103F0EFFD6FF0030074
S315080042F070BD7F4B9968C26B12F4C06F15D09105DB
S315080043000FD5FD225A7009221A700022026493F909
S315080043100110012900D15A7093F90100E8E7754B9D
S31508004320E8E75605EFD5FE22ECE71C78082C00F2E4
S31508004330D680DFE814F009001F004500530070001E
S315080043407E009C00A700CB004C880A88E5060AD5A3
S31508004350120A02F0060242F0F002012119704263C5
S31508004360C1600120C4E702F0FE02A10748BF42F07F
S315080043700102F2E7160608D5802100F50052D1633E
S315080043804FF608721A80022318E05506E9D540242C
S3150800439000F50052D4634A88D40604D502221A705E
S315080043A00B784363DDE796076AD507221A701B79EF
S315080043B001EBC3031B89012BD3D10823C360D0E7C4
S315080043C01506D9D45406CCD5402400F50052D4633A
S315080043D04A88920754D503221A708CE74C880A88B3
S315080043E0E60643BF120A02F0060242F0F00202F0A5
S315080043F0FE02650709D51C7942F0010201EBC401EA
S315080044000989012904BF0821C16004211970012303
S31508004410C3604263A5E71406AED45206A1D540246C
S3150800442000F50052D4634A88560729D507221A7020
S3150800443097E71A795D8801EBC2042689AE420FD840
S3150800444000240132D2B21A715C804C886507C2D446
S31508004450E40702D4012A7FF64EAF08221A7092E7C3
S315080044606268691C5980525D42630622DFE71606B8
S3150800447082D455067FF575AF402400F50052D46303
S315080044800522A9E794067FF56CAF20261A7900F570
S31508004490005401EBC2010A89456AE6635C88A242B8
S315080044A081BF4968661C5E800D5559888A42D4D9F1
S315080044B00424012AC46004D0013A914201D1082299
S315080044C0C2601A78092A3FF420AF4AE7D2057FF579
S315080044D048AF4FF4807100F50052D16313E74FF6E9
S315080044E009321A8011E700BF008006505E94000862
S315080044F06814002074140020B0F1B64F38B504468D
S315080045000D4607D121B940F26A31254803F0DDFC92
S31508004510244B13E0244B98420DD040F269312048D1
S3150800452003F0D3FC25B940F26A311D4803F0CDFCEF
S315080045306FF0030038BD00292AD01C4B2269D0072A
S3150800454044BF2022E2606A88910702D5298900299A
S31508004550EED0520702D52A8A002AE9D04FF4807293
S315080045601A6000229D601A71C023E3606369DB0547
S3150800457014D4202204F50053DA630D4A2046DA6380
S31508004580236C43F4FC632364BDE83840FFF7A2BEFE
S3150800459040F26A31024803F098FCCEE7636AE5E721
S315080045A05E940008681400200080065074140020E9
S315080045B0FFFF1F004FF400120B4B10B5C3F8802005
S315080045C0BFF34F8FBFF36F8F0024FF22074B21469F
S315080045D05C6520209A625C60FEF758FC2146BDE8BF
S315080045E010402120FEF752BC00E100E00000045014
S315080045F0072838B504460D4603DD7721084803F039
S3150800460064FC1F2C03D99121064803F05EFC064A78
S31508004610064B002D08BF13460122A2401A6038BD7A
S3150800462091940008C194000840100450402004509A
S3150800463010B5044618B991211F4803F046FC2378A3
S315080046401B0613F0604F03D092211B4803F03DFC74
S31508004650E3780F2B03D9A321174803F036FC012171
S315080046602020FEF713FC01212120FEF70FFC012272
S31508004670124B5A60227812069A606178A27842EA4A
S3150800468001429A61FF229A6200229A631A644FF0E5
S3150800469000425A654FF0FF324FF4001103F50053FC
S315080046A01A65074AC2F88011E3781B01DBB282F863
S315080046B01533116010BD00BF919400080000045026
S315080046C000E100E02DE9F0410126C3B207280546BE
S315080046D00C46904606FA03F603DDEC21364803F04D
S315080046E0F4FB1CB9ED21344803F0EFFB236823F4EF
S315080046F07C1323F00F031BB1F0212F4803F0E5FBD1
S31508004700A37A1B0413F47C0F04D040F209112A483B
S3150800471003F0DBFBE37A1B0513F07E6F04D040F24F
S315080047200B11254803F0D1FB237B5B0513F0FE5FD5
S3150800473004D040F20D11204803F0C7FB1F4B204F51
S315080047401E65AB00226803F1A04303F588235A606F
S31508004750302202FB0575637B2B66E37AA27A1B057A
S3150800476043EA0243227B43EA4253EB6528F00303FC
S315080047702B6703F040FC7B6D33437B65237A13B1CB
S315080047803B6C33433B64637A13B1BB6B3343BB6304
S315080047902279A37943EA0243084A93616179E37966
S315080047A043EA014307498B61054B56639E64BDE89E
S315080047B0F04103F026BC00BF919400080020045085
S315080047C0000004500010045010B50124C3B2072895
S315080047D004FA03F404DD40F29711074803F075FB69
S315080047E003F009FC054B5A6D22EA04025A659C62DD
S315080047F0BDE8104003F005BC919400080000045081
S3150800480010B50124C3B2072804FA03F404DD40F204
S31508004810B5110A4803F059FB03F0EDFB084BDA6AB9
S31508004820224208D15B6B9C430CBF0124002403F091
S31508004830E8FB204610BD0024F9E700BF9194000864
S315080048400000045070B506460C46154622B940F2DB
S315080048508E210C4803F039FB24B94FF42070FEF77B
S315080048603DFB04466D00013CB4FBF5F4064B2502FE
S3150800487013EA042304D040F2B321024803F025FBCF
S31508004880F56170BD27950008070080FF124B10B52B
S315080048909842044604D040F24241104803F015FB02
S315080048A0012104F58053596040F6AA6341F20502D6
S315080048B0636100230A48A360E365E26004F50052D9
S315080048C02361E361E36490640348A365844204BFFB
S315080048D023656365516010BD00C005502795000823
S315080048E0FFFF010038B5294B044698420D4604D00F
S315080048F040F26931264803F0E8FA2046FFF7C6FF7A
S31508004900012204F580535A602B8AA26843F00103FA
S315080049101343AA7B43EA8223A360A3682A7D43EA5A
S315080049204273A360AB7C5BB1184B9C4202BFEA7C26
S31508004930A3F51033C3F8C821E36D43F08003E3659C
S315080049402B7B2046D5E9011243F48053E360FFF739
S3150800495079FF6B7B0BB1102363616B7D1BB1A36879
S3150800496043F48033A360AB7D1BB1A36843F40043D3
S31508004970A360EB7D2A7E1B07120503F0E04302F4D1
S31508004980E0021343A3652B78636138BD00C0055068
S3150800499027950008034B5A68D20702D5DA69002A18
S315080049A0F9D1704700800A50054B9A689107FCD4E4
S315080049B05A689207F9D4DA69002AF6D1704700BF17
S315080049C000800A5008B5FFF7E5FF0222014B1A617D
S315080049D008BD00BF00800A5008B5FFF7E5FF0122B1
S315080049E0024B03F580514A601A6108BD00800A50DF
S315080049F008B5044B5968012903D1FFF7E3FF024BB9
S31508004A00596008BD00800A5000A00A5010B5064C2F
S31508004A10FFF7CAFF6368012B03D1FFF7E9FFFFF72A
S31508004A20C3FF0378E36010BD00800A50A8B94A683E
S31508004A300B78B2B94A7843EA42038A6812B1127807
S31508004A4043EA82138A7843EA8203CA6812B1127863
S31508004A5043EA4223054A936470477F21044803F0DA
S31508004A6034BA127843EAC203E4E700BF00800A506A
S31508004A705895000810B9044B596470474FF489716A
S31508004A80024803F022BA00BF00900A505895000861
S31508004A9010B9044B596470474FF4A771024803F0E4
S31508004AA014BA00BF00A00A505895000810B9044B64
S31508004AB0196470474FF4C571024803F006BA00BF7F
S31508004AC000A00A505895000808B510B9044B186C90
S31508004AD008BD044840F2C51103F0F7F90020F7E7CE
S31508004AE000800A505895000808B520B949B101292F
S31508004AF00AD0002008BD4FF41D71054803F0E5F9FA
S31508004B00F7E7044BD86CF5E7024B186DF2E700BFE0
S31508004B105895000800800A5018B939B1012908D0FB
S31508004B20704740F21231044803F0CFB9034BDA64F8
S31508004B307047024B1A6570475895000800800A505E
S31508004B4007B5094B18689A889B7900906846ADF8AE
S31508004B5004208DF80630FEF709FF0C20FEF73EFF0D
S31508004B60002003B05DF804FB9795000813B50024F0
S31508004B70064A6846536F43F00103536700948DF85D
S31508004B800440FEF727FE204602B010BD0040005044
S31508004B9030B58BB06C46174D0FCD0FC40FCD0FC473
S31508004BA095E8030084E80300134BD3F84C2112035D
S31508004BB01CD5A3F5FE431C884FF6FF739C4208BF1D
S31508004BC057248DF81940FEF7D1FC204480F30800DD
S31508004BD08DF818000948FDF7D7F96846FEF7B4FBC3
S31508004BE03220FEF731FD00200BB030BDD3F850411E
S31508004BF0E4B2E6E7A09500080080E00FC01753026C
S31508004C0030B5094D87B001AC0FCD0FC42B6801A88C
S31508004C10236024238DF80530FEF7AEFC3220FEF71C
S31508004C200DFD002007B030BDC89500086FF00403DD
S31508004C30502110B50A480B4C13F0800F03F10102FE
S31508004C4007D123444C2A83F800131346F4D10020D5
S31508004C5010BD03F00F03043B034419761346EBE734
S31508004C6000ED00E000E100E010B5044603F0BCF9F1
S31508004C70024B1C6003F0BCF9002010BD8014002014
S31508004C8010B503F0B1F9034B1C6803F0B1F92046DF
S31508004C9010BD00BF801400202DE9F0438DB01C46DE
S31508004CA006AB064689461846174600211822149D63
S31508004CB003F05BFD227903460AB18DF81820FB61E3
S31508004CC063794FF00108C3F10203DBB2CDE9033380
S31508004CD0764B30460293764B4A4601930023294683
S31508004CE00093744B8DF81E8000F004FB06460028DE
S31508004CF040F0AF80A3684146EB63E3693A20EB6472
S31508004D00237E85F8483063696B64237C85F84030D8
S31508004D10636A6B6594F8203085F85030E36AEB6572
S31508004D2094F8283085F858302368AB63FEF7AEF858
S31508004D30434604226169207CFFF7B0F94346022204
S31508004D40E169207EFFF7AAF93E7085F86060414662
S31508004D50A068FEF79BF86379002B32D141463620CE
S31508004D60FEF794F8A368562B02D0B3F5A06F08D1C6
S31508004D70514AD2F8203223F0070343F00303C2F85E
S31508004D80203239462068FFF7F1F81021E2684B4BCC
S31508004D90676903EB4210C0F89414217C253241EA76
S31508004DA00741C0F8AC14217EE06903EB421341EADF
S31508004DB0004159602379032B75D8DFE803F04124B5
S31508004DC04E6E3D4AD2F8283123F0070343F001031B
S31508004DD0C2F82831A368562B02D0B3F5A06F07D1C5
S31508004DE0D2F8203223F0070343F00103C2F8203239
S31508004DF039462068FFF78CF895F8603043F00403CD
S31508004E0085F86030C1E7002795F8603043F0010364
S31508004E1085F8603002220023616A94F82000FFF7C3
S31508004E203DF9616A94F82020E36842EA014241F2BA
S31508004E309C415B0103F1A04303F570335A5097B9BF
S31508004E400422AB6B052103F5805320681A65FEF72B
S31508004E5025FE30460DB0BDE8F08395F8603043F086
S31508004E60020385F8603000230422E16A94F82800DA
S31508004E70FFF714F941F294420221E3685B0103F15A
S31508004E80A04303F57033995094F82820E16A03F596
S31508004E90A55342EA01421A60D2E795F86030012725
S31508004EA043F00303B4E72326D3E700BFD9800008FD
S31508004EB049810008798100080080005000C003502D
S31508004EC010B50020144603F0DEF8022804D018B105
S31508004ED0C321024802F0F9FF204610BDDC95000800
S31508004EE0034B0222186800238068194601F004BDA6
S31508004EF038100020302238B5037A0446534303F1AC
S31508004F00A04303F58023DD6ED0E9032313449D42B5
S31508004F1001D8AA4204D94FF43E71054802F0D5FFDC
S31508004F20D4E9030303449D4218BF284638BD00BF91
S31508004F302A96000830B51446054687B01046FFF78E
S31508004F40D9FF6369024683423CBFD4E903315B1843
S31508004F501B1AABB11249049403910021CDE9013122
S31508004F60012300932846D4E9001302F0ECFF20B190
S31508004F704FF434710B4802F0A8FF002007B030BD8B
S31508004F800122627694F82D20002AF6D084F835306E
S31508004F901321E369204698472046636A9847ECE759
S31508004FA0354F00082A9600082DE9F04788B00446D0
S31508004FB00F461646984603F01EF88146002E00F066
S31508004FC0AD80237E03F0FF02002B00F0E080204630
S31508004FD0FFF790FF63698246984206D1637E23B93C
S31508004FE040F27F316B4802F070FF6569AA459DBFA4
S31508004FF0D4E903329B185D1BAAEB0505B54228BF09
S31508005000354602F0F8FF94F82D308246002B40F022
S3150800501096802A463846616903F0C0FB63692E46C6
S315080050202B4463612CE06069037803F0FD011129C4
S3150800503040F08280216B884205D1A3F111014B42D1
S315080050404B4184F83430013E6369216B01328B424F
S3150800505003F1010308BF236363619542E3D1D4E9F1
S315080050600323216B1344994208BF2263216B8A42AA
S3150800507001D88B4204D84FF46D71464802F025FFDB
S31508005080D4E9032361691344994208BF62616169DF
S315080050908A4201D88B4204D84FF471713D4802F018
S315080050A014FF0023207A6376FDF72CFB20B140F22B
S315080050B01131384802F009FF2046FFF71BFF6369E4
S315080050C083423FD10023E568237694F82D30656145
S315080050D003B125632046636A98472F4B04940393CC
S315080050E00023029323692A460193012300936368E8
S315080050F02168207A02F027FF20B140F22D31254899
S3150800510002F0E3FE207AFDF71DFB20B140F2513193
S31508005110204802F0DAFE504602F073FF4846C8F807
S31508005120006002F06EFFD8F80030002B0CBF1B2081
S31508005130002008B0BDE8F08707F8013B84E72E4653
S3150800514000228AE70123207A23760DF11E01FDF756
S3150800515061FB20B14FF450710E4802F0B6FE9DF87F
S315080051601E30207A002BCDD00DF11F01FDF72AFB4A
S3150800517020B140F24631074802F0A7FE9DF81F10FD
S31508005180207A0029BED12246FFF7D4FEBAE7164692
S31508005190C4E700BF2A960008354F000870B50446D4
S315080051A00568FFF76DFD844202D10020FFF75CFD1C
S315080051B095F93630002B11DB012203F01F015B093C
S315080051C09B0003F160438A4003F56143C3F88021DD
S315080051D0C3F88020BFF34F8FBFF36F8F287AFDF790
S315080051E0D1FA20B14FF4ED71104802F06EFE287A1C
S315080051F0FDF72EFA20B14FF4EF710C4802F065FE68
S31508005200FDF704FA38B10A4B984204D04FF4F1710D
S31508005210064802F05AFE00232846C4E90033C4E9CA
S315080052200433A360AB6ABDE8704018472A960008A5
S31508005230058000F02DE9F84304460D4690F82C80C9
S31508005240DFF8AC908E18AE4228D094F82D3083B192
S3150800525002F0D1FE237E07461BBB226B63699A4286
S3150800526004D040F2F911484602F02FFE384602F003
S31508005270C8FE94F83430002BE5D0B8F1000F06D0FC
S315080052802B780A2B03D10D212046E369984720463F
S31508005290E36915F8011B98470028D4D00020BDE81B
S315080052A0F8832046FFF726FEE1680138884238BFB2
S315080052B02069D4F830C03CBF00F1FF3040180346DF
S315080052C09C450BD013F80129112A01D0132A07D1BE
S315080052D0A2F111035A425A4184F834202063C5E7E3
S315080052E0994282BF236903F1FF335B18E8E700BFE1
S315080052F02A960008F0B50C460646154687B03822A9
S31508005300002120461F4603F030FA95E803000023E3
S315080053102A692376EB6884E80300C4E904232A7D16
S31508005320E36084F82C20AA7D2363012384F83430B3
S3150800533084F835300C9B84F82D2023620D9BE76199
S3150800534063620E9BA3622B7A84F83630204B346056
S315080053507360204BB360204B3361204B7361204B45
S31508005360F360FDF79BF930B11E4B984203D0102429
S31508005370204607B0F0BD002104F10800FDF716F934
S315080053800028F4D10127184B0494CDE902032369B8
S31508005390009701936368E2682168207A02F0D3FDDA
S315080053A004460028E3D195F90830002B0BDB03F0FF
S315080053B01F025B099B0003F16043974003F56143B5
S315080053C0C3F880711F603046FFF74EFCD0E700BF78
S315080053D035520008A94F0008358200083B820008AC
S315080053E09D510008038000F0354F000830B50E4C7B
S315080053F0416123688BB9206083600DE0891A9A6839
S315080054001D4641616AB113465A698A42F6D935B1D1
S31508005410A860521A83605A6130BD0025F4E72060FF
S31508005420F7E798608260F7E78C14002038B500F03B
S3150800543005FA0025084B094C1A682368C31A2AB1CD
S3150800544023B15169994203D3C91A5161206038BD05
S3150800545055615B1A9268F2E78C14002088140020C4
S3150800546038B5134D2B685B6993B1124A022014684C
S315080054701C4402F035FF204600F0E8F900230E49E7
S315080054802A680B70D088800709D501230B7038BDB0
S31508005490022002F025FF022000F026FAEEE79268C5
S315080054A0002AF4D050690344012BEBD9EFE700BF7B
S315080054B08C140020881400204716002070B5164664
S315080054C09DF81420C0E903360271049ABDF8183015
S315080054D00260002204460D468260C380EEB900F0E1
S315080054E0ADF92844A0619DB12E4602F07DFD054622
S315080054F0FFF79CFF31462046FFF778FF104B1B68E5
