S01400004C5048525F536F6674776172652E73333700
S3150800000000100020A5180008ED780008ED78000813
S31508000010ED780008ED780008ED780008ED7800081E
S31508000020ED780008ED780008ED780008ED7800080E
S31508000030ED780008ED780008ED780008ED780008FE
S31508000040ED780008ED780008ED780008ED780008EE
S31508000050ED780008ED780008ED780008ED780008DE
S31508000060ED780008ED780008ED780008C916000854
S31508000070F5770008ED780008ED780008ED780008B7
S31508000080ED780008ED780008ED780008ED780008AE
S31508000090ED780008B9220008ED780008ED78000828
S315080000A0ED780008ED780008ED780008ED7800088E
S315080000B0ED780008ED780008ED780008ED7800087E
S315080000C0ED780008ED780008ED780008ED7800086E
S315080000D0ED780008ED780008ED780008ED7800085E
S315080000E0ED780008ED780008ED780008ED7800084E
S315080000F0ED780008ED780008ED780008ED7800083E
S31508000100ED780008ED780008ED780008ED7800082D
S31508000110ED780008ED780008ED780008ED7800081D
S31508000120ED780008ED780008ED780008ED7800080D
S31508000130ED780008ED780008ED780008ED780008FD
S31508000140ED780008ED780008ED7800083D7D000898
S31508000150ED780008ED780008ED780008ED780008DD
S31508000160ED780008ED780008ED780008ED780008CD
S31508000170013800D0FCE7704738B500F087FF012248
S315080001800023254C11460420237000F057FF20B1A8
S3150800019040F25511214807F0BDFB0122204D0221EE
S315080001A02B78104663F07F03637000F047FF20B199
S315080001B040F25B11194807F0ADFB00F067FF01211B
S315080001C002220420217000F039FF20B140F26111AB
S315080001D0124807F09FFB288807EE900AF8EE677A20
S315080001E017EE900A05F048FA07A3D3E9002306F0AC
S315080001F0D7FF07A3D3E9002305F0DEF805F094FA44
S31508000200084B186038BD00BF9A9999999999A93FE2
S315080002109A99999999B95040D71500200E890008DE
S31508000220C7150020201200202DE9F04FC76997B0A6
S315080002308346209E08910C92129355EC104B8DED37
S31508000240000B7FB9102006F049FA0246CBF81C00CD
S3150800025020B9A74BEF21A74806F058FFC0E9017758
S315080002600760C760DBF81C30196859B15A68012362
S31508000270584693404A608B6006F01EFBDBF81C303C
S3150800028000221A602B1EB7BF23F000430023012269
S315080002900193A8BF3360019F974BB8BF3260BB4339
S315080002A019D142F20F73129A1360C7F3130323434B
S315080002B000F0DB85219B53B9904B21E0904B0393CB
S315080002C00833219A1360039817B0BDE8F08F8B4B5B
S315080002D003930333F5E79DED007B0022002351ECE1
S315080002E0170B8DED0A7B07F0C3F9804650B1012341
S315080002F0129A1360219B13B1824B219A1360824B89
S315080003000393E0E7C7F30A5614AA15A958469DEDC4
S315080003100A0B06F059FD0290002E76D00B9BA6F22A
S31508000320FF36CDF84C80C3F3130343F07F53DDE962
S315080003300A0143F4401319460022744B05F03CF8B1
S3150800034065A3D3E9002306F02BFF65A3D3E90023B1
S3150800035005F034F804460D46304605F07BF962A3ED
S31508000360D3E9002306F01CFF02460B462046294621
S3150800037005F024F804460D4607F0C2F900220746A0
S3150800038000232046294607F07DF940B1384605F096
S3150800039061F922462B4607F06BF900B9013F162F83
S315080003A052D85B4B03EBC703DDE90A01D3E9002307
S315080003B007F068F9002849D0013F00231193149BE0
S315080003C09B1B5A1E4CBFC3F101030023079245BF6E
S315080003D00693002306930793002F39DB079B109794
S315080003E03B44079300230993089B092B66D8052BE2
S315080003F0C5BF043B002401240893089B023B032B3A
S3150800040067D8DFE803F02D3A3859DDE914631E444E
S3150800041006F23243202BC9BFC3F14003C3F12003C0
S315080004209F4006F21243D8BF04FA03F006F1FF36DE
S31508000430C4BF24FA03F347EA030005F0FBF80122D8
S31508000440A1F1F873139276E70123B7E71190B6E79F
S31508000450069BDB1B06937B42099300231093C3E795
S3150800046000230D930C9B002B56DC012399461A4654
S3150800047004930C920CE00123F3E700230D930C9BE5
S31508000480FB1803F1010904934B46012BB8BF01235E
S31508000490DBF81C000021042202F114059D423FD915
S315080004A04160584606F0C8F9039000283BD1194B1D
S315080004B0024640F2AF11CEE60123DFE7012400230E
S315080004C00D9408934FF0FF330022994604931223A4
S315080004D0CFE701230D93F5E761436F63A787D23F03
S315080004E0B3C8608B288AC63FFB799F501344D33F15
S315080004F0A6900008BD9000080000F07FA2900008B2
S315080005009990000876900008759000080000F83F5A
S31508000510B8910008169100080C9B99460493B7E712
S3150800052001315200B8E7DBF81C30B9F10E0F039A17
S315080005301A606FD8002C6DD0002F36DD07F00F0239
S31508000540A04BF8054FEA271403EBC20393ED007B93
S315080005508DED0E7B17D59C4B04F00F044FF0030866
S31508000560D3E90823DDE90A0106F044FFCDE90001D5
S31508000570954D5CB9DDE90E23DDE9000106F03AFF89
S31508000580CDE900012BE04FF00208F1E7E10709D5B4
S3150800059008F10108DDE90E01D5E9002306F000FEA1
S315080005A0CDE90E0164100835E3E700F007817C42C7
S315080005B0844B854D4FF0020804F00F02241103EB1B
S315080005C0C203DDE90A01D3E9002306F0E9FD0023A9
S315080005D0CDE90001002C40F0E580002BD0D1119B1D
S315080005E0DDE90045002B00F04C810022774B2046C0
S315080005F0294607F047F8002800F04381B9F1000FB3
S3150800060000F03F81049B002B00F3E480DDE90A3407
S31508000610CDE90034159B002B02DB0E2F40F34282F6
S315080006200D9A002A40F06782099C0025DDF818809B
S31508000630B8F1000F0DD0079B002B0ADD4345069A3B
S31508000640A8BF4346D21AA8EB03080692079AD31AFC
S315080006500793099B0BB30D9B002B00F0A682002C79
S3150800066000F0A18229462246584606F04FFA029A19
S3150800067001460546584606F09FF902990646584629
S3150800068006F01AF9099B1B1B099300F09182099A37
S315080006903146584606F03AFA02900121584606F0C5
S315080006A075F9109B0446002B00F084821A46014611
S315080006B0584606F02BFA089B0446012B03DC009BE0
S315080006C0002B00F07C820026236904EB830318695B
S315080006D007F02BFEC0F120001096079B184410F077
S315080006E01F0000F09182C0F12003042B40F38182A1
S315080006F0C0F11C00069B034480440693079B0344F1
S315080007000793069B002B05DD1A460299584606F004
S3150800071057FA0290079B002B05DD21461A465846D4
S3150800072006F04EFA0446119B002B00F0768221460D
S31508000730029807F049FE002880F26F8200230A22F9
S315080007400299584606F0DAF80D9B7E1E0290002B99
S3150800075000F05C82002329460A22584606F0CEF8A5
S31508000760049B0546002B03DC089B022B00F35E82E4
S31508000770B8F1000F05DD29464246584606F020FA2C
S315080007800546109B002B00F0D0826968584606F093
S3150800079053F80746002840F07F820D4B024640F288
S315080007A0EF2158E5E20706D508F10108D5E9002347
S315080007B006F0F6FC0123641008350BE74FF0020833
S315080007C00DE700BFB8910008909100080000F03FBF
S315080007D01691000820460022AC4B294606F0E0FC9C
S315080007E07E1E08F10108049CCDE90001404604F08C
S315080007F031FFDDE9002306F0D3FCA54B002204F007
S31508000800DDFDA1F15073CDE90E010F93002C3BD10C
S315080008100022A04BDDE9000104F0CEFD02460B469E
S31508000820CDE90023DDE90E2306F04AFF002840F053
S315080008305781DDE90E2101F10043DDE9000106F0EB
S3150800084021FF00283FF4E2AE002425460C9BDDF884
S315080008500CA0DE434FF000082146584606F02CF857
S31508000860002D00F0A980B8F1000F05D0A84503D0E7
S315080008704146584606F020F82946584606F01CF820
S315080008809AE03E464C46B1E7834B03EBC40353E973
S315080008900201039B1C440D9B002B4AD002460B46C3
S315080008A000207E4906F0A6FDDDE90E2304F084FD4E
S315080008B0DDF80CA0CDE90E01DDE9000106F020FF08
S315080008C0054604F0C7FE024630350B46DDE9000151
S315080008D004F072FD0AF8015B02460B46CDE90001F9
S315080008E0DDE90E0106F0ECFE002865D100206C4912
S315080008F0DDE9002304F060FD02460B46DDE90E0142
S3150800090006F0DEFE002840F00D81A24500F0EA80E0
S3150800091000225E4BDDE90E0106F042FC00225B4B2D
S31508000920CDE90E01DDE9000106F03AFCCDE900014A
S31508000930C2E7DDE90E2306F033FCA046DDF80CA07D
S31508000940CDE90E01DDE9000106F0DAFE054604F000
S3150800095081FE024630350B46DDE9000104F02CFD28
S315080009600AF8015B02460B46A245CDE900234FF083
S31508000970000223D1494BDDE90E0104F01FFD0246B2
S315080009800B46DDE9000106F09BFE002840F0CA8010
S3150800099000204249DDE90E2304F00EFD02460B460F
S315080009A0DDE9000106F06EFE70B1C24608F1FF38B7
S315080009B01AF8013C302BF8D0374655E0334B06F091
S315080009C0EFFBCDE90001BDE7DDE90A34CDE90034E6
S315080009D0159B002BFFF628AE0E2F3FF725AE2E4BA4
S315080009E003EBC70393ED007B0C9B002B8DED047B7B
S315080009F002DAB9F1000F64D0DDF80CA0DDE9004594
S31508000A00DDE904232046294606F0F4FC06F078FEC4
S31508000A10064604F01FFEDDE9042306F0C1FB024684
S31508000A20204606F130040B46294604F0C5FC0AF8B0
S31508000A30014B039C02460B46AAEB0404A14540F071
S31508000A40828004F0BBFC04460D46DDE9042306F06B
S31508000A5037FE002865D120462946DDE9042306F03D
S31508000A6007FE08B1F3075CD40299584605F024FF3F
S31508000A70002301378AF80030129B1F60219B002B48
S31508000A803FF421ACC3F800A01DE400BF00002440D9
S31508000A9000001C4000001440B89100080000E03F28
S31508000AA00000F03FA24B03EBC70393ED007B0C9BC2
S31508000AB0002B8DED047B9FDAB9F1000F9CDC7FF4E7
S31508000AC0C3AE00229B4BDDE9040106F069FBDDE9B4
S31508000AD0002306F0EBFD044600287FF4B5AE3E463B
S31508000AE02546B4E0DDE90A34CDE90034159B002B30
S31508000AF001DB0E2FD6DD089A012A36DC139A82B35B
S31508000B0003F23343099CDDF81880069A01215846FA
S31508000B101A440692079A1A44079205F037FF0546C3
S31508000B2086E53E4653469A4613F8012D392A06D1DC
S31508000B30039A9A42F7D13022039901360A701A7835
S31508000B4001321A7038E700227B4B06F029FB002297
S31508000B50002304460D4606F08BFD00283FF450AFEF
S31508000B6082E7149BC3F13603CCE709F1FF34099BEE
S31508000B70A34208DBB9F1000FA3EB04040EDBDDF892
S31508000B8018804B46C1E7099B109AE31A0994DDF8C9
S31508000B90188000241A444B461092B6E7069BA3EB2E
S31508000BA009080023B1E7029E71E5099A029970E5E2
S31508000BB0029672E5089B012B17DC009BABB9019BDB
S31508000BC0C3F313039BB9019B23F00046360D360584
S31508000BD036B1069B012601330693079B013307931B
S31508000BE0109B002B7FF470AD1096012075E500264A
S31508000BF0F6E73FF486AD1C33069A1A4498440692E3
S31508000C00079A1A4407927CE50346F4E7049B002BEF
S31508000C102BDC089B022B09DC27E0B9F1000F1DDC51
S31508000C20089B022B1ADD3E46CDF81090049B002B3C
S31508000C307FF40CAE21460522584605F05FFE0146B4
S31508000C400446029807F0C0FB00287FF7FFADDDF8E1
S31508000C500CA0312301360AF8013BFBE50D9B3E4605
S31508000C60CDF81090002B7FF483AD039F21460298A0
S31508000C7007F0CEFA039B00F13009049A07F8019BA6
S31508000C80FB1A9A4240F3CB8000230A22029958465F
S31508000C9005F034FE0290E9E72A6905F10C010C30EB
S31508000CA00232920007F09FFA01223946584605F0AB
S31508000CB087FF039BA846054603F1010ADDE90323DE
S31508000CC013440793009B03F0010309930AF1FF33CA
S31508000CD021460298049307F09BFA4146069000F1D4
S31508000CE03009029807F070FB2A46214607465846FF
S31508000CF005F0D2FFC268014602B3584605F0DCFD8E
S31508000D00002F3ADA01220299584605F059FF214682
S31508000D10029007F059FB002803DC29D119F0010FCE
S31508000D2026D0B9F1390F1DD132E02846C1E700BFF8
S31508000D30B891000800001440000024400A90029868
S31508000D4007F042FB0A990C90584605F0B5FD0C9A37
S31508000D505ABB089B53B9099B43B9B9F1390F17D048
S31508000D60002F05DD069B03F1310901E0002F2ADA81
S31508000D70DDF810A00AF8019B6EE5089B3B4304D1F9
S31508000D80009B03F00103002BBCD0B9F1390F36D113
S31508000D90049F392307F8013BBA46013F1AF8013C7C
S31508000DA0392B5AD001333B7056E5002F06DB089BDA
S31508000DB03B4306D1009B03F0010313B9002AA1DCCB
S31508000DC0D6E7002AE1DC079B57460AF8019C5345FB
S31508000DD02ED000230A220299584605F08FFDA84511
S31508000DE002904FF000034FF00A02414658460BD1D5
S31508000DF005F084FD804605460AF1010A66E7DDF836
S31508000E0010A009F10109B5E705F078FD29468046E5
S31508000E1000230A22584605F071FD0546ECE7049BB7
S31508000E204FF00008002BCCBF1F460127039B1F4429
S31508000E3001220299584605F0C3FE2146029007F0A2
S31508000E40C3FA0028A8DC02D119F0010FA4D1BA46CA
S31508000E5017F8013D302BFAD0FEE4039BBB429BD129
S31508000E603123039A01361370F6E4219B002B7FF495
S31508000E7025AA014BFFF744BA999000080348044B8A
S31508000E80834202D0034B03B118477047081200206B
S31508000E900812002000000000064B0749C91A8910ED
S31508000EA048BF0131491003D0044B0BB1014818471C
S31508000EB0704700BF0812002008120020000000003A
S31508000EC010B5064C237843B9FFF7D8FF044B13B186
S31508000ED00448AFF300800123237010BDC615002017
S31508000EE000000000D892000808B5054B1BB105495B
S31508000EF00548AFF30080BDE80840FFF7CDBF00BF47
S31508000F000000000008120020D8920008A3F5803AD5
S31508000F10704700BF174B002B08BF134B9D46FFF7C2
S31508000F20F5FF00218B460F461348144A121A07F09C
S31508000F3041F90E4B002B00D098470D4B002B00D0E3
S31508000F4098470020002104000D000D48002802D013
S31508000F500C48AFF3008005F053FB2000290006F08B
S31508000F6000FC04F0C1FD00BF0000080000000000FE
S31508000F7000000000001000200812002014160020AF
S31508000F80000000000000000010B5224805F0C2F974
S31508000F904FF4FA7004F08CF81F4805F0D5F91F488D
S31508000FA005F0B8F90A242E2005F0C6F9FA2004F04F
S31508000FB07FF8013CF7D11A4805F0C6F9194805F03B
S31508000FC0C3F9194805F0C0F9184805F0BDF91248E3
S31508000FD005F0BAF9164805F0B7F900F05FFA00F01F
S31508000FE0B7F800F079F90C4805F0AEF9114805F0A4
S31508000FF0ABF900F08FFA00F0DFF806F0BCFB064804
S3150800100005F0A2F90C4805F09FF9BDE81040024822
S3150800101005F09AB9E0870008E587000824880008E3
S315080010200C8900083D880008658800088D88000836
S31508001030A6880008CC880008F48800087FB5E8234D
S315080010400428ADF80430ADF806000DD0012814D1F7
S315080010500B4BADF80C1002930A4B01A9186800F067
S3150800106087FE07B05DF804FB054BADF80C1002933C
S31508001070054BADF814200493EEE76FF00300F0E794
S31508001080D715002014100020C715002010B510240D
S3150800109000212246044807F08DF82246BDE8104094
S315080010A00021024807F086B8D7150020C71500208A
S315080010B0F8B504460027234EFFF7E8FF0222012170
S315080010C004203770FFF7BAFFFCB91F4B1D7805F0EF
S315080010D00703022B32D0FFF7D9FF012225F00705B7
S315080010E045F002050221104634707570FFF7A6FF19
S315080010F030B340F23511154806F00CFCBDE8F8404F
S3150800110040F24B11114806F005BC012C16D10E4BC6
S315080011101D7805F00703032B10D025F00705FFF708
S31508001120B5FF45F003052246022120463770757043
S31508001130FFF784FF20B140F24511DCE70028DDD136
S31508001140F8BD00BFD7150020C71500200E89000876
S3150800115038B50020FFF7ACFFFFF798FF0222114BC6
S3150800116050201A7003F0A4FF012204201146FFF74D
S3150800117065FF04460C4D0D492A780D4805F0CAF856
S3150800118024B140F27F110B4806F0C4FB2B78212BC3
S3150800119006D0BDE838404FF4C171064806F0BABB20
S315080011A038BD00BFD7150020C715002016890008CE
S315080011B01D8900080E89000870B53349334805F0C3
S315080011C0A9F80020FFF774FFFFF760FF012200234C
S315080011D042262F4C0221104623706670FFF72EFF19
S315080011E00546324628492B4805F094F825B14FF4B0
S315080011F0CE71294806F08EFB01220623A626022177
S31508001200104623706670FFF719FF054632461E49D9
S31508001210224805F07FF825B140F2A9111E4806F0CC
S3150800122079FB0122072340260221104623706670A7
S31508001230FFF704FF054632461349194805F06AF8D0
S3150800124025B14FF4DB71144806F064FB012208232C
S3150800125040250221104623706570FFF7EFFE04460D
S315080012602A4609490F4805F055F824B140F2C51138
S31508001270094806F04FFB04490B4805F04BF8BDE852
S3150800128070400120FFF714BF168900083789000847
S31508001290D71500206E8900080E8900089389000872
S315080012A0BA890008E1890008088A000810B5FEF71F
S315080012B063FF064B186804F0DFF9BDE810400246E4
S315080012C00B460348034905F025B800BF2012002045
S315080012D03D8A0008168900080C2310B5502088B0EE
S315080012E08DF8003003F0E4FE134B03A903930123A2
S315080012F0ADF8143001AB06930823ADF81C300F4B3C
S31508001300CDF810D0186800F033FD04469DF8042087
S315080013100B490C4804F0FEFF1CB17B210A4806F075
S31508001320F9FA9DF80430C42B03D07E21064806F04E
S31508001330F1FA08B010BD00BFC00004001410002068
S31508001340588A00081D890008628A00080122014B94
S315080013501A707047E71500204378027803F0FC03FB
S3150800136003EB022307EE103ADFED0D7AB8EEC77AE3
S31508001370DFED0C6A27EE277ADFED0B7A57EE267A31
S31508001380F5EEC07AB6EE007AF1EE10FA4CBF77EEBB
S31508001390C77A77EE877AFCEEE77A17EE900A7047F7
S315080013A052B82F430000803766663B42F5232DE985
S315080013B0F04389B08DF80730284B294E0393022352
S315080013C005460DF10707306803A90497ADF81430F0
S315080013D000F0CEFC18B1B621224806F09BFA4FF46D
S315080013E0FA744FF00209DFF88880013C22D202A87D
S315080013F006F0C2F91C4B03A91860E0238DF80730E4
S315080014001A4B3068CDE903370123ADF8143002AB27
S3150800141006930223ADF81C3000F0AAFC18B1CC21C3
S31508001420104806F077FA02A8FFF796FF286009B079
S31508001430BDE8F08302AB306803A9CDF80C800493AD
S31508001440ADF8149000F094FC0028CED1002CCED133
S31508001450C421044806F05EFAC9E700BF800001000F
S31508001460141000206B8A0008501200208000040027
S315080014708000020010B5064C2046FFF797FF236848
S31508001480044A991E1160044A0233136010BD00BF56
S315080014904C12002044120020481200204CF6FC137F
S315080014A010B5502088B0ADF8003003F001FE144B9B
S315080014B003A903930223ADF8143001AB069308235E
S315080014C0ADF81C300F4BCDF810D0186800F050FC62
S315080014D004469DF804200C490C4804F01BFF24B16F
S315080014E040F227110A4806F015FA9DF80430152B24
S315080014F004D04FF49571064806F00CFA08B010BDF2
S315080015008000040014100020738A00081D89000852
S315080015106B8A000807B5FFF7ADFF4FF47A7003F042
S31508001520B5FD00230146CDE90033034A034806F01A
S31508001530D3FB03B05DF804FB4D130008241200200A
S3150800154010B5274C01F022FC01F04AFE236F23F068
S31508001550070343F00303236706F056FA214B0020DE
S315080015609B6ADB015EBF4FF480321F4B9A62D4F848
S31508001570203123F0070343F00203C4F82031D4F8DE
S31508001580283123F0070343F00203C4F82831D4F8BE
S31508001590403123F0030343F00203C4F84031D4F882
S315080015A0603123F0030343F00203C4F86031D4F832
S315080015B0403223F0030343F00203C4F84032D4F860
S315080015C0003223F0070343F00203C4F80032D4F8CC
S315080015D0083223F0070343F00203C4F8083210BDAB
S315080015E0008000500040005A0060005A08B53A20B2
S315080015F0012101F07BF9BDE80840014800F00CBB69
S315080016000010002030B5294D9DB008AC0FCD0FC491
S3150800161095E80F0084E80F002A2200210DF1460004
S3150800162006F0C8FD224B0124109356231293082373
S315080016301593092317930523199303230E220021D3
S315080016400DF112008DF845408DF860408DF8443054
S3150800165006F0B0FD4FF47020164B08AACDE9020338
S315080016600B238DF810300C238DF81130124B1348CC
S31508001670059320230693124B02A9009310AB8DF80D
S315080016801D4003F039F8044618B17C210D4806F0D0
S3150800169041F99DF81E304FF4E130002B0CBF0321B1
S315080016A0002106F014F920461DB030BDAC8A0008AA
S315080016B00000015B3C00015BE8150020B812002021
S315080016C0541200207A8A0008014806F080BA00BF42
S315080016D0B812002008B5044806F034F9BDE80840F9
S315080016E0024806F02FB900BFE48A0008CC8A000831
S315080016F0082808B50ADC00280EDD013807280BD8AB
S31508001700DFE800F00C140A1A0A0A0A1C202819D065
S31508001710402819D0102813D0D82108E00321012326
S315080017200846042202F0EAF9002008BD922107487B
S3150800173006F0F0F80E20F8E79F21F8E7AC21F6E767
S31508001740B921F4E7C621F2E7D321F0E7FC8A0008BD
S315080017501022024BC3F8A020704700BF00D00350E8
S315080017601022024BC3F8A020704700BF00E00350C8
S3150800177070B5404D88B001AC0FCD0FC495E8070091
S3150800178084E80700012401213A2001F0AFF83A4E17
S315080017900121292001F0AAF8384B304601A9039304
S315080017A08DF8124002F0CEFD23462146042202207F
S315080017B002F0A4F9022122460846002302F09EF907
S315080017C0234604220321022002F098F90422234624
S315080017D01146022002F092F9294D2A4B4FF448701F
S315080017E0C5F834374FF00213C5F83037A3F5803300
S315080017F0C5F838371C23C5F8203703F0ADFD14208B
S31508001800FFF7AEFF03F0A8FD2320FFF7A1FF03F0C3
S31508001810A3FDB9213046FFF7A3FF06F04FF9FFF7FE
S3150800182097FF002321461A46022002F067F9002393
S3150800183002211A46084602F061F9234600220321CE
S31508001840022002F05BF9234600220421022002F05E
S3150800185055F9304602F04AFD00212920C5F834170B
S31508001860C5F83017C5F83817C5F8201701F03EF83F
S3150800187008B070BD3C8B000800C0055000127A0005
S3150800188000C00350020003000348044A0449121A20
S31508001890921006F02CB800BFF4940008F4940008DF
S315080018A01416002008B500F02FF8FFF7EDFF124BCD
S315080018B012498B4212D30020114B12498B4218D37E
S315080018C0FFF728FB186850F82240586840F822406D
S315080018D0013298688242F5D30C33EAE70022F8E72A
S315080018E01C6844F8220001325C68A242F8D3083327
S315080018F0E4E70022F8E700BFE0920008EC9200084F
S31508001900EC920008EC9200084FF480414FF0FF304B
S31508001910114B124A10B59A60D3F8882042F4700227
S31508001920C3F888200E4A91660E4901F500521066E2
S315080019300D4850660220C3F8D000BFF34F8FBFF39F
S315080019406F8F01244FF440330848C0F88041D360B4
S3150800195004600B6110BD00BF00ED00E00000000848
S315080019600090005000800044F7FF370000E100E0D7
S31508001970014B1868704700BF1C100020084B1B6FEE
S3150800198003F00703022B04D0032B05D0012B05D047
S31508001990FEE7044B18687047034BFBE7034870479C
S315080019A0008000501C10002024100020002D31015A
S315080019B008B5FFF7E3FF054B1B6FC3F3033301338A
S315080019C0B0FBF3F0024B186008BD00BF0080005062
S315080019D0181000200048704700B4C404014B18686A
S315080019E0704700BF24100020054B1860054B1B6F7D
S315080019F003F00703032B01D1FFF7DABF704700BFD7
S31508001A00241000200080005000487047002D310146
S31508001A104FF0B4439868C0F304400C280AD8DFE8AE
S31508001A2000F00B0909090909072119091B1D1F00DF
S31508001A300F487047002070479B6803F04073B3F166
S31508001A40807F11D0B3F1007F10D00A4A002B08BF5F
S31508001A501046704708487047084870470848704756
S31508001A60084870470848704708487047084870474C
S31508001A70405DC60000093D00C0EA210180BA8C011C
S31508001A800048E801005A62020024F40080841E001F
S31508001A9040420F00014B1868704700BF2010002015
S31508001AA00346054A0549106803448B428CBF4FF02C
S31508001AB0FF301360704700BF281000200000042084
S31508001AC008B501213A2000F011FF01230422032161
S31508001AD0002002F013F8002005F0EFFF0122354B35
S31508001AE03549C3F844244FF40022A3F550335A6607
S31508001AF0324BD3F8FC20D20146D4D1F8803023F0FB
S31508001B00030343F00203C1F880304FF4607000F01D
S31508001B1015FF2A4B00F5D520D3F8F02000F2FC403B
S31508001B2042F00102C3F8F020D3F8FC2042F080729C
S31508001B30C3F8FC20224AA3F55D431A60214B022212
S31508001B40B0FBF3F0204B01381861C3F8F0204FF4CE
S31508001B508072C3F804234FF060431C4A0020C3F880
S31508001B60B02F1B4AC3F8802ED3F8002E42F4807299
S31508001B70C3F8002EFF2283F82020D3F8002E22F483
S31508001B808072C3F8002E08BDD3F8FC2022F08072BC
S31508001B90C3F8FC20D1F8802022F0030242F00202AA
S31508001BA0C1F88020D3F8FC2042F08072C3F8FC20EC
S31508001BB0ABE700BF00D003500080005000ED00E006
S31508001BC0FF030040F8590D00000004E055CEACC5EF
S31508001BD0090001004FF06043D3F8802E30B5D207D4
S31508001BE015D501240B4D8440D5F8FC2042F08072AF
S31508001BF0C5F8FC20D3F8002E2243C3F8002E53F86C
S31508001C002020002AF0D003F82010002030BD112033
S31508001C10FCE700BF00ED00E02DE9FF47044618B9D0
S31508001C2039214D4805F076FE2368B3F1B64F09D041
S31508001C304A4A93427BD04F21474804B0BDE8F04753
S31508001C4005F068BE2E20012100F050FE01230A226D
S31508001C506179207901F052FF01230A22E179A079FE
S31508001C6001F04CFF0A27DFF80081DFF800913C4DB0
S31508001C70267994F805A0032E05D839F8163023FAE4
S31508001C800AF3DA0704D440F2FE31404605F042FE74
S31508001C903022012302FB065603FA0AF306F501561B
S31508001CA03360642003F058FB267994F805A0032EC8
S31508001CB006D82C4B33F8163023FA0AF3DB0704D47C
S31508001CC040F22D41404605F025FE3022012302FB55
S31508001CD0065603FA0AF306F582566420336003F0C3
S31508001CE03BFB013FC4D12068B0F1B64F21D1032395
S31508001CF0C5F8E8346279237943EA0243C5F8EC3437
S31508001D00E279A37943EA0243C5F8F03440F20113B5
S31508001D10ADF80030E36869460293A3680193237C13
S31508001D208DF80C3001F0D4FF04B0BDE8F0872F2001
S31508001D3089E70A4B9842E9D10323C5F8F834627952
S31508001D40237943EA0243C5F8FC34E279A37943EAE6
S31508001D500243C5F80035D9E7588B000800800650BD
S31508001D6000C00350FA8B0008928B0008FA8B000813
S31508001D7038B5054602F0F0F8044C012801D1013CBB
S31508001D8000D138BD284601F0D5FFF6E7E1930400F7
S31508001D90032838B504460D4605D8094B33F81030E4
S31508001DA0CB40DB0704D440F2FE31064805F0B2FD0D
S31508001DB0302301225C43044BAA401A5138BD00BFA8
S31508001DC0028C0008928B000840E00350032838B5BF
S31508001DD004460D4605D8094B33F81030CB40DB07CF
S31508001DE004D440F22D41064805F094FD3023012223
S31508001DF05C43044BAA401A5138BD00BF028C000848
S31508001E00928B000840D0035038B504784578032CE7
S31508001E1005D8094B33F81430EB40DB0704D44FF4EC
S31508001E208961064805F076FD302301225C43044BA0
S31508001E30AA401A5138BD00BF028C0008928B0008D0
S31508001E4040F0035070B505780446032D467805D84A
S31508001E500C4B33F81530F340DB0704D44FF4836199
S31508001E60094805F057FD1022302313FB0523074ABE
S31508001E709B58F34003F00100A3780BB980F00100EA
S31508001E8070BD00BF028C0008928B000830C003505A
S31508001E902DE9F04F9A46564B85B01B7806460F46F5
S31508001EA01546DDF83C909DF844B0DDF85080002BCF
S31508001EB000F09780072A00F296800E9B002B00F010
S31508001EC09280B9F1000F00F08E80129BB3F5006F77
S31508001ED000F38980012803D1109B002B00F0838032
S31508001EE0444B03EB05131B7B002B7ED0424C102280
S31508001EF00021684606F05EF904EB45141022A7BBDC
S31508001F003946204606F056F943F210036380BBF1C2
S31508001F10000F03D1E37843F00303E370364A0E9BC0
S31508001F2002EB451CCCE90193129B6901581E9DF8EA
S31508001F304C30C0F30A0003F003039B0643EA001E75
S31508001F4053582E48012E00EA03004EEA0003CDF846
S31508001F5000A0535017D0B8F1000F2ED19CF80230CC
S31508001F6068F304138CF8023027E00021204606F0B7
S31508001F7021F94FF444736380BBF1000FCED1E378A7
S31508001F8043F03003C9E713230CF1100ECCF80C30DC
S31508001F909CE80F008EE80F006FF00301DCF81C20A8
S31508001FA0109B61F39F02012FCCF81C20CCF814304B
S31508001FB003D1CCF81890CCF8043000270D4A290133
S31508001FC002EB051342F80180159A28465A606946BD
S31508001FD022469F605E7302F0A5F8384605B0BDE854
S31508001FE0F08F0748FAE70748F8E70748F6E700BF1B
S31508001FF008160020D0130020D01200200F80FFF30F
S31508002000028000F0018000F0078000F038B5124B1E
S3150800201005461B78DBB1E0B105F012FD0F4A002337
S315080020201146147B54B92B6001251A0101EB0313E1
S315080020301D738C5005F00AFD204638BD0133082B68
S3150800204002F11002EDD105F001FD0548F5E7054856
S31508002050F3E70548F1E700BF08160020D013002073
S31508002060048000F0028000F0018000F038B505F029
S31508002070E7FC002305460B4A147B6CB90133082B91
S3150800208002F11002F8D101F0C5FF074B28461C7073
S3150800209005F0DCFC204603E0284605F0D7FC03489B
S315080020A038BD00BFD013002008160020058000F0B8
S315080020B00D4B10B51B78044693B1072812D805F0C6
S315080020C0BFFC0A4B03EB04131A7B2AB100241C73CA
S315080020D005F0BCFC204610BD05F0B8FC0448FAE73C
S315080020E00448F8E70448F6E708160020D01300204D
S315080020F0068000F0028000F0018000F0154B13B551
S315080021001868002301908DF8043005F099FC124BED
S315080021101C7824B105F09AFC104802B010BD0122C3
S315080021201A7005F093FC0E4B01A81C731C7783F8F4
S315080021302C4083F83C4083F84C4083F85C4083F895
S315080021406C4083F87C4008238DF8073001F0A0FF27
S315080021502046E2E70A8C000808160020038000F0F3
S31508002160D01300200A4A08B512785AB107280BD8A6
S31508002170084A02EB00131B7B43B1002101F068FFFC
S31508002180002008BD0448FCE70448FAE70448F8E7D5
S3150800219008160020D0130020028000F0018000F00D
S315080021A0078000F00A4A08B512785AB107280BD8F2
S315080021B0084A02EB00131B7B43B1012101F048FFDB
S315080021C0002008BD0448FCE70448FAE70448F8E795
S315080021D008160020D0130020028000F0018000F0CD
S315080021E0078000F00A4A08B5127852B107280AD8BB
S315080021F0084A02EB00131B7B3BB102F015F80020DE
S3150800220008BD0548FCE70548FAE70548F8E700BFB2
S3150800221008160020D0130020028000F0018000F08C
S31508002220078000F00D4B1B7893B1072812D889B1A7
S315080022300B4B03EB00131B7B73B10A4B1A6D01237F
S315080022408340134214BF0123002300200B707047FC
S315080022500548704705487047054870470816002026
S31508002260D013002000000450028000F0018000F026
S31508002270078000F00B4A10B512780C4662B10728A1
S315080022800CD859B1084A02EB00131B7B43B101F085
S31508002290E7FF2070002010BD0448FCE70448FAE771
S315080022A00448F8E708160020D0130020028000F042
S315080022B0018000F0078000F0184B2DE9F0411F6DF2
S315080022C05B6D1F4000D5FEE701260025144CDFF89C
S315080022D05880374218D02368C8F85060A3B1A1685F
S315080022E0284601316268A1609847637B012B0BD1B0
S315080022F050B90C4B03EB45131A7B60F341021A7372
S315080023001A7F60F341021A770135082D4FEA46060F
S3150800231004F11004DDD1BDE8F08100BF00000450CF
S31508002320D0130020D012002000200450044BD3F80C
S315080023308420D206FBD4D3F88400C0F381107047FA
S315080023400040005038B5124B0546D3F880300C468D
S3150800235003F00303022B0BD0032B0DD0012B0FD157
S31508002360FFF70CFB0E2305B1286004B1236038BDC6
S31508002370FFF74EFB0723F6E7FFF7FAFA0623F2E71D
S31508002380044841F2DF1105F0C5FA00231846EAE7CA
S31508002390008000500E8C000838B51A4B0546D3F855
S315080023A020010C4600F00700062821D8DFE800F0D7
S315080023B028040C1410181C00FFF7DAFA052305B1D7
S315080023C0286004B1236038BDFFF708FB0323F6E74E
S315080023D0FFF71EFB0723F2E7FFF716FB0223EEE7DC
S315080023E0FFF7C6FA0623EAE7FFF7F8FA0423E6E753
S315080023F0054841F25C2105F08DFA00231846DEE710
S315080024000123DCE7008000500E8C000838B5194B14
S315080024100546D3F828310C4603F00703013B052B84
S3150800242020D8DFE803F003131B0F0B17FFF7A0FAFA
S31508002430052305B1286004B1236038BDFFF798FA73
S315080024400623F6E7FFF7E4FA0723F2E7FFF7C6FAEB
S315080024500323EEE7FFF7C2FA0423EAE7FFF7D4FA05
S315080024600223E6E7044841F2640105F053FA002323
S315080024701846DEE7008000500E8C0008F7B50027E6
S31508002480144B0197D3F88041064604F00304022C46
S315080024900D4614D0032C0DD0012C14D1394601A8B1
S315080024A0FFF77AFF10240EB1019B336005B12C604B
S315080024B003B0F0BDFFF7ACFA07240190F3E7FFF786
S315080024C0A3FA0190EFE741F2B131034805F022FA89
S315080024D03C46E8E7008000500E8C0008002337B51C
S315080024E00193194B0546D3F820320C4603F007032F
S315080024F0042B1FD8DFE803F025030F141900002169
S3150800250001A8FFF783FF12230DB1019A2A6004B1CF
S31508002510236003B030BDFFF77BFA07230190F3E78A
S3150800252005F0F2F90A230190EEE7FFF7B3FA09235B
S315080025300190E9E741F22301044805F0EBF900238D
S31508002540E2E70123E0E700BF008000500E8C000898
S3150800255038B5104B0546D3F840310C4603F0030353
S31508002560022B0BD0032B0DD0012B0FD105F0CCF984
S315080025700A2305B1286004B1236038BDFFF78AFA3B
S315080025800923F6E705F0C3F90C23F2E70123002037
S31508002590EFE700BF00800050002337B50193184BC2
S315080025A00546D3F860320C4603F00703013B032BBC
S315080025B01FD8DFE803F0020E1914002101A8FFF75F
S315080025C0EBFE10230DB1019A2A6004B1236003B013
S315080025D030BD002101A8FFF7BBFF1123F2E7FFF783
S315080025E017FA07230190EDE7FFF70EFA0223019089
S315080025F0E8E741F2C801034805F08CF90023E1E752
S31508002600008000500E8C0008002337B50193184B44
S315080026100546D3F894320C4603F00703013B032B17
S315080026201FD8DFE803F0020E1914002101A8FFF7EE
S31508002630B3FE10230DB1019A2A6004B1236003B0DA
S3150800264030BD002101A8FFF783FF1123F2E7FFF74A
S31508002650DFF907230190EDE7FFF7D6F9022301908A
S31508002660E8E741F2FB01034805F054F90023E1E7E6
S31508002670008000500E8C000873B500240F4B01949F
S31508002680D3F87032064603F00303012B0D4607D034
S31508002690022B11D041F22611094805F03BF904E056
S315080026A0214601A8FFF754FF11240EB1019B3360A0
S315080026B005B12C6002B070BD1524F6E70080005005
S315080026C00E8C000838B5164B0546D3F800020C46A2
S315080026D000F00700042819D8DFE800F020030B0FE4
S315080026E0130005F011F90A2305B1286004B1236027
S315080026F038BDFFF7CFF90923F6E705F008F90C23EB
S31508002700F2E7FFF755F90F23800AEDE7054841F28E
S315080027106F4105F0FFF800231846E5E70123E3E7D4
S31508002720008000500E8C000838B5164B0546D3F8C5
S3150800273008020C4600F00700042819D8DFE800F064
S3150800274020030B0F130005F0DFF80A2305B12860F4
S3150800275004B1236038BDFFF79DF90923F6E705F0B4
S31508002760D6F80C23F2E7FFF723F90F23800AEDE7E3
S31508002770054841F2A74105F0CDF800231846E5E7DC
S315080027800123E3E7008000500E8C000838B5104B93
S315080027900546D3F840320C4603F00303022B0BD050
S315080027A0032B0DD0012B0FD105F0AEF80A2305B186
S315080027B0286004B1236038BDFFF76CF90923F6E7F2
S315080027C005F0A5F80C23F2E701230020EFE700BF88
S315080027D00080005038B5104B0546D3F860310C46DA
S315080027E003F00303022B0BD0032B0DD0012B0FD1C3
S315080027F005F08AF80A2305B1286004B1236038BDBC
S31508002800FFF748F90923F6E705F081F80C23F2E704
S3150800281001230020EFE700BF00800050B0F5207FBD
S3150800282010B52ED009D8B0F5007F24D003D868B1EA
S31508002830B0F5C07F0AD000241BE0B0F5607FFAD15E
S31508002840124BD3F88040C4F3011412E00F4B1C6FEF
S31508002850230B13F00E0FC4F303340AD0072C08D049
S315080028600F2C06D0032C04D040F28521084805F029
S3150800287051F8601C10BD054BD3F89040C4F30464AE
S31508002880F7E7024B1C6FC4F38024F2E70080005080
S315080028900E8C00084FF4803238B5104B04469A6601
S315080028A000200D46FFF7BAFF41F671320C4B604324
S315080028B0DC69DA635A6804F4803422F440125DB99C
S315080028C00849884294BF00200120000502435A6047
S315080028D00CB10022DA6338BD0349F2E700900050D4
S315080028E000000350005A6202002D310138B5430931
S315080028F004460D460ED140F22F310D4805F00AF870
S31508002900002304F01F0485B103F580530122A24079
S315080029101A6038BD012B04D0022B04D040F23D3199
S31508002920EBE7044BEDE7044BEBE703F50053EDE764
S315080029300E8C00086480005068800050002130B575
S31508002940802885B00446CDE9001100F09F8035D86F
S315080029505E2846D85E2844D8DFE800F09E43434305
S315080029604343434343434343434343434343434329
S315080029704343434343434343434343439EAB9EAB93
S31508002980BBBBBBBBBBABC550DB7450ABABAB4343AC
S31508002990434343434343ABABAB7CE5AB434343437E
S315080029A0434343434343434343BB9E9E9EE05050A9
S315080029B0EA8B61C04343434343939E00B0F5B06F2F
S315080029C000F0918030D8B0F5207F72D00FD8B0F5DE
S315080029D0C07F61D0B0F5007F61D0B0F5807F00F090
S315080029E0878040F29441554804F094FF51E0B0F5D1
S315080029F0607F69D00DD8B0F5407FF2D1FEF7D8FFD9
S31508002A0004464FF42070FFF709FFB4FBF0F464089E
S31508002A1058E0B0F5806F5CD0B0F5A06FE1D1002129
S31508002A206846FFF75BFD34E0B0F5106F76D016D830
S31508002A30B0F5E06F77D00AD8B0F5C06F69D0B0F5B9
S31508002A40D06FCED100216846FFF73CFE21E0B0F5F5
S31508002A50F06FC6D100216846FFF7BCFE19E0B0F555
S31508002A60406F3BD00AD8B0F5206F61D0B0F5286F1B
S31508002A70B7D100216846FFF7FFFD0AE0B0F5486FB9
S31508002A80AFD100216846FFF7BFFD02E0FEF776FFEB
S31508002A900090009805B030BDFEF78AFFF8E7FEF70C
S31508002AA06DFF05462046FFF7B9FEB5FBF0F5009524
S31508002AB0EFE7FEF77DFF04464FF42070FFF7AEFE02
S31508002AC0B4FBF0F40094E4E701A8FFF73BFC019D92
S31508002AD0E8E700216846FFF75FFCDAE70021684669
S31508002AE0FFF794FCD5E700216846FFF7C7FCD0E757
S31508002AF04FF0E02302911B695B0705D5FEF758FFE7
S31508002B000290029B0093C4E703A902A8FFF720FDE1
S31508002B10F7E700216846FFF71BFDBAE7002168467C
S31508002B20FFF702FEB5E700216846FFF72FFEB0E77C
S31508002B3000216846FFF730FDABE700BF0E8C0008A2
S31508002B4008B58020FFF7FAFE034B98429EBF4FF464
S31508002B508032024B1A6708BD005A620200A0005074
S31508002B601FB503460020B3F5807F019000F0C280B0
S31508002B7063D85D2B54D84C2B06D82D2B46D8232B3F
S31508002B802AD840F27951A4E04D3B102BF9D801A27E
S31508002B9052F823F0EB2C0008832B0008832B00083F
S31508002BA0832B00089D2C0008832B0008832B000824
S31508002BB06F2D0008BB2C0008612C0008652D000845
S31508002BC0832B0008832B0008832B0008832B00081F
S31508002BD0832B0008792D0008243B092BD1D801A2A4
S31508002BE052F823F0EB2C0008EB2C0008EB2C00081D
S31508002BF0EB2C0008EB2C0008832B0008DB2C0008C4
S31508002C00832B00087D2C0008212D00083D2B00F0A1
S31508002C1082803E2BB5D1002001A9FFF7B7FD60E001
S31508002C20802BAED1574B1B6F03F00703013B032BD9
S31508002C304DD8DFE803F04A47878FB3F5F06F6AD0BF
S31508002C4021D8B3F5B06F48D00FD8B3F5607F00F040
S31508002C50858096D3B3F5806F47D0B3F5A06F90D132
S31508002C60002001A9FFF73AFC3BE0B3F5D06F57D037
S31508002C70B3F5E06FCFD0B3F5C06F82D1002001A9BC
S31508002C80FFF766FC2DE0B3F5206F70D00BD8B3F5CF
S31508002C90086F4AD0B3F5106F7FF473AF002001A90F
S31508002CA0FFF742FD1DE0B3F5406F5BD0B3F5486F03
S31508002CB062D0B3F5286F7FF464AF002001A9FFF74F
S31508002CC0DBFC0EE0052301930BE00223FBE740F251
S31508002CD0C6412D4804F01EFE03E0002001A9FFF7B7
S31508002CE0CDFB019805B05DF804FB002001A9FFF7AC
S31508002CF053FBF6E74FF0E02302901B695B0705D507
S31508002D00FEF756FE0D230393039BDCE703A902A8EF
S31508002D10FFF71EFCF8E7002001A9FFF75BFDE0E7D7
S31508002D20002001A9FFF7CEFCDBE7164BD3F80031EC
S31508002D3003F00303022B07D0032B09D0012B0BD179
S31508002D40FEF74CFE0323BEE7FEF7A4FE0923BAE707
S31508002D5004F0D8FD0823B6E70123B4E701A9FFF775
S31508002D60F1FABEE7002001A9FFF750FBB9E70020FA
S31508002D7001A9FFF711FCB4E7002001A9FFF744FCFD
S31508002D80AFE700BF008000500E8C00084FF4801299
S31508002D90034B5A664FF48032024B9A62704700BF63
S31508002DA0009000500050005A38B5036804460F2BAF
S31508002DB004D940F66D317C4804F0ACFD63680F2BEE
S31508002DC004D94FF43761784804F0A4FDA3680F2BA3
S31508002DD004D940F67331744804F09CFD237B0F2B0D
S31508002DE004D940F67631704804F094FD637B0F2BC6
S31508002DF004D940F679316C4804F08CFDA37B3F2B4F
S31508002E0004D940F67C31684804F084FDE37B3F2B07
S31508002E1004D940F67F31644804F07CFD2369032B0E
S31508002E2004D940F68231604804F074FD6369032BC7
S31508002E3004D940F685315C4804F06CFDE369032B40
S31508002E4004D940F68831584804F064FD8020FFF71D
S31508002E5087FE032800F083804FF48012534B4FF00F
S31508002E60A0615A6645F60E02514BC3F88020514AB6
S31508002E7091624FF4803102F5805291629A6DD203C5
S31508002E80FCD4996D11F08041FBD1D4E900021205FA
S31508002E9042EA0062E07B0243207B42EA0042607B12
S31508002EA042EA0032A07B42EA80121A619869D4E9A4
S31508002EB00452120642EA856200F000400243A07EF0
S31508002EC0E57E0243207E42EA0042607E42EA002214
S31508002ED09A611A6AE06922F00F0242EA8502364DC3
S31508002EE000283DD11A6294F82420996A94F82000A3
S31508002EF0D200294042EA40120A4394F8211042EAD5
S31508002F00011242F480329A622C49294A936D31EAB9
S31508002F100303FBD14FF08071264881621369A568C7
S31508002F2023F4700343EA055313614FF000438361AA
S31508002F3094F822300BB9224B996294F823303BB9A6
S31508002F404FF480321E4B9A62194A936D5B00FCD48B
S31508002F5094F825301BB1164B1A4AC3F8802038BDA1
S31508002F60024342F0080202281A6208D119614FF496
S31508002F700852996114484FF47F4104F023FD0C4927
S31508002F8094F822308A6A94F820001B062A4043EAFD
S31508002F904013134394F8242043EAC20394F82320E9
S31508002FA043EA02438B62D3E70E8C00080090005078
S31508002FB00040005A0050005AC7FFFEFE03000100F9
S31508002FC00060005AF1A7FFFF3440005A014B93F9FD
S31508002FD000007047FE110020436810B5072B044611
S31508002FE004D940F6B3512A4804F094FCA368032B8D
S31508002FF004D940F6B551264804F08CFC2378032BF7
S3150800300004D940F6B751224804F084FC94F90130FB
S31508003010002B04DA40F6B9511D4804F07BFC4FF446
S3150800302000011C4A637851664FF4D151022002F51B
S31508003030B832516218494F2B48604FF0010028BF3B
S315080030404F2301F5805148601169C903FCD42178E2
S3150800305043EA01235361D4E901131B0143EA01231F
S31508003060617B0B43217B43EA41039360E37BA17BAE
S315080030701B0143EA4113617C0B43217C43EA41036C
S315080030805360A37C13B16FF4D153536210BD00BFD4
S315080030900E8C00080090005000100250014B18805A
S315080030A0704700BFF6110020014B1880704700BF1B
S315080030B0F4110020B0F5207F38B577D00ED8B0F5DA
S315080030C0007F61D003D890B3B0F5C07F2FD040F20F
S315080030D01231BDE838403D4804F01CBCB0F5607FAD
S315080030E0F5D13B4A4C1ED2F8FC5015F080751EBF30
S315080030F0D2F8FC3023F08073C2F8FC30032C04D9D4
S3150800310040F2F221314804F005FC324AD2F8803008
S3150800311023F0300343EA0413C2F8803035B12C4A51
S31508003120D2F8FC3043F08073C2F8FC3038BD4C1E30
S31508003130012C0AD9102903D8274BCB40DB0704D426
S3150800314040F2C721214804F0E5FB04F04AFC04F0EC
S3150800315056FC4FF48031214B1E4A1967136F23F42E
S31508003160704343EA04331367FEF722FC0446FFF76D
S31508003170DDF8C0F10201204604F03BFC00F040F8FF
S31508003180BDE83840FFF7DCBC4C1E1F2C04D940F2C2
S3150800319006310E4804F0BEFB0E4AD2F8903023F0F2
S315080031A0F85343EA0463C2F89030BFE74C1E012C7B
S315080031B004D94FF44371054804F0ACFB054A136F74
S315080031C023F4806343EA84231367AFE70E8C000871
S315080031D000ED00E000800050100101000090005052
S315080031E008B50121022000F02FF804F0FAFB04F0DC
S315080031F006FC4FF48032014B1A6708BD0090005058
S3150800320008B54FF4C070FFF799FBBDE808400449BC
S31508003210884294BF012102214FF42070FFF74ABF6C
S3150800322080F0FA02024A536B0342FCD1704700BF92
S3150800323000400950034A0179D36E23F030030B434B
S31508003240D366704700400050F8B50446244BD3F8BF
S315080032508420D006FBD4D3F88430C3F381139C4270
S315080032603CD0FEF78BFB012C05460BD11D4B984233
S3150800327004D940F281711C4804F04CFB0121284610
S3150800328004F0B7FB04F0D5FB4FF00072174B074666
S315080032905A66204604F0DDFB4FF48063104E621E2A
S315080032A093403367736E9A0103D4D6F884309B062D
S315080032B00AD5384604F0C1FB022C0FD12846BDE8D2
S315080032C0F840002104F095BBD6F884309906E9D574
S315080032D040F28F71044804F01DFBE3E7F8BD00BF18
S315080032E000400050005A62023D8C00080060005001
S315080032F010B50C4608B9FEF741FB074B21461B786B
S315080033003BB1064B984204D80120BDE81040FFF7B0
S315080033109BBF0220F9E700BF09160020005A620287
S315080033204FF0004238B5244B244C5A664AF6CD3342
S31508003330656C014605F00105236428BB0120FFF7EB
S3150800334071FF6368DB0715D51D4B586008461D4B92
S31508003350226BD2070CD4984208D1072415B1174B13
S31508003360194A1A6404F076FB204638BD0130EFE7A7
S315080033709842F2D00024F1E70132236B13F00803D8
S3150800338005D08A42F8D1E8E700220E49F5E78A42D5
S31508003390E3D020210A4A91620121A2F580525160A8
S315080033A00649084A886A800603D49342D5D0013371
S315080033B0F8E79342DDE700BF00900050004009504F
S315080033C00060095040420F003254FFFF4FF00042A0
S315080033D038B5164B01465A664AF6CD33144C154A8B
S315080033E0656C236443780B205B0043F00103D363C9
S315080033F0FFF718FF63688A7823F4F87343EA021321
S315080034006360CA784B7943EA0223A3600A798B7909
S3150800341043EA022323610878FFF782FFEB0744BFDC
S31508003420054B236404F016FB012038BD00900050BC
S3150800343000400950004000503254FFFF0F2870B575
S31508003440044605D940F61C61124804F063FA0F24B5
S315080034504FF00042104B11495D6E03F580535A66D2
S315080034604AF6CD334E6C80200B64FFF7DBFE0B6A01
S3150800347023F00F0323430B62F30744BF084B0B6487
S31508003480002DA2BF4FF00042064B5A6604F0E2FA3E
S3150800349070BD00BF3D8C00080080005000400950F8
S315080034A03254FFFF00A0005010B504F0D8FA0423E8
S315080034B000F5805100F500520B6113610B61136131
S315080034C00B6113610B611361202341F20201036151
S315080034D00023C360836041614FF4A0218361836543
S315080034E041620549C36103628362C362436303653C
S315080034F0D164036310BD00BFFF3F0D0338B5174BFA
S31508003500044698420D4607D0154B984204D04FF40E
S31508003510B371144804F0FEF925B92046BDE83840D1
S3150800352004F09DBA012204F580535A6040F6FF71F3
S31508003530204605F00F0204F08EFAA263782104F003
S315080035408AFA05F001036A0748BF43F00203A26C32
S3150800355002F003029A42FAD138BD00BF0000015BAF
S3150800356000000A506C8C0008F8B505460C4616464D
S3150800357022B94FF409716B4804F0CCF96A4B9D42A5
S3150800358002D19CB956240DE0684B9D4247D040F2C3
S315080035902721644804F0BEF944B940F276316148FF
S315080035A004F0B8F92046FFF7C9F90446AB68D8070E
S315080035B045D5B44204D240F231215A4804F0AAF95A
S315080035C0B4FBF6F46F68013CFF2C07F0010704D939
S315080035D040F23921534804F09DF924064FB32821B7
S315080035E0284604F038FAAB6C99071CD1AB6CDA079D
S315080035F01BD4AE6C16F0020619D140F24621494892
S3150800360004F088F9284604F02AFA2B69314623F093
S315080036107F4323432B61BDE8F840FFF76FBF002CBB
S31508003620C4D15724BEE70526ECE70926EAE70626AD
S31508003630E8E72B6923F07F4323432B61F8BD6B68CA
S31508003640012B04D040F25921364804F063F9AB6DDA
S31508003650DB07AB6848BF760003F0E003402B42D097
S3150800366009D893B1202B1AD040F29B21BDE8F84027
S315080036702C4804F04FB9602B42D0802BF4D106EBCE
S315080036804603A34247D801230DE0B6EB141F04D91D
S3150800369040F28121234804F03DF9102303E0B6EBFC
S315080036A0D40F1AD8082373436401B4FBF3F4204FEC
S315080036B0203CB7EBC40F4FEAC40604D240F2A62159
S315080036C0184804F027F928463E40012104F0C3F9BA
S315080036D02E63BDE8F84004F0BEB940F286211148D1
S315080036E004F018F9DEE70623B4FBF3F3B34201D37B
S315080036F00623D8E740F28B210A4804F00BF9F7E7CE
S31508003700B6EB940F01D80423CDE74FF4247105488E
S3150800371004F000F9F7E740F29521024804F0FAF8B8
S31508003720B1E700BF6C8C00080000015B00000A507E
S31508003730F8FF7F002DE9F0419846436804460E4697
S3150800374017461BB140F6FF7104F085F92046FFF7CE
S31508003750ABFEF189737B62690B43318A22F44C52C2
S315080037600B4322F00F0213436361A168337E327B59
S3150800377021F0804121F0E2011A430A4371690A43A4
S31508003780A260B2681AB9A26842F00042A260F06963
S31508003790002874D0857A027A6D04A16845EA8255B4
S315080037A06C4A0A401543828802F4C042154342789F
S315080037B045EA8205427B45EAC205827B45EA02154F
S315080037C0827845EA8225A560D0E90421E5680A439E
S315080037D0614929400A43817942EA8122C17942EA4C
S315080037E04122E26002785D49012A14D1E26842F07A
S315080037F00402E2608C4200F09180594A94420CBF60
S3150800380001224FF0FF32520102F1A04242F29441E6
S3150800381002F5703214E0032A7AD1E26842F0040213
S31508003820E2608C4278D04E4A94420CBF01224FF097
S31508003830FF3241F29441520102F1A04202F5703280
S3150800384002255550427A04F580518A621AB1E26817
S3150800385042F40062E260C27A5AB1E26842F4004277
S31508003860E2603E4A94425BD1027B3E4902F00F0277
S315080038704A67626AC17B22F003020A4362623FB169
S3150800388097F8202004F58050002A53D001220262BE
S31508003890B8F1000F27D004F5805113B14FF4004357
S315080038A08B652E4BB8F822009C4298F821304ED0F2
S315080038B02B4A94420DD10122112B34BF012702272E
S315080038C0294DB0F5006FAF5494BF01270227274D45
S315080038D0AF54A26D034322F4F95222F01E02134399
S315080038E0A36501238B6505212046FFF707FEB2680D
S315080038F01AB120467168FFF737FE20463178FFF780
S31508003900FDFDA36CDB4313F4405FFAD1BDE8F081FB
S31508003910023A012A85D96DE700228AE7002272E772
S315080039200F4A944201BF027B0E4902F00F02C1F80A
S3150800393080209EE7E16997F8222097F8215021F028
S3150800394009012A430A4342F00102C261A0E70022A4
S31508003950B2E700BFE39BBDFFFFF9F0870000015BFC
S3150800396000000A50009003500C1600200A1600208A
S31508003970134B70B5984205460C4606D0114B984233
S3150800398003D07021104803F0C5FF1CB972210E48F8
S3150800399003F0C0FF237B802B03D176210A4803F06E
S315080039A0B9FF637B032B03D97921074803F0B2FFDC
S315080039B0002321462846BDE870401A46FFF7BABEDE
S315080039C00000015B00000A506C8C00082B4B70B598
S315080039D0984205460C4643D119B98C21284803F06C
S315080039E099FF5620FFF7BCF80C2807D0A0F1090369
S315080039F0012B03D9A0F11103012B3AD8637B032BC2
S31508003A0003D9AA211E4803F085FF237B802B03D008
S31508003A10AC211B4803F07EFF6369B3F1804F03D0E6
S31508003A20AE21174803F076FF238A23F400539BB28E
S31508003A30B3F5805F03D0B021114803F06BFFA3688C
S31508003A40013BB3F5165F03D3B2210D4803F062FFBD
S31508003A50002321462846BDE870401A46FFF76ABE8D
S31508003A608A21074803F056FF1CB98C21044803F045
S31508003A7051FF9E21024803F04DFFBFE70000015B9E
S31508003A806C8C0008032838B504460D4605D8094B42
S31508003A9033F81030CB40DB0704D440F22D410648FA
S31508003AA003F038FF302301225C43044BAA401A5125
S31508003AB038BD00BFCE8C0008928B000840D003505A
S31508003AC0032838B504460D4605D8094B33F8103097
S31508003AD0CB40DB0704D440F2FE31064803F01AFF58
S31508003AE0302301225C43044BAA401A5138BD00BF5B
S31508003AF0CE8C0008928B000840E0035003282DE97D
S31508003B00F04104460D461746984605D81D4B33F82E
S31508003B101030CB40DB0704D44FF4B0711A4803F0D9
S31508003B20F9FE37B129462046B8F1000F20D0FFF735
S31508003B30A9FF0F21072D04EB440688BFA5F108034A
S31508003B404FEA0616114895BFAB009B0004360C36A3
S31508003B5007FA03F29940304403F0A0FF7FB92946DB
S31508003B602046B8F1000F06D0BDE8F041FFF78ABF3E
S31508003B70FFF7A6FFDDE7BDE8F041FFF7A1BFBDE807
S31508003B80F08100BFCE8C00089E8C000830C0035020
S31508003B90F8B506460F461546002A6AD003F0030410
S31508003BA0836823F44073836003F043FFB26882EAB4
S31508003BB0042303F440735340B36003F03EFF37B960
S31508003BC0B6F1B64F0DD12E20FEF7B8FE0746B368FC
S31508003BD09A0717D5012C1BD0022C27D064B9264B7F
S31508003BE017E0264B9E4201D12F20EDE740F22F1118
S31508003BF0234803F08FFEB3684FF4B271204803F0F0
S31508003C0089FE08E0012C13D0022CE7D11D4B00E0F9
S31508003C101D4B9F42F0D91D4B1B5D6B430AD140F2E9
S31508003C207511BDE8F840164803F074BE184BF0E766
S31508003C30184BEEE7A3EBC504013C3C44B4FBF3F494
S31508003C40013C0CD540F27B110D4803F063FE4FF49E
S31508003C50BE710B4803F05EFEB368B461F8BDB4F5F7
S31508003C60007FF4D2B3689B07F7D5002C08BF012460
S31508003C70F3E740F21511D4E780841E000080065051
S31508003C80D68C0008002D3101404B4C00058D0008EC
S31508003C90809FD50040548900B0F1B64F38B5044628
S31508003CA00D4607D0084B984204D040F295110748B4
S31508003CB003F030FE043425B104F580540123236053
S31508003CC038BD04F50054F9E700800650D68C000884
S31508003CD0B0F1B64F38B504460D4607D0124B984298
S31508003CE004D04FF4D571114803F014FE0023104A8E
S31508003CF0236404F50053DA636A7804F108037AB991
S31508003D0003F5805302221A602046D5E901122B7B5F
S31508003D10FFF73EFF20462978BDE83840FFF7BCBFCD
S31508003D2003F50053EEE700BF00800650D68C000866
S31508003D30FFFF1F00B0F1B64F70B50AD0824B98420C
S31508003D401DD0824840F2012103F0E4FD6FF0030024
S31508003D5070BD7F4B9968C26B12F4C06F15D0910580
S31508003D600FD5FD225A7009221A700022026493F9AF
S31508003D700110012900D15A7093F90100E8E7754B43
S31508003D80E8E75605EFD5FE22ECE71C78082C00F28A
S31508003D90D680DFE814F009001F00450053007000C4
S31508003DA07E009C00A700CB004C880A88E5060AD549
S31508003DB0120A02F0060242F0F0020121197042636B
S31508003DC0C1600120C4E702F0FE02A10748BF42F025
S31508003DD00102F2E7160608D5802100F50052D163E4
S31508003DE04FF608721A80022318E05506E9D54024D2
S31508003DF000F50052D4634A88D40604D502221A7004
S31508003E000B784363DDE796076AD507221A701B7994
S31508003E1001EBC3031B89012BD3D10823C360D0E769
S31508003E201506D9D45406CCD5402400F50052D463DF
S31508003E304A88920754D503221A708CE74C880A8858
S31508003E40E60643BF120A02F0060242F0F00202F04A
S31508003E50FE02650709D51C7942F0010201EBC4018F
S31508003E600989012904BF0821C160042119700123A9
S31508003E70C3604263A5E71406AED45206A1D5402412
S31508003E8000F50052D4634A88560729D507221A70C6
S31508003E9097E71A795D8801EBC2042689AE420FD8E6
S31508003EA000240132D2B21A715C804C886507C2D4EC
S31508003EB0E40702D4012A7FF64EAF08221A7092E769
S31508003EC06268691C5980525D42630622DFE716065E
S31508003ED082D455067FF575AF402400F50052D463A9
S31508003EE00522A9E794067FF56CAF20261A7900F516
S31508003EF0005401EBC2010A89456AE6635C88A2425E
S31508003F0081BF4968661C5E800D5559888A42D4D996
S31508003F100424012AC46004D0013A914201D108223E
S31508003F20C2601A78092A3FF420AF4AE7D2057FF51E
S31508003F3048AF4FF4807100F50052D16313E74FF68E
S31508003F4009321A8011E700BF00800650D68C000897
S31508003F50501400205C140020B0F1B64F38B5044662
S31508003F600D4607D121B940F26A31254803F0D2FC43
S31508003F70244B13E0244B98420DD040F26931204877
S31508003F8003F0C8FC25B940F26A311D4803F0C2FCAB
S31508003F906FF0030038BD00292AD01C4B2269D007D0
S31508003FA044BF2022E2606A88910702D52989002940
S31508003FB0EED0520702D52A8A002AE9D04FF4807239
S31508003FC01A6000229D601A71C023E3606369DB05ED
S31508003FD014D4202204F50053DA630D4A2046DA6326
S31508003FE0236C43F4FC632364BDE83840FFF7A2BEA4
S31508003FF040F26A31024803F08DFCCEE7636AE5E7D2
S31508004000D68C000850140020008006505C1400204E
S31508004010FFFF1F004FF400120B4B10B5C3F88020AA
S31508004020BFF34F8FBFF36F8F0024FF22074B214644
S315080040305C6520209A625C60FEF758FC2146BDE864
S3150800404010402120FEF752BC00E100E000000450B9
S31508004050072838B504460D4603DD7721084803F0DE
S3150800406059FC1F2C03D99121064803F053FC064A34
S31508004070064B002D08BF13460122A2401A6038BD20
S31508004080098D0008398D000840100450402004505E
S3150800409010B5044618B991211F4803F03BFC237854
S315080040A01B0613F0604F03D092211B4803F032FC25
S315080040B0E3780F2B03D9A321174803F02BFC012122
S315080040C02020FEF713FC01212120FEF70FFC012218
S315080040D0124B5A60227812069A606178A27842EAF0
S315080040E001429A61FF229A6200229A631A644FF08B
S315080040F000425A654FF0FF324FF4001103F50053A2
S315080041001A65074AC2F88011E3781B01DBB282F808
S315080041101533116010BD00BF098D0008000004505A
S3150800412000E100E02DE9F0410126C3B20728054663
S315080041300C46904606FA03F603DDEC21364803F0F2
S31508004140E9FB1CB9ED21344803F0E4FB236823F4AA
S315080041507C1323F00F031BB1F0212F4803F0DAFB81
S31508004160A37A1B0413F47C0F04D040F209112A48E1
S3150800417003F0D0FBE37A1B0513F07E6F04D040F200
S315080041800B11254803F0C6FB237B5B0513F0FE5F86
S3150800419004D040F20D11204803F0BCFB1F4B204F02
S315080041A01E65AB00226803F1A04303F588235A6015
S315080041B0302202FB0575637B2B66E37AA27A1B0520
S315080041C043EA0243227B43EA4253EB6528F00303A2
S315080041D02B6703F035FC7B6D33437B65237A13B17C
S315080041E03B6C33433B64637A13B1BB6B3343BB63AA
S315080041F02279A37943EA0243084A93616179E3790C
S3150800420043EA014307498B61054B56639E64BDE843
S31508004210F04103F01BBC00BF098D000800200450C4
S31508004220000004500010045010B50124C3B207283A
S3150800423004FA03F404DD40F29711074803F06AFB19
S3150800424003F0FEFB054B5A6D22EA04025A659C628E
S31508004250BDE8104003F0FABB098D000800000450C1
S3150800426010B50124C3B2072804FA03F404DD40F2AA
S31508004270B5110A4803F04EFB03F0E2FB084BDA6A75
S31508004280224208D15B6B9C430CBF0124002403F037
S31508004290DDFB204610BD0024F9E700BF098D0008A4
S315080042A00000045070B506460C46154622B940F281
S315080042B08E210C4803F02EFB24B94FF42070FEF72C
S315080042C03DFB04466D00013CB4FBF5F4064B2502A4
S315080042D013EA042304D040F2B321024803F01AFB80
S315080042E0F56170BD9F8D0008070080FF124B10B561
S315080042F09842044604D040F24241104803F00AFBB3
S31508004300012104F58053596040F6AA6341F205027B
S31508004310636100230A48A360E365E26004F500527E
S315080043202361E361E36490640348A365844204BFA0
S3150800433023656365516010BD00C005509F8D000858
S31508004340FFFF010038B5294B044698420D4604D0B4
S3150800435040F26931264803F0DDFA2046FFF7C6FF2A
S31508004360012204F580535A602B8AA26843F00103A0
S315080043701343AA7B43EA8223A360A3682A7D43EA00
S315080043804273A360AB7C5BB1184B9C4202BFEA7CCC
S31508004390A3F51033C3F8C821E36D43F08003E36542
S315080043A02B7B2046D5E9011243F48053E360FFF7DF
S315080043B079FF6B7B0BB1102363616B7D1BB1A3681F
S315080043C043F48033A360AB7D1BB1A36843F4004379
S315080043D0A360EB7D2A7E1B07120503F0E04302F477
S315080043E0E0021343A3652B78636138BD00C005500E
S315080043F09F8D0008034B5A68D20702D5DA69002A4E
S31508004400F9D1704700800A50054B9A689107FCD489
S315080044105A689207F9D4DA69002AF6D1704700BFBC
S3150800442000800A5008B5FFF7E5FF0222014B1A6122
S3150800443008BD00BF00800A5008B5FFF7E5FF012256
S31508004440024B03F580514A601A6108BD00800A5084
S3150800445008B5044B5968012903D1FFF7E3FF024B5E
S31508004460596008BD00800A5000A00A5010B5064CD5
S31508004470FFF7CAFF6368012B03D1FFF7E9FFFFF7D0
S31508004480C3FF0378E36010BD00800A50A8B94A68E4
S315080044900B78B2B94A7843EA42038A6812B11278AD
S315080044A043EA82138A7843EA8203CA6812B1127809
S315080044B043EA4223054A936470477F21044803F080
S315080044C029BA127843EAC203E4E700BF00800A501B
S315080044D0D08D000810B9044B596470474FF48971A0
S315080044E0024803F017BA00BF00900A50D08D0008A2
S315080044F010B9044B596470474FF4A771024803F08A
S3150800450009BA00BF00A00A50D08D000810B9044BA4
S31508004510196470474FF4C571024803F0FBB900BF30
S3150800452000A00A50D08D000808B510B9044B186CC5
S3150800453008BD044840F2C51103F0ECF90020F7E77E
S3150800454000800A50D08D000808B520B949B1012964
S315080045500AD0002008BD4FF41D71054803F0DAF9AA
S31508004560F7E7044BD86CF5E7024B186DF2E700BF86
S31508004570D08D000800800A5018B939B1012908D031
S31508004580704740F21231044803F0C4B9034BDA64A9
S315080045907047024B1A657047D08D000800800A5094
S315080045A007B5094B18689A889B7900906846ADF854
S315080045B004208DF80630FEF709FF0C20FEF73EFFB3
S315080045C0002003B05DF804FB0F8E000813B5002425
S315080045D0064A6846536F43F00103536700948DF803
S315080045E00440FEF727FE204602B010BD00400050EA
S315080045F030B58BB06C46174D0FCD0FC40FCD0FC419
S3150800460095E8030084E80300134BD3F84C21120302
S315080046101CD5A3F5FE431C884FF6FF739C4208BFC2
S3150800462057248DF81940FEF7D1FC204480F3080082
S315080046308DF818000948FDF7D7F96846FEF7B4FB68
S315080046403220FEF731FD00200BB030BDD3F85041C3
S31508004650E4B2E6E7188E00080080E00FC0175302A0
S3150800466030B5094D87B001AC0FCD0FC42B6801A832
S31508004670236024238DF80530FEF7AEFC3220FEF7C2
S315080046800DFD002007B030BD408E00086FF0040312
S31508004690502110B50A480B4C13F0800F03F10102A4
S315080046A007D123444C2A83F800131346F4D100207B
S315080046B010BD03F00F03043B034419761346EBE7DA
S315080046C000ED00E000E100E010B5044603F0B1F9A2
S315080046D0024B1C6003F0B1F9002010BD68140020DD
S315080046E010B503F0A6F9034B1C6803F0A6F920469B
S315080046F010BD00BF681400202DE9F0438DB01C469C
S3150800470006AB064689461846174600211822149D08
S3150800471003F050FD227903460AB18DF81820FB6193
S3150800472063794FF00108C3F10203DBB2CDE9033325
S31508004730764B30460293764B4A4601930023294628
S315080047400093744B8DF81E8000F004FB0646002883
S3150800475040F0AF80A3684146EB63E3693A20EB6417
S31508004760237E85F8483063696B64237C85F840307E
S31508004770636A6B6594F8203085F85030E36AEB6518
S3150800478094F8283085F858302368AB63FEF7AEF8FE
S31508004790434604226169207CFFF7B0F943460222AA
S315080047A0E169207EFFF7AAF93E7085F86060414608
S315080047B0A068FEF79BF86379002B32D14146362074
S315080047C0FEF794F8A368562B02D0B3F5A06F08D16C
S315080047D0514AD2F8203223F0070343F00303C2F804
S315080047E0203239462068FFF7F1F81021E2684B4B72
S315080047F0676903EB4210C0F89414217C253241EA1C
S315080048000741C0F8AC14217EE06903EB421341EA84
S31508004810004159602379032B75D8DFE803F041245A
S315080048204E6E3D4AD2F8283123F0070343F00103C0
S31508004830C2F82831A368562B02D0B3F5A06F07D16A
S31508004840D2F8203223F0070343F00103C2F82032DE
S3150800485039462068FFF78CF895F8603043F0040372
S3150800486085F86030C1E7002795F8603043F001030A
S3150800487085F8603002220023616A94F82000FFF769
S315080048803DF9616A94F82020E36842EA014241F260
S315080048909C415B0103F1A04303F570335A5097B965
S315080048A00422AB6B052103F5805320681A65FEF7D1
S315080048B025FE30460DB0BDE8F08395F8603043F02C
S315080048C0020385F8603000230422E16A94F8280080
S315080048D0FFF714F941F294420221E3685B0103F100
S315080048E0A04303F57033995094F82820E16A03F53C
S315080048F0A55342EA01421A60D2E795F860300127CB
S3150800490043F00303B4E72326D3E700BF237B00085D
S31508004910937B0008C37B00080080005000C003504A
S3150800492010B50020144603F0D3F8022804D018B1B5
S31508004930C321024802F0EEFF204610BD548E00083F
S31508004940034B0222186800238068194601F004BD4B
S3150800495038100020302238B5037A0446534303F151
S31508004960A04303F58023DD6ED0E9032313449D425B
S3150800497001D8AA4204D94FF43E71054802F0CAFF8D
S31508004980D4E9030303449D4218BF284638BD00BF37
S31508004990A28E000830B51446054687B01046FFF7C4
S315080049A0D9FF6369024683423CBFD4E903315B18E9
S315080049B01B1AABB11249049403910021CDE90131C8
S315080049C0012300932846D4E9001302F0E1FF20B141
S315080049D04FF434710B4802F09DFF002007B030BD3C
S315080049E00122627694F82D20002AF6D084F8353014
S315080049F01321E369204698472046636A9847ECE7FF
S31508004A0095490008A28E00082DE9F04788B00446AB
S31508004A100F461646984603F013F88146002E00F016
S31508004A20AD80237E03F0FF02002B00F0E0802046D5
S31508004A30FFF790FF63698246984206D1637E23B9E1
S31508004A4040F27F316B4802F065FF6569AA459DBF54
S31508004A50D4E903329B185D1BAAEB0505B54228BFAE
S31508004A60354602F0EDFF94F82D308246002B40F0D3
S31508004A7096802A463846616903F0B5FB63692E4677
S31508004A802B4463612CE06069037803F0FD0111296A
S31508004A9040F08280216B884205D1A3F111014B4277
S31508004AA04B4184F83430013E6369216B01328B42F5
S31508004AB003F1010308BF236363619542E3D1D4E997
S31508004AC00323216B1344994208BF2263216B8A4250
S31508004AD001D88B4204D84FF46D71464802F01AFF8C
S31508004AE0D4E9032361691344994208BF6261616985
S31508004AF08A4201D88B4204D84FF471713D4802F0BE
S31508004B0009FF0023207A6376FDF72CFB20B140F2DB
S31508004B101131384802F0FEFE2046FFF71BFF636995
S31508004B2083423FD10023E568237694F82D306561EA
S31508004B3003B125632046636A98472F4B0494039371
S31508004B400023029323692A4601930123009363688D
S31508004B502168207A02F01CFF20B140F22D31254849
S31508004B6002F0D8FE207AFDF71DFB20B140F2513144
S31508004B70204802F0CFFE504602F068FF4846C8F8C3
S31508004B80006002F063FFD8F80030002B0CBF1B2032
S31508004B90002008B0BDE8F08707F8013B84E72E46F9
S31508004BA000228AE70123207A23760DF11E01FDF7FC
S31508004BB061FB20B14FF450710E4802F0ABFE9DF830
S31508004BC01E30207A002BCDD00DF11F01FDF72AFBF0
S31508004BD020B140F24631074802F09CFE9DF81F10AE
S31508004BE0207A0029BED12246FFF7D4FEBAE7164638
S31508004BF0C4E700BFA28E00089549000870B50446B0
S31508004C000568FFF76DFD844202D10020FFF75CFDC1
S31508004C1095F93630002B11DB012203F01F015B09E1
S31508004C209B0003F160438A4003F56143C3F8802182
S31508004C30C3F88020BFF34F8FBFF36F8F287AFDF735
S31508004C40D1FA20B14FF4ED71104802F063FE287ACC
S31508004C50FDF72EFA20B14FF4EF710C4802F05AFE18
S31508004C60FDF704FA38B10A4B984204D04FF4F171B3
S31508004C70064802F04FFE00232846C4E90033C4E97B
S31508004C800433A360AB6ABDE870401847A28E0008DB
S31508004C90058000F02DE9F84304460D4690F82C806F
S31508004CA0DFF8AC908E18AE4228D094F82D3083B138
S31508004CB002F0C6FE237E07461BBB226B63699A4237
S31508004CC004D040F2F911484602F024FE384602F0B4
S31508004CD0BDFE94F83430002BE5D0B8F1000F06D0AD
S31508004CE02B780A2B03D10D212046E36998472046E5
S31508004CF0E36915F8011B98470028D4D00020BDE8C1
S31508004D00F8832046FFF726FEE1680138884238BF57
S31508004D102069D4F830C03CBF00F1FF304018034684
S31508004D209C450BD013F80129112A01D0132A07D163
S31508004D30A2F111035A425A4184F834202063C5E788
S31508004D40994282BF236903F1FF335B18E8E700BF86
S31508004D50A28E0008F0B50C460646154687B03822DE
S31508004D60002120461F4603F025FA95E80300002394
S31508004D702A692376EB6884E80300C4E904232A7DBC
S31508004D80E36084F82C20AA7D2363012384F8343059
S31508004D9084F835300C9B84F82D2023620D9BE7613F
S31508004DA063620E9BA3622B7A84F83630204B3460FC
S31508004DB07360204BB360204B3361204B7361204BEB
S31508004DC0F360FDF79BF930B11E4B984203D01024CF
S31508004DD0204607B0F0BD002104F10800FDF716F9DA
S31508004DE00028F4D10127184B0494CDE9020323695E
S31508004DF0009701936368E2682168207A02F0C8FD8B
S31508004E0004460028E3D195F90830002B0BDB03F0A4
S31508004E101F025B099B0003F16043974003F561435A
S31508004E20C3F880711F603046FFF74EFCD0E700BF1D
S31508004E30954C0008094A00087F7C0008857C000814
S31508004E40FD4B0008038000F09549000830B50E4C6C
S31508004E50416123688BB9206083600DE0891A9A68DE
S31508004E601D4641616AB113465A698A42F6D935B177
S31508004E70A860521A83605A6130BD0025F4E72060A5
S31508004E80F7E798608260F7E77414002038B500F0F9
S31508004E9005FA0025084B094C1A682368C31A2AB173
S31508004EA023B15169994203D3C91A5161206038BDAB
S31508004EB055615B1A9268F2E774140020701400209A
S31508004EC038B5134D2B685B6993B1124A02201468F2
S31508004ED01C4402F02AFF204600F0E8F900230E4998
S31508004EE02A680B70D088800709D501230B7038BD56
S31508004EF0022002F01AFF022000F026FAEEE7926876
S31508004F00002AF4D050690344012BEBD9EFE700BF20
S31508004F1074140020701400200F16002070B5164671
S31508004F209DF81420C0E903360271049ABDF81830BA
S31508004F300260002204460D468260C380EEB900F086
S31508004F40ADF92844A0619DB12E4602F072FD0546D2
S31508004F50FFF79CFF31462046FFF778FF104B1B688A
S31508004F60A34201D1FFF7ACFF284602F066FD02E036
S31508004F70E36865617BB9002070BD00F08FF93044A5
S31508004F80A061002DE0D1E3686561002BDDD02046E5
S31508004F9021689847D9E7204621689847EBE700BF7C
S31508004FA07414002000220C490B687BB183420AD195
S31508004FB083687AB1936083681BB15A6941690A4468
S31508004FC05A61002070471A469B68EEE70028EFD022
S31508004FD0022070470B60EEE77414002070B502F0EB
S31508004FE02FFD144E05463478FCB9134B1C60134B41
S31508004FF01C60134B1C8000F01FF9012002F095FE7F
S3150800500002F0B6FE0F4B0246186020B9284602F099
S315080050101DFD232070BD234640F2E7310A4800F003
S31508005020D3FB0A4B186001233370284602F00EFDA5
S315080050300020EFE7101600207414002070140020DA
S31508005040C41500207814002018FCFFFF6C140020FB
S3150800505038B50C460546A8B1A1B100230B7002F07D
S31508005060EFFC0121084B1B6833B902F0EFFC002066
S3150800507038BD9D4204D121702278002AF9D0F4E780
S315080050809B68F1E72220F3E77414002038B5002165
S31508005090044640F2E730054B4FF47A721D68002348
S315080050A0E5FB040100F090FB38BD00BF7814002032
S315080050B0012300B58DB08DF80F30FFF7E7FF002309
S315080050C00146CDE90033074A0DF10F0304A802F0A3
S315080050D0DFFD18B99DF80F30002BFBD10DB05DF838
S315080050E004FB00BF8B7C0008C2072DE9F047044685
S315080050F00BD54D4A138801339BB21380FFF7C6FEC2
S315080051004A4B1B680BB1FFF7DBFEA30740F18A8009
S3150800511002F096FC4FF0000905464E46FFF7B6FE2C
S31508005120C846424F3C680CB163698BB10022404BBC
S31508005130012E1A7003D119F0020F18BF1E70002C29
S315080051406CD0FFF7BDFE2846BDE8F04702F07EBCEE
S3150800515023465A693AB91A792179914288BF1C4679
S315080051609B68002BF5D1284602F070FC2569DDB155
S3150800517000F094F8A269A0EB02094FEAE9734D45DD
S3150800518078EB030311DA23691344A361E368B4F8DF
S315080051900690013613B120462168984702F050FC64
S315080051A00546FFF773FEBDE7A94602F049FC8246AD
S315080051B02046FFF7F7FE504602F048FC2369002B0D
S315080051C0E4D0B5EB09054FEAE97363EB4303002B1B
S315080051D004DA40F22B51174802F09CFBA38B33B13B
S315080051E0E28B13449BB2B3F57A7F0FD2E38302F0C6
S315080051F027FC814629462046FFF728FEA36922692F
S3150800520048461344A36102F021FCBFE7A3F57A736D
S31508005210E383A369013D013BA361E8E7022000F0AF
S315080052207DF890E7BDE8F087C415002074140020C7
S315080052300E160020E68E000810B50121002486B05F
S315080052403E20ADF80810CDE903448DF804408DF8EA
S315080052500A400594FDF74AFB01A8FFF707F920461F
S3150800526002A98DF80840FFF711F920460F21FFF72C
S315080052703FF90F212046FFF749F9FFF7DDF8FFF759
S31508005280B9F80822034B9C61034BC3F888219A603E
S3150800529006B010BD00800A5000E100E008B5FFF72F
S315080052A0A9F8014B986908BD00800A50F8B504466C
S315080052B002F0BFFB0746FFF79DF8164B9D6902F003
S315080052C030FD06460020FFF72FF9830704D4731B29
S315080052D0032B01D8AE420FD10021631B022B98BFC6
S315080052E0EC1C0846B4F1FF3F2CBF2246621EFFF7AE
S315080052F043F9022002F019FD384602F09EFB064AE1
S31508005300137833B103498B6C43F001038B64002394
S315080053101370F8BD00800A50FF110020830700F0C3
S31508005320010109D50122064B41F002011A70054A0E
S31508005330936C23F0010393640020FFF7D9B800BFEC
S31508005340FF11002000800A50830742BF0222014B4A
S315080053501A64704700900A5010B50446FCF728FBFB
S315080053604FF47A729042B0FBF2F105D23621BDE8CD
S3150800537010400C4802F0CEBA0B4BB3FBF1F30B49C5
S31508005380884201D93C21F2E702FB04F0B0FBF3F0B6
S31508005390022806D9BDE810400323B0FBF3F0FAF75C
S315080053A0E7BE10BD298F000840420F00E7CD9A3BA3
S315080053B081F0004102E000BF83F0004330B54FEAB8
S315080053C041044FEA430594EA050F08BF90EA020F25
S315080053D01FBF54EA000C55EA020C7FEA645C7FEAB8
S315080053E0655C00F0E2804FEA5454D4EB5555B8BFDB
S315080053F06D420CDD2C4480EA020281EA030382EA4C
S31508005400000083EA010180EA020281EA0303362DDD
S3150800541088BF30BD11F0004F4FEA01314FF4801CB0
S315080054204CEA113102D0404261EB410113F0004FC2
S315080054304FEA03334CEA133302D0524263EB430379
S3150800544094EA050F00F0A780A4F10104D5F1200E17
S315080054500DDB02FA0EFC22FA05F2801841F1000172
S3150800546003FA0EF2801843FA05F359410EE0A5F146
S3150800547020050EF1200E012A03FA0EFC28BF4CF077
S31508005480020C43FA05F3C01851EBE37101F000452D
S3150800549007D54FF0000EDCF1000C7EEB00006EEB3A
S315080054A00101B1F5801F1BD3B1F5001F0CD34908C4
S315080054B05FEA30004FEA3C0C04F101044FEA44521B
S315080054C012F5800F80F09A80BCF1004F08BF5FEAA2
S315080054D0500C50F1000041EB045141EA050130BD82
S315080054E05FEA4C0C404141EB0101013C28BFB1F594
S315080054F0801FE9D291F0000F04BF01460020B1FADF
