S01400004C5048525F536F6674776172652E73333700
S3150800000000100020410900085D5400085D540008EE
S315080000105D5400085D5400085D5400085D540008EE
S315080000205D5400085D5400085D5400085D540008DE
S315080000305D5400085D5400085D5400085D540008CE
S315080000405D5400085D5400085D5400085D540008BE
S315080000505D5400085D5400085D5400085D540008AE
S315080000605D5400085D5400085D54000865070008E3
S31508000070655300085D5400085D5400085D54000887
S315080000805D5400085D5400085D5400085D5400087E
S315080000905D540008551300085D5400085D540008B7
S315080000A05D5400085D5400085D5400085D5400085E
S315080000B05D5400085D5400085D5400085D5400084E
S315080000C05D5400085D5400085D5400085D5400083E
S315080000D05D5400085D5400085D5400085D5400082E
S315080000E05D5400085D5400085D5400085D5400081E
S315080000F05D5400085D5400085D5400085D5400080E
S315080001005D5400085D5400085D5400085D540008FD
S315080001105D5400085D5400085D5400085D540008ED
S315080001205D5400085D5400085D5400085D540008DD
S315080001305D5400085D5400085D5400085D540008CD
S315080001405D5400085D5400085D540008AF58000867
S315080001505D5400085D5400085D5400085D540008AD
S315080001605D5400085D5400085D5400085D5400089D
S31508000170013800D0FCE770470348044B834202D09D
S31508000180034B03B1184770479C1000209C100020B1
S3150800019000000000064B0749C91A891048BF0131FB
S315080001A0491003D0044B0BB101481847704700BFEC
S315080001B09C1000209C1000200000000010B5064C82
S315080001C0237843B9FFF7D8FF044B13B10448AFF3BC
S315080001D000800123237010BD5A140020000000007F
S315080001E07465000808B5054B1BB105490548AFF30A
S315080001F00080BDE80840FFF7CDBF00BF0000000043
S315080002009C10002074650008A3F5803A704700BF6B
S31508000210174B002B08BF134B9D46FFF7F5FF002130
S315080002208B460F461348144A121A05F069FC0E4B02
S31508000230002B00D098470D4B002B00D09847002084
S31508000240002104000D000D48002802D00C48AFF329
S31508000250008004F0ABFC2000290005F03BF804F010
S3150800026085FA00BF0000080000000000000000003A
S31508000270001000209C1000208814002000000000B8
S315080002800000000010B5124C204604F037FB114858
S3150800029004F034FB204604F031FB00F02DF900F0A1
S315080002A023F8204604F02AFB0B4804F027FB2046D7
S315080002B004F024FB094804F021FB094804F01EFB5E
S315080002C0084804F01BFB2046BDE8104004F016BBA6
S315080002D0E05E0008105F0008345F00084A5F000807
S315080002E07A5F0008A25F0008022310B5502088B084
S315080002F08DF8003003F02AFF124B03A9039301235C
S31508000300ADF8143001AB06930823ADF81C300E4B3C
S31508000310CDF810D0186800F079FD04469DF8041051
S315080003200A4804F0D9FA1CB17521094805F0AAF85B
S315080003309DF80430212B03D07821054805F0A2F852
S3150800034008B010BDE800040014100020BB5F0008C8
S31508000350D65F00080122014B1A7070475B14002013
S315080003604378027803F0FC0303EB022307EE103A06
S31508000370DFED0D7AB8EEC77ADFED0C6A27EE277A3D
S31508000380DFED0B7A57EE267AF5EEC07AB6EE007AEE
S31508000390F1EE10FA4CBF77EEC77A77EE877AFCEE65
S315080003A0E77A17EE900A704752B82F430000803755
S315080003B066663B42F5232DE9F04389B08DF8073090
S315080003C0284B294E0393022305460DF1070730688B
S315080003D003A90497ADF8143000F018FD18B1B6213A
S315080003E0224805F04FF84FF4FA744FF00209DFF887
S315080003F08880013C22D202A804F076FF1C4B03A990
S315080004001860E0238DF807301A4B3068CDE90337BA
S315080004100123ADF8143002AB06930223ADF81C3065
S3150800042000F0F4FC18B1CC21104805F02BF802A80E
S31508000430FFF796FF286009B0BDE8F08302AB306885
S3150800044003A9CDF80C800493ADF8149000F0DEFCF7
S315080004500028CED1002CCED1C421044805F012F8CC
S31508000460C9E700BF8000010014100020DE5F000805
S31508000470E4100020800004008000020010B5064C3D
S315080004802046FFF797FF2368044A991E1160044A1D
S315080004900233136010BD00BFDC100020D41000200A
S315080004A0D810002008B50E4B1B6883420ADA0D489F
S315080004B005F003F80C4805F003F80C48BDE80840B9
S315080004C004F01CBA0A4B1B68834207DD054804F092
S315080004D0F7FF054804F0F1FF0648EFE708BD00BF3F
S315080004E0D8100020C0600008A8600008E65F000871
S315080004F0D4100020F85F00084CF6FC1310B5502005
S315080005008AB0ADF8083003F021FE1B4B05A9059308
S3150800051002AB06930223ADF81C3003AB08930823FD
S31508000520ADF82430154B186800F070FC04469DF8A9
S315080005300C10134804F0D0F924B140F227111148E1
S3150800054004F0A0FF9DF80C30152B04D04FF49571DC
S315080005500C4804F097FFFFF791FF4FF47A7003F009
S31508000560E3FD00230146CDE90033074A074805F0B5
S315080005706CF90AB010BD00BF8000040014100020FA
S315080005800A600008DE5F000855030008B410002062
S3150800059038B50C4D2B78A3B10B4C2046FFF70AFF54
S315080005A00A4804F0ABF90A4B0A48196804F094F9AA
S315080005B02168094804F090F92068FFF773FF0023C3
S315080005C02B7038BD5B140020E0100020485F00083F
S315080005D0E4100020256000084160000810B5274C8B
S315080005E001F022FC01F04AFE236F23F0070343F0D3
S315080005F00303236704F0C6FF214B00209B6ADB0137
S315080006005EBF4FF480321F4B9A62D4F8203123F034
S31508000610070343F00203C4F82031D4F8283123F045
S31508000620070343F00203C4F82831D4F8403123F015
S31508000630030343F00203C4F84031D4F8603123F0D1
S31508000640030343F00203C4F86031D4F8403223F0C0
S31508000650030343F00203C4F84032D4F8003223F00F
S31508000660070343F00203C4F80032D4F8083223F033
S31508000670070343F00203C4F8083210BD0080005097
S315080006800040005A0060005A08B53A20012101F0DE
S315080006907BF9BDE80840014800F00CBB00100020BB
S315080006A030B5294D9DB008AC0FCD0FC495E80F00A5
S315080006B084E80F002A2200210DF1460005F020FAF1
S315080006C0224B0124109356231293082315930923CA
S315080006D017930523199303230E2200210DF1120007
S315080006E08DF845408DF860408DF8443005F008FADD
S315080006F04FF47020164B08AACDE902030B238DF898
S3150800070010300C238DF81130124B13480593202313
S315080007100693124B02A9009310AB8DF81D4003F007
S3150800072039F8044618B17C210D4804F0ABFE9DF853
S315080007301E304FF4E130002B0CBF0321002104F0DA
S315080007407EFE20461DB030BD886000080000015BB3
S315080007503C00015B5C1400204C110020E8100020CE
S3150800076057600008014804F0F0BF00BF4C11002094
S3150800077008B5044804F09EFEBDE80840024804F0A7
S3150800078099BE00BFC0600008A8600008082808B520
S315080007900ADC00280EDD013807280BD8DFE800F050
S315080007A00C140A1A0A0A0A1C202819D0402819D03B
S315080007B0102813D0D82108E0032101230846042273
S315080007C002F0EAF9002008BD9221074804F05AFE13
S315080007D00E20F8E79F21F8E7AC21F6E7B921F4E700
S315080007E0C621F2E7D321F0E7D86000081022024BB1
S315080007F0C3F8A020704700BF00D003501022024B58
S31508000800C3F8A020704700BF00E0035070B5404D04
S3150800081088B001AC0FCD0FC495E8070084E807003F
S31508000820012401213A2001F0AFF83A4E012129208E
S3150800083001F0AAF8384B304601A903938DF8124007
S3150800084002F0CEFD234621460422022002F0A4F936
S31508000850022122460846002302F09EF92346042276
S315080008600321022002F098F90422234611460220A9
S3150800087002F092F9294D2A4B4FF44870C5F83437DF
S315080008804FF00213C5F83037A3F58033C5F838376B
S315080008901C23C5F8203703F0ADFD1420FFF7AEFF83
S315080008A003F0A8FD2320FFF7A1FF03F0A3FDB9215C
S315080008B03046FFF7A3FF04F0BFFEFFF797FF0023BC
S315080008C021461A46022002F067F9002302211A4639
S315080008D0084602F061F9234600220321022002F0AD
S315080008E05BF9234600220421022002F055F930461E
S315080008F002F04AFD00212920C5F83417C5F830173B
S31508000900C5F83817C5F8201701F03EF808B070BDCD
S315080009101861000800C0055000127A0000C0035094
S31508000920020003000348044A0449121A921004F00C
S3150800093096BD00BF246600082466000888140020B7
S3150800094008B500F02FF8FFF7EDFF124B12498B425E
S3150800095012D30020114B12498B4218D3FFF758FCCB
S31508000960186850F82240586840F8224001329868C2
S315080009708242F5D30C33EAE70022F8E71C6844F80C
S31508000980220001325C68A242F8D30833E4E7002269
S31508000990F8E700BF7C6500088865000888650008D8
S315080009A0886500084FF480414FF0FF30114B124A1A
S315080009B010B59A60D3F8882042F47002C3F88820EC
S315080009C00E4A91660E4901F5005210660D485066AA
S315080009D00220C3F8D000BFF34F8FBFF36F8F0124F7
S315080009E04FF440330848C0F88041D36004600B6177
S315080009F010BD00BF00ED00E00000000800900050A8
S31508000A0000800044F7FF370000E100E0014B18685A
S31508000A10704700BF1C100020084B1B6F03F007032C
S31508000A20022B04D0032B05D0012B05D0FEE7044B7F
S31508000A3018687047034BFBE703487047008000506F
S31508000A401C10002024100020002D310108B5FFF7E6
S31508000A50E3FF054B1B6FC3F303330133B0FBF3F01E
S31508000A60024B186008BD00BF008000501810002017
S31508000A700048704700B4C404014B1868704700BFAB
S31508000A8024100020054B1860054B1B6F03F0070365
S31508000A90032B01D1FFF7DABF704700BF24100020EF
S31508000AA00080005000487047002D31014FF0B443D4
S31508000AB09868C0F304400C280AD8DFE800F00B0950
S31508000AC009090909072119091B1D1F000F48704745
S31508000AD0002070479B6803F04073B3F1807F11D004
S31508000AE0B3F1007F10D00A4A002B08BF10467047A2
S31508000AF008487047084870470848704708487047CC
S31508000B00084870470848704708487047405DC6005F
S31508000B1000093D00C0EA210180BA8C010048E801BD
S31508000B20005A62020024F40080841E0040420F002E
S31508000B30014B1868704700BF201000200346054A7D
S31508000B400549106803448B428CBF4FF0FF30136091
S31508000B50704700BF281000200000042008B50121B6
S31508000B603A2000F011FF012304220321002002F09D
S31508000B7013F8002004F05FFD0122354B3549C3F810
S31508000B8044244FF40022A3F550335A66324BD3F867
S31508000B90FC20D20146D4D1F8803023F0030343F079
S31508000BA00203C1F880304FF4607000F015FF2A4B3D
S31508000BB000F5D520D3F8F02000F2FC4042F00102FF
S31508000BC0C3F8F020D3F8FC2042F08072C3F8FC206A
S31508000BD0224AA3F55D431A60214B0222B0FBF3F0CB
S31508000BE0204B01381861C3F8F0204FF48072C3F81F
S31508000BF004234FF060431C4A0020C3F8B02F1B4A59
S31508000C00C3F8802ED3F8002E42F48072C3F8002E63
S31508000C10FF2283F82020D3F8002E22F48072C3F82E
S31508000C20002E08BDD3F8FC2022F08072C3F8FC2001
S31508000C30D1F8802022F0030242F00202C1F8802097
S31508000C40D3F8FC2042F08072C3F8FC20ABE700BF63
S31508000C5000D003500080005000ED00E0FF03004084
S31508000C60F8590D00000004E055CEACC50900010096
S31508000C704FF06043D3F8802E30B5D20715D501243E
S31508000C800B4D8440D5F8FC2042F08072C5F8FC2054
S31508000C90D3F8002E2243C3F8002E53F82020002A4A
S31508000CA0F0D003F82010002030BD1120FCE700BF6B
S31508000CB000ED00E02DE9FF47044618B939214D48F3
S31508000CC004F0E0FB2368B3F1B64F09D04A4A9342D1
S31508000CD07BD04F21474804B0BDE8F04704F0D2BBAB
S31508000CE02E20012100F050FE01230A226179207985
S31508000CF001F052FF01230A22E179A07901F04CFFA5
S31508000D000A27DFF80081DFF800913C4D267994F830
S31508000D1005A0032E05D839F8163023FA0AF3DA07A0
S31508000D2004D440F2FE31404604F0ACFB30220123E5
S31508000D3002FB065603FA0AF306F5015633606420E9
S31508000D4003F058FB267994F805A0032E06D82C4BF9
S31508000D5033F8163023FA0AF3DB0704D440F22D41A0
S31508000D60404604F08FFB3022012302FB065603FAA5
S31508000D700AF306F582566420336003F03BFB013F15
S31508000D80C4D12068B0F1B64F21D10323C5F8E834A1
S31508000D906279237943EA0243C5F8EC34E279A37908
S31508000DA043EA0243C5F8F03440F20113ADF80030C7
S31508000DB0E36869460293A3680193237C8DF80C3097
S31508000DC001F0D4FF04B0BDE8F0872F2089E70A4B6D
S31508000DD09842E9D10323C5F8F8346279237943EABE
S31508000DE00243C5F8FC34E279A37943EA0243C5F81D
S31508000DF00035D9E7346100080080065000C003506A
S31508000E00D66100086E610008D661000838B5054647
S31508000E1002F0F0F8044C012801D1013C00D138BD9C
S31508000E20284601F0D5FFF6E7E1930400032838B514
S31508000E3004460D4605D8094B33F81030CB40DB077E
S31508000E4004D440F2FE31064804F01CFB302301228C
S31508000E505C43044BAA401A5138BD00BFDE61000846
S31508000E606E61000840E00350032838B504460D4675
S31508000E7005D8094B33F81030CB40DB0704D440F2D1
S31508000E802D41064804F0FEFA302301225C43044B48
S31508000E90AA401A5138BD00BFDE6100086E6100081D
S31508000EA040D0035038B504784578032C05D8094B4B
S31508000EB033F81430EB40DB0704D44FF48961064855
S31508000EC004F0E0FA302301225C43044BAA401A518D
S31508000ED038BD00BFDE6100086E61000840F00350AF
S31508000EE070B505780446032D467805D80C4B33F8BB
S31508000EF01530F340DB0704D44FF48361094804F046
S31508000F00C1FA1022302313FB0523074A9B58F340E6
S31508000F1003F00100A3780BB980F0010070BD00BF93
S31508000F20DE6100086E61000830C003502DE9F04FFD
S31508000F309A46564B85B01B7806460F461546DDF889
S31508000F403C909DF844B0DDF85080002B00F0978067
S31508000F50072A00F296800E9B002B00F09280B9F1CA
S31508000F60000F00F08E80129BB3F5006F00F38980A6
S31508000F70012803D1109B002B00F08380444B03EB20
S31508000F8005131B7B002B7ED0424C1022002168469D
S31508000F9004F0B6FD04EB45141022A7BB39462046DB
S31508000FA004F0AEFD43F210036380BBF1000F03D1DA
S31508000FB0E37843F00303E370364A0E9B02EB451CC5
S31508000FC0CCE90193129B6901581E9DF84C30C0F379
S31508000FD00A0003F003039B0643EA001E53582E48F3
S31508000FE0012E00EA03004EEA0003CDF800A0535094
S31508000FF017D0B8F1000F2ED19CF8023068F304130D
S315080010008CF8023027E00021204604F079FD4FF4E1
S3150800101044736380BBF1000FCED1E37843F030030D
S31508001020C9E713230CF1100ECCF80C309CE80F001E
S315080010308EE80F006FF00301DCF81C20109B61F3AB
S315080010409F02012FCCF81C20CCF8143003D1CCF821
S315080010501890CCF8043000270D4A290102EB051335
S3150800106042F80180159A28465A60694622469F60CA
S315080010705E7302F0A5F8384605B0BDE8F08F07485C
S31508001080FAE70748F8E70748F6E700BF7C140020A8
S3150800109064120020641100200F80FFF3028000F024
S315080010A0018000F0078000F038B5124B05461B7822
S315080010B0DBB1E0B104F082FA0F4A00231146147B33
S315080010C054B92B6001251A0101EB03131D738C50CB
S315080010D004F07AFA204638BD0133082B02F11002D3
S315080010E0EDD104F071FA0548F5E70548F3E7054838
S315080010F0F1E700BF7C14002064120020048000F091
S31508001100028000F0018000F038B504F057FA002399
S3150800111005460B4A147B6CB90133082B02F1100201
S31508001120F8D101F0C5FF074B28461C7004F04CFAAD
S31508001130204603E0284604F047FA034838BD00BFB6
S31508001140641200207C140020058000F00D4B10B5B9
S315080011501B78044693B1072812D804F02FFA0A4BD5
S3150800116003EB04131A7B2AB100241C7304F02CFA2F
S31508001170204610BD04F028FA0448FAE70448F8E7C0
S315080011800448F6E77C14002064120020068000F06C
S31508001190028000F0018000F0154B13B51868002393
S315080011A001908DF8043004F009FA124B1C7824B12A
S315080011B004F00AFA104802B010BD01221A7004F0B1
S315080011C003FA0E4B01A81C731C7783F82C4083F88E
S315080011D03C4083F84C4083F85C4083F86C4083F8C5
S315080011E07C4008238DF8073001F0A0FF2046E2E78F
S315080011F0E66100087C140020038000F064120020D9
S315080012000A4A08B512785AB107280BD8084A02EBD9
S3150800121000131B7B43B1002101F068FF002008BDC5
S315080012200448FCE70448FAE70448F8E77C14002079
S3150800123064120020028000F0018000F0078000F0B0
S315080012400A4A08B512785AB107280BD8084A02EB99
S3150800125000131B7B43B1012101F048FF002008BDA4
S315080012600448FCE70448FAE70448F8E77C14002039
S3150800127064120020028000F0018000F0078000F070
S315080012800A4A08B5127852B107280AD8084A02EB62
S3150800129000131B7B3BB102F015F8002008BD05487A
S315080012A0FCE70548FAE70548F8E700BF7C14002084
S315080012B064120020028000F0018000F0078000F030
S315080012C00D4B1B7893B1072812D889B10B4B03EB4A
S315080012D000131B7B73B10A4B1A6D0123834013421B
S315080012E014BF0123002300200B7070470548704780
S315080012F005487047054870477C1400206412002092
S3150800130000000450028000F0018000F0078000F021
S315080013100B4A10B512780C4662B107280CD859B199
S31508001320084A02EB00131B7B43B101F0E7FF20706C
S31508001330002010BD0448FCE70448FAE70448F8E72B
S315080013407C14002064120020028000F0018000F066
S31508001350078000F0184B2DE9F0411F6D5B6D1F40AB
S3150800136000D5FEE701260025144CDFF858803742E1
S3150800137018D02368C8F85060A3B1A168284601317F
S315080013806268A1609847637B012B0BD150B90C4B5F
S3150800139003EB45131A7B60F341021A731A7F60F355
S315080013A041021A770135082D4FEA460604F1100462
S315080013B0DDD1BDE8F08100BF0000045064120020B2
S315080013C06411002000200450044BD3F88420D20670
S315080013D0FBD4D3F88400C0F3811070470040005056
S315080013E038B5124B0546D3F880300C4603F0030394
S315080013F0022B0BD0032B0DD0012B0FD1FFF70CFBC3
S315080014000E2305B1286004B1236038BDFFF74EFBF3
S315080014100723F6E7FFF7FAFA0623F2E7044841F24C
S31508001420DF1104F02FF800231846EAE70080005081
S31508001430EA61000838B51A4B0546D3F820010C4670
S3150800144000F00700062821D8DFE800F028040C146D
S3150800145010181C00FFF7DAFA052305B1286004B155
S31508001460236038BDFFF708FB0323F6E7FFF71EFBEB
S315080014700723F2E7FFF716FB0223EEE7FFF7C6FAA4
S315080014800623EAE7FFF7F8FA0423E6E7054841F2F8
S315080014905C2103F0F7FF00231846DEE70123DCE7AB
S315080014A000800050EA61000838B5194B0546D3F8A4
S315080014B028310C4603F00703013B052B20D8DFE84B
S315080014C003F003131B0F0B17FFF7A0FA052305B14B
S315080014D0286004B1236038BDFFF798FA0623F6E7BB
S315080014E0FFF7E4FA0723F2E7FFF7C6FA0323EEE766
S315080014F0FFF7C2FA0423EAE7FFF7D4FA0223E6E77E
S31508001500044841F2640103F0BDFF00231846DEE7F4
S3150800151000800050EA610008F7B50027144B0197D0
S31508001520D3F88041064604F00304022C0D4614D075
S31508001530032C0DD0012C14D1394601A8FFF77AFFE8
S3150800154010240EB1019B336005B12C6003B0F0BDC9
S31508001550FFF7ACFA07240190F3E7FFF7A3FA019027
S31508001560EFE741F2B131034803F08CFF3C46E8E768
S3150800157000800050EA610008002337B50193194B33
S315080015800546D3F820320C4603F00703042B1FD870
S31508001590DFE803F025030F141900002101A8FFF75F
S315080015A083FF12230DB1019A2A6004B1236003B0A8
S315080015B030BDFFF77BFA07230190F3E703F05CFFE2
S315080015C00A230190EEE7FFF7B3FA09230190E9E74A
S315080015D041F22301044803F055FF0023E2E7012303
S315080015E0E0E700BF00800050EA61000838B5104BFC
S315080015F00546D3F840310C4603F00303022B0BD003
S31508001600032B0DD0012B0FD103F036FF0A2305B1AA
S31508001610286004B1236038BDFFF78AFA0923F6E784
S3150800162003F02DFF0C23F2E701230020EFE700BFAC
S3150800163000800050002337B50193184B0546D3F8B0
S3150800164060320C4603F00703013B032B1FD8DFE883
S3150800165003F0020E1914002101A8FFF7EBFE102370
S315080016600DB1019A2A6004B1236003B030BD002190
S3150800167001A8FFF7BBFF1123F2E7FFF717FA0723C5
S315080016800190EDE7FFF70EFA02230190E8E741F231
S31508001690C801034803F0F6FE0023E1E70080005086
S315080016A0EA610008002337B50193184B0546D3F8BD
S315080016B094320C4603F00703013B032B1FD8DFE8DF
S315080016C003F0020E1914002101A8FFF7B3FE102338
S315080016D00DB1019A2A6004B1236003B030BD002120
S315080016E001A8FFF783FF1123F2E7FFF7DFF90723C6
S315080016F00190EDE7FFF7D6F902230190E8E741F2FA
S31508001700FB01034803F0BEFE0023E1E7008000501A
S31508001710EA61000873B500240F4B0194D3F87032C0
S31508001720064603F00303012B0D4607D0022B11D002
S3150800173041F22611094803F0A5FE04E0214601A856
S31508001740FFF754FF11240EB1019B336005B12C60DD
S3150800175002B070BD1524F6E700800050EA61000863
S3150800176038B5164B0546D3F800020C4600F00700BC
S31508001770042819D8DFE800F020030B0F130003F044
S315080017807BFE0A2305B1286004B1236038BDFFF744
S31508001790CFF90923F6E703F072FE0C23F2E7FFF709
S315080017A055F90F23800AEDE7054841F26F4103F02A
S315080017B069FE00231846E5E70123E3E700800050A9
S315080017C0EA61000838B5164B0546D3F808020C46F8
S315080017D000F00700042819D8DFE800F020030B0FF3
S315080017E0130003F049FE0A2305B1286004B12360FB
S315080017F038BDFFF79DF90923F6E703F040FE0C23F1
S31508001800F2E7FFF723F90F23800AEDE7054841F2CF
S31508001810A74103F037FE00231846E5E70123E3E76F
S3150800182000800050EA61000838B5104B0546D3F829
S3150800183040320C4603F00303022B0BD0032B0DD0CA
S31508001840012B0FD103F018FE0A2305B1286004B155
S31508001850236038BDFFF76CF90923F6E703F00FFE9E
S315080018600C23F2E701230020EFE700BF00800050B9
S3150800187038B5104B0546D3F860310C4603F0030320
S31508001880022B0BD0032B0DD0012B0FD103F0F4FD47
S315080018900A2305B1286004B1236038BDFFF748F96B
S315080018A00923F6E703F0EBFD0C23F2E701230020FA
S315080018B0EFE700BF00800050B0F5207F10B52ED0AE
S315080018C009D8B0F5007F24D003D868B1B0F5C07F39
S315080018D00AD000241BE0B0F5607FFAD1124BD3F88A
S315080018E08040C4F3011412E00F4B1C6F230B13F056
S315080018F00E0FC4F303340AD0072C08D00F2C06D0D9
S31508001900032C04D040F28521084803F0BBFD601C77
S3150800191010BD054BD3F89040C4F30464F7E7024BB7
S315080019201C6FC4F38024F2E700800050EA610008C7
S315080019304FF4803238B5104B04469A6600200D469F
S31508001940FFF7BAFF41F671320C4B6043DC69DA6384
S315080019505A6804F4803422F440125DB90849884272
S3150800196094BF00200120000502435A600CB10022F2
S31508001970DA6338BD0349F2E70090005000000350CF
S31508001980005A6202002D310138B5430904460D4656
S315080019900ED140F22F310D4803F074FD002304F0F8
S315080019A01F0485B103F580530122A2401A6038BD91
S315080019B0012B04D0022B04D040F23D31EBE7044B57
S315080019C0EDE7044BEBE703F50053EDE7EA610008A2
S315080019D06480005068800050002130B5802885B0AA
S315080019E00446CDE9001100F09F8035D85E2846D818
S315080019F05E2844D8DFE800F09E434343434343430D
S31508001A004343434343434343434343434343434398
S31508001A1043434343434343439EAB9EABBBBBBBBB22
S31508001A20BBABC550DB7450ABABAB434343434343FB
S31508001A304343ABABAB7CE5AB4343434343434343ED
S31508001A404343434343BB9E9E9EE05050EA8B61C08E
S31508001A504343434343939E00B0F5B06F00F0918033
S31508001A6030D8B0F5207F72D00FD8B0F5C07F61D0DE
S31508001A70B0F5007F61D0B0F5807F00F0878040F236
S31508001A809441554803F0FEFC51E0B0F5607F69D0FB
S31508001A900DD8B0F5407FF2D1FEF7D8FF04464FF4D3
S31508001AA02070FFF709FFB4FBF0F4640858E0B0F5BE
S31508001AB0806F5CD0B0F5A06FE1D100216846FFF7D2
S31508001AC05BFD34E0B0F5106F76D016D8B0F5E06F50
S31508001AD077D00AD8B0F5C06F69D0B0F5D06FCED13F
S31508001AE000216846FFF73CFE21E0B0F5F06FC6D14D
S31508001AF000216846FFF7BCFE19E0B0F5406F3BD001
S31508001B000AD8B0F5206F61D0B0F5286FB7D100219B
S31508001B106846FFF7FFFD0AE0B0F5486FAFD1002130
S31508001B206846FFF7BFFD02E0FEF776FF00900098D3
S31508001B3005B030BDFEF78AFFF8E7FEF76DFF0546EC
S31508001B402046FFF7B9FEB5FBF0F50095EFE7FEF77F
S31508001B507DFF04464FF42070FFF7AEFEB4FBF0F4A9
S31508001B600094E4E701A8FFF73BFC019DE8E70021A4
S31508001B706846FFF75FFCDAE700216846FFF794FC42
S31508001B80D5E700216846FFF7C7FCD0E74FF0E0230A
S31508001B9002911B695B0705D5FEF758FF0290029B69
S31508001BA00093C4E703A902A8FFF720FDF7E7002181
S31508001BB06846FFF71BFDBAE700216846FFF702FEF5
S31508001BC0B5E700216846FFF72FFEB0E70021684613
S31508001BD0FFF730FDABE700BFEA61000808B58020D3
S31508001BE0FFF7FAFE034B98429EBF4FF48032024B32
S31508001BF01A6708BD005A620200A000501FB50346C6
S31508001C000020B3F5807F019000F0C28063D85D2B79
S31508001C1054D84C2B06D82D2B46D8232B2AD840F23D
S31508001C207951A4E04D3B102BF9D801A252F823F0C4
S31508001C30871D00081F1C00081F1C00081F1C000821
S31508001C40391D00081F1C00081F1C00080B1E000871
S31508001C50571D0008FD1C0008011E00081F1C00086F
S31508001C601F1C00081F1C00081F1C00081F1C00085A
S31508001C70151E0008243B092BD1D801A252F823F0DF
S31508001C80871D0008871D0008871D0008871D000896
S31508001C90871D00081F1C0008771D00081F1C000868
S31508001CA0191D0008BD1D00083D2B00F082803E2B43
S31508001CB0B5D1002001A9FFF7B7FD60E0802BAED1B2
S31508001CC0574B1B6F03F00703013B032B4DD8DFE887
S31508001CD003F04A47878FB3F5F06F6AD021D8B3F57A
S31508001CE0B06F48D00FD8B3F5607F00F0858096D3E3
S31508001CF0B3F5806F47D0B3F5A06F90D1002001A946
S31508001D00FFF73AFC3BE0B3F5D06F57D0B3F5E06F79
S31508001D10CFD0B3F5C06F82D1002001A9FFF766FCCA
S31508001D202DE0B3F5206F70D00BD8B3F5086F4AD005
S31508001D30B3F5106F7FF473AF002001A9FFF742FDDA
S31508001D401DE0B3F5406F5BD0B3F5486F62D0B3F5CD
S31508001D50286F7FF464AF002001A9FFF7DBFC0EE0D3
S31508001D60052301930BE00223FBE740F2C6412D4809
S31508001D7003F088FB03E0002001A9FFF7CDFB0198DB
S31508001D8005B05DF804FB002001A9FFF753FBF6E751
S31508001D904FF0E02302901B695B0705D5FEF756FE58
S31508001DA00D230393039BDCE703A902A8FFF71EFC98
S31508001DB0F8E7002001A9FFF75BFDE0E7002001A98D
S31508001DC0FFF7CEFCDBE7164BD3F8003103F003032D
S31508001DD0022B07D0032B09D0012B0BD1FEF74CFEA3
S31508001DE00323BEE7FEF7A4FE0923BAE703F042FB86
S31508001DF00823B6E70123B4E701A9FFF7F1FABEE71E
S31508001E00002001A9FFF750FBB9E7002001A9FFF759
S31508001E1011FCB4E7002001A9FFF744FCAFE700BFB7
S31508001E2000800050EA6100084FF48012034B5A669E
S31508001E304FF48032024B9A62704700BF0090005000
S31508001E400050005A38B5036804460F2B04D940F6EB
S31508001E506D317C4803F016FB63680F2B04D94FF4E9
S31508001E603761784803F00EFBA3680F2B04D940F6B8
S31508001E707331744803F006FB237B0F2B04D940F615
S31508001E807631704803F0FEFA637B0F2B04D940F6CF
S31508001E9079316C4803F0F6FAA37B3F2B04D940F658
S31508001EA07C31684803F0EEFAE37B3F2B04D940F611
S31508001EB07F31644803F0E6FA2369032B04D940F618
S31508001EC08231604803F0DEFA6369032B04D940F6D1
S31508001ED085315C4803F0D6FAE369032B04D940F64A
S31508001EE08831584803F0CEFA8020FFF787FE03288A
S31508001EF000F083804FF48012534B4FF0A0615A666E
S31508001F0045F60E02514BC3F88020514A91624FF4B0
S31508001F10803102F5805291629A6DD203FCD4996D94
S31508001F2011F08041FBD1D4E90002120542EA0062B1
S31508001F30E07B0243207B42EA0042607B42EA0032B1
S31508001F40A07B42EA80121A619869D4E90452120603
S31508001F5042EA856200F000400243A07EE57E024325
S31508001F60207E42EA0042607E42EA00229A611A6AAC
S31508001F70E06922F00F0242EA8502364D00283DD17B
S31508001F801A6294F82420996A94F82000D20029400D
S31508001F9042EA40120A4394F8211042EA011242F436
S31508001FA080329A622C49294A936D31EA0303FBD1A0
S31508001FB04FF08071264881621369A56823F470037F
S31508001FC043EA055313614FF00043836194F82230C6
S31508001FD00BB9224B996294F823303BB94FF48032FF
S31508001FE01E4B9A62194A936D5B00FCD494F825300F
S31508001FF01BB1164B1A4AC3F8802038BD024342F07B
S31508002000080202281A6208D119614FF40852996128
S3150800201014484FF47F4103F093FA0C4994F82230A0
S315080020208A6A94F820001B062A4043EA40131343A1
S3150800203094F8242043EAC20394F8232043EA02438F
S315080020408B62D3E7EA610008009000500040005A0E
S315080020500050005AC7FFFEFE030001000060005A48
S31508002060F1A7FFFF3440005A014B93F9000070476F
S3150800207092100020436810B5072B044604D940F691
S31508002080B3512A4803F0FEF9A368032B04D940F696
S31508002090B551264803F0F6F92378032B04D940F600
S315080020A0B751224803F0EEF994F90130002B04DA0F
S315080020B040F6B9511D4803F0E5F94FF400011C4AF2
S315080020C0637851664FF4D151022002F5B832516255
S315080020D018494F2B48604FF0010028BF4F2301F5E0
S315080020E0805148601169C903FCD4217843EA012369
S315080020F05361D4E901131B0143EA0123617B0B43B6
S31508002100217B43EA41039360E37BA17B1B0143EAFE
S315080021104113617C0B43217C43EA41035360A37C52
S3150800212013B16FF4D153536210BD00BFEA610008C2
S315080021300090005000100250014B1880704700BFF5
S315080021408A100020014B1880704700BF88100020B5
S31508002150B0F5207F38B577D00ED8B0F5007F61D0BE
S3150800216003D890B3B0F5C07F2FD040F21231BDE846
S3150800217038403D4803F086B9B0F5607FF5D13B4A53
S315080021804C1ED2F8FC5015F080751EBFD2F8FC30F4
S3150800219023F08073C2F8FC30032C04D940F2F221F4
S315080021A0314803F06FF9324AD2F8803023F0300311
S315080021B043EA0413C2F8803035B12C4AD2F8FC3011
S315080021C043F08073C2F8FC3038BD4C1E012C0AD986
S315080021D0102903D8274BCB40DB0704D440F2C7218C
S315080021E0214803F04FF903F0BAF903F0C6F94FF4A2
S315080021F08031214B1E4A1967136F23F4704343EA53
S3150800220004331367FEF722FC0446FFF7DDF8C0F136
S315080022100201204603F0ABF900F040F8BDE838406B
S31508002220FFF7DCBC4C1E1F2C04D940F206310E48C1
S3150800223003F028F90E4AD2F8903023F0F85343EA0F
S315080022400463C2F89030BFE74C1E012C04D94FF442
S315080022504371054803F016F9054A136F23F48063A2
S3150800226043EA84231367AFE7EA61000800ED00E05C
S3150800227000800050100101000090005008B50121AF
S31508002280022000F02FF803F06AF903F076F94FF40C
S315080022908032014B1A6708BD0090005008B54FF40C
S315080022A0C070FFF799FBBDE808400449884294BF0F
S315080022B0012102214FF42070FFF74ABF80F0FA028D
S315080022C0024A536B0342FCD1704700BF00400950D5
S315080022D0034A0179D36E23F030030B43D366704764
S315080022E000400050F8B50446244BD3F88420D006A5
S315080022F0FBD4D3F88430C3F381139C423CD0FEF759
S315080023008BFB012C05460BD11D4B984204D940F294
S3150800231081711C4803F0B6F80121284603F027F915
S3150800232003F045F94FF00072174B07465A662046E8
S3150800233003F04DF94FF48063104E621E93403367E5
S31508002340736E9A0103D4D6F884309B060AD53846AC
S3150800235003F031F9022C0FD12846BDE8F8400021D8
S3150800236003F005B9D6F884309906E9D540F28F719D
S31508002370044803F087F8E3E7F8BD00BF00400050C3
S31508002380005A6202196200080060005010B50C4637
S3150800239008B9FEF741FB074B21461B783BB1064BB4
S315080023A0984204D80120BDE81040FFF79BBF0220E1
S315080023B0F9E700BF7D140020005A62024FF0004280
S315080023C038B5244B244C5A664AF6CD33656C01461B
S315080023D005F00105236428BB0120FFF771FF636838
S315080023E0DB0715D51D4B586008461D4B226BD207D7
S315080023F00CD4984208D1072415B1174B194A1A6408
S3150800240003F0E6F8204638BD0130EFE79842F2D0EF
S315080024100024F1E70132236B13F0080305D08A4242
S31508002420F8D1E8E700220E49F5E78A42E3D02021F1
S315080024300A4A91620121A2F5805251600649084A6A
S31508002440886A800603D49342D5D00133F8E79342CD
S31508002450DDE700BF009000500040095000600950B9
S3150800246040420F003254FFFF4FF0004238B5164B7A
S3150800247001465A664AF6CD33144C154A656C2364F0
S3150800248043780B205B0043F00103D363FFF718FF83
S3150800249063688A7823F4F87343EA02136360CA7898
S315080024A04B7943EA0223A3600A798B7943EA02232C
S315080024B023610878FFF782FFEB0744BF054B2364C7
S315080024C003F086F8012038BD0090005000400950FE
S315080024D0004000503254FFFF0F2870B5044605D956
S315080024E040F61C61124802F0CDFF0F244FF000425F
S315080024F0104B11495D6E03F580535A664AF6CD3383
S315080025004E6C80200B64FFF7DBFE0B6A23F00F038B
S3150800251023430B62F30744BF084B0B64002DA2BF8D
S315080025204FF00042064B5A6603F052F870BD00BFE2
S315080025301962000800800050004009503254FFFF1D
S3150800254000A0005010B503F048F8042300F58051A8
S3150800255000F500520B6113610B6113610B61136186
S315080025600B611361202341F2020103610023C3605A
S31508002570836041614FF4A021836183654162054907
S31508002580C36103628362C36243630365D164036301
S3150800259010BD00BFFF3F0D0338B5174B04469842E0
S315080025A00D4607D0154B984204D04FF4B371144822
S315080025B002F068FF25B92046BDE8384003F00DB89B
S315080025C0012204F580535A6040F6FF71204605F053
S315080025D00F0202F0FEFFA263782102F0FAFF05F06F
S315080025E001036A0748BF43F00203A26C02F0030224
S315080025F09A42FAD138BD00BF0000015B00000A50BC
S3150800260048620008F8B505460C46164622B94FF446
S3150800261009716B4802F036FF6A4B9D4202D19CB99C
S3150800262056240DE0684B9D4247D040F22721644866
S3150800263002F028FF44B940F27631614802F022FFE1
S315080026402046FFF7C9F90446AB68D80745D5B44212
S3150800265004D240F231215A4802F014FFB4FBF6F4D2
S315080026606F68013CFF2C07F0010704D940F23921B5
S31508002670534802F007FF24064FB32821284602F0E4
S31508002680A8FFAB6C99071CD1AB6CDA071BD4AE6CF0
S3150800269016F0020619D140F24621494802F0F2FE28
S315080026A0284602F09AFF2B69314623F07F432343DD
S315080026B02B61BDE8F840FFF76FBF002CC4D1572443
S315080026C0BEE70526ECE70926EAE70626E8E72B69CA
S315080026D023F07F4323432B61F8BD6B68012B04D09D
S315080026E040F25921364802F0CDFEAB6DDB07AB68E8
S315080026F048BF760003F0E003402B42D009D893B1D7
S31508002700202B1AD040F29B21BDE8F8402C4802F055
S31508002710B9BE602B42D0802BF4D106EB4603A34208
S3150800272047D801230DE0B6EB141F04D940F28121E6
S31508002730234802F0A7FE102303E0B6EBD40F1AD8FD
S31508002740082373436401B4FBF3F4204F203CB7EB32
S31508002750C40F4FEAC40604D240F2A621184802F074
S3150800276091FE28463E40012102F033FF2E63BDE864
S31508002770F84002F02EBF40F28621114802F082FE90
S31508002780DEE70623B4FBF3F3B34201D30623D8E707
S3150800279040F28B210A4802F075FEF7E7B6EB940F74
S315080027A001D80423CDE74FF42471054802F06AFEE8
S315080027B0F7E740F29521024802F064FEB1E700BF50
S315080027C0486200080000015B00000A50F8FF7F001D
S315080027D02DE9F0419846436804460E4617461BB154
S315080027E040F6FF7102F0F5FE2046FFF7ABFEF189D1
S315080027F0737B62690B43318A22F44C520B4322F0F5
S315080028000F0213436361A168337E327B21F0804156
S3150800281021F0E2011A430A4371690A43A260B268C9
S315080028201AB9A26842F00042A260F069002874D082
S31508002830857A027A6D04A16845EA82556C4A0A408F
S315080028401543828802F4C0421543427845EA820558
S31508002850427B45EAC205827B45EA0215827845EA4B
S315080028608225A560D0E90421E5680A436149294023
S315080028700A43817942EA8122C17942EA4122E26029
S3150800288002785D49012A14D1E26842F00402E26046
S315080028908C4200F09180594A94420CBF01224FF0B5
S315080028A0FF32520102F1A04242F2944102F570321F
S315080028B014E0032A7AD1E26842F00402E2608C420C
S315080028C078D04E4A94420CBF01224FF0FF3241F2B3
S315080028D09441520102F1A04202F570320225555088
S315080028E0427A04F580518A621AB1E26842F40062BB
S315080028F0E260C27A5AB1E26842F40042E2603E4AB5
S3150800290094425BD1027B3E4902F00F024A67626A33
S31508002910C17B22F003020A4362623FB197F8202086
S3150800292004F58050002A53D001220262B8F1000F44
S3150800293027D004F5805113B14FF400438B652E4B15
S31508002940B8F822009C4298F821304ED02B4A94427F
S315080029500DD10122112B34BF01270227294DB0F5CD
S31508002960006FAF5494BF01270227274DAF54A26DBD
S31508002970034322F4F95222F01E021343A3650123EE
S315080029808B6505212046FFF707FEB2681AB1204677
S315080029907168FFF737FE20463178FFF7FDFDA36C17
S315080029A0DB4313F4405FFAD1BDE8F081023A012A0D
S315080029B085D96DE700228AE7002272E70F4A94421A
S315080029C001BF027B0E4902F00F02C1F880209EE784
S315080029D0E16997F8222097F8215021F009012A4346
S315080029E00A4342F00102C261A0E70022B2E700BF33
S315080029F0E39BBDFFFFF9F0870000015B00000A506A
S31508002A0000900350801400207E140020134B70B5EC
S31508002A10984205460C4606D0114B984203D07021C1
S31508002A20104802F02FFD1CB972210E4802F02AFD4B
S31508002A30237B802B03D176210A4802F023FD637B92
S31508002A40032B03D97921074802F01CFD00232146F0
S31508002A502846BDE870401A46FFF7BABE0000015B7B
S31508002A6000000A50486200082B4B70B5984205468C
S31508002A700C4643D119B98C21284802F003FD56208B
S31508002A80FFF7BCF80C2807D0A0F10903012B03D9DE
S31508002A90A0F11103012B3AD8637B032B03D9AA2192
S31508002AA01E4802F0EFFC237B802B03D0AC211B4889
S31508002AB002F0E8FC6369B3F1804F03D0AE211748F2
S31508002AC002F0E0FC238A23F400539BB2B3F5805F3F
S31508002AD003D0B021114802F0D5FCA368013BB3F539
S31508002AE0165F03D3B2210D4802F0CCFC0023214621
S31508002AF02846BDE870401A46FFF76ABE8A2107488D
S31508002B0002F0C0FC1CB98C21044802F0BBFC9E21D3
S31508002B10024802F0B7FCBFE70000015B4862000804
S31508002B20032838B504460D4605D8094B33F8103046
S31508002B30CB40DB0704D440F22D41064802F0A2FC44
S31508002B40302301225C43044BAA401A5138BD00BF0A
S31508002B50AA6200086E61000840D00350032838B501
S31508002B6004460D4605D8094B33F81030CB40DB0731
S31508002B7004D440F2FE31064802F084FC30230122D8
S31508002B805C43044BAA401A5138BD00BFAA6200082C
S31508002B906E61000840E0035003282DE9F041044621
S31508002BA00D461746984605D81D4B33F81030CB40CE
S31508002BB0DB0704D44FF4B0711A4802F063FC37B14E
S31508002BC029462046B8F1000F20D0FFF7A9FF0F21AC
S31508002BD0072D04EB440688BFA5F108034FEA06163D
S31508002BE0114895BFAB009B0004360C3607FA03F272
S31508002BF09940304402F010FD7FB929462046B8F1C5
S31508002C00000F06D0BDE8F041FFF78ABFFFF7A6FF21
S31508002C10DDE7BDE8F041FFF7A1BFBDE8F08100BFE1
S31508002C20AA6200087A62000830C00350F8B5064662
S31508002C300F461546002A6AD003F00304836823F476
S31508002C404073836002F0B3FCB26882EA042303F49B
S31508002C5040735340B36002F0AEFC37B9B6F1B64FD5
S31508002C600DD12E20FEF7B8FE0746B3689A0717D58A
S31508002C70012C1BD0022C27D064B9264B17E0264B13
S31508002C809E4201D12F20EDE740F22F11234802F092
S31508002C90F9FBB3684FF4B271204802F0F3FB08E081
S31508002CA0012C13D0022CE7D11D4B00E01D4B9F428F
S31508002CB0F0D91D4B1B5D6B430AD140F27511BDE877
S31508002CC0F840164802F0DEBB184BF0E7184BEEE763
S31508002CD0A3EBC504013C3C44B4FBF3F4013C0CD51E
S31508002CE040F27B110D4802F0CDFB4FF4BE710B4844
S31508002CF002F0C8FBB368B461F8BDB4F5007FF4D23E
S31508002D00B3689B07F7D5002C08BF0124F3E740F208
S31508002D101511D4E780841E0000800650B2620008B0
S31508002D20002D3101404B4C00E1620008809FD50020
S31508002D3040548900B0F1B64F38B504460D4607D061
S31508002D40084B984204D040F29511074802F09AFBC6
S31508002D50043425B104F580540123236038BD04F5F5
S31508002D600054F9E700800650B2620008B0F1B64F89
S31508002D7038B504460D4607D0124B984204D04FF496
S31508002D80D571114802F07EFB0023104A236404F52E
S31508002D900053DA636A7804F108037AB903F58053B5
S31508002DA002221A602046D5E901122B7BFFF73EFF67
S31508002DB020462978BDE83840FFF7BCBF03F5005325
S31508002DC0EEE700BF00800650B2620008FFFF1F0052
S31508002DD0B0F1B64F70B50AD0824B98421DD08248E2
S31508002DE040F2012102F04EFB6FF0030070BD7F4BED
S31508002DF09968C26B12F4C06F15D091050FD5FD22E4
S31508002E005A7009221A700022026493F901100129E6
S31508002E1000D15A7093F90100E8E7754BE8E75605C3
S31508002E20EFD5FE22ECE71C78082C00F2D680DFE806
S31508002E3014F009001F004500530070007E009C0036
S31508002E40A700CB004C880A88E5060AD5120A02F0C4
S31508002E50060242F0F002012119704263C1600120A6
S31508002E60C4E702F0FE02A10748BF42F00102F2E7FA
S31508002E70160608D5802100F50052D1634FF6087270
S31508002E801A80022318E05506E9D5402400F50052B9
S31508002E90D4634A88D40604D502221A700B78436391
S31508002EA0DDE796076AD507221A701B7901EBC3037B
S31508002EB01B89012BD3D10823C360D0E71506D9D4C3
S31508002EC05406CCD5402400F50052D4634A889207AC
S31508002ED054D503221A708CE74C880A88E60643BF45
S31508002EE0120A02F0060242F0F00202F0FE0265073C
S31508002EF009D51C7942F0010201EBC40109890129AF
S31508002F0004BF0821C160042119700123C36042630C
S31508002F10A5E71406AED45206A1D5402400F5005202
S31508002F20D4634A88560729D507221A7097E71A796B
S31508002F305D8801EBC2042689AE420FD8002401320F
S31508002F40D2B21A715C804C886507C2D4E40702D4F1
S31508002F50012A7FF64EAF08221A7092E76268691C4A
S31508002F605980525D42630622DFE7160682D455066B
S31508002F707FF575AF402400F50052D4630522A9E712
S31508002F8094067FF56CAF20261A7900F5005401EBFC
S31508002F90C2010A89456AE6635C88A24281BF49681C
S31508002FA0661C5E800D5559888A42D4D90424012AA4
S31508002FB0C46004D0013A914201D10822C2601A784D
S31508002FC0092A3FF420AF4AE7D2057FF548AF4FF408
S31508002FD0807100F50052D16313E74FF609321A8063
S31508002FE011E700BF00800650B2620008E412002014
S31508002FF0F0120020B0F1B64F38B504460D4607D199
S3150800300021B940F26A31254802F03CFA244B13E014
S31508003010244B98420DD040F26931204802F032FA2A
S3150800302025B940F26A311D4802F02CFA6FF0030008
S3150800303038BD00292AD01C4B2269D00744BF20225C
S31508003040E2606A88910702D529890029EED05207DD
S3150800305002D52A8A002AE9D04FF480721A60002223
S315080030609D601A71C023E3606369DB0514D42022CE
S3150800307004F50053DA630D4A2046DA63236C43F4F9
S31508003080FC632364BDE83840FFF7A2BE40F26A310C
S31508003090024802F0F7F9CEE7636AE5E7B26200088C
S315080030A0E412002000800650F0120020FFFF1F00E7
S315080030B04FF400120B4B10B5C3F88020BFF34F8FA7
S315080030C0BFF36F8F0024FF22074B21465C65202043
S315080030D09A625C60FEF758FC2146BDE81040212044
S315080030E0FEF752BC00E100E000000450072838B59E
S315080030F004460D4603DD7721084802F0C3F91F2C64
S3150800310003D99121064802F0BDF9064A064B002D5F
S3150800311008BF13460122A2401A6038BDE5620008BE
S3150800312015630008401004504020045010B50446AA
S3150800313018B991211F4802F0A5F923781B0613F048
S31508003140604F03D092211B4802F09CF9E3780F2BBD
S3150800315003D9A321174802F095F901212020FEF78B
S3150800316013FC01212120FEF70FFC0122124B5A60A5
S31508003170227812069A606178A27842EA01429A6138
S31508003180FF229A6200229A631A644FF000425A6537
S315080031904FF0FF324FF4001103F500531A65074A42
S315080031A0C2F88011E3781B01DBB282F8153311608F
S315080031B010BD00BFE56200080000045000E100E011
S315080031C02DE9F0410126C3B2072805460C4690466C
S315080031D006FA03F603DDEC21364802F053F91CB96A
S315080031E0ED21344802F04EF9236823F47C1323F0CA
S315080031F00F031BB1F0212F4802F044F9A37A1B04F0
S3150800320013F47C0F04D040F209112A4802F03AF967
S31508003210E37A1B0513F07E6F04D040F20B112548A4
S3150800322002F030F9237B5B0513F0FE5F04D040F211
S315080032300D11204802F026F91F4B204F1E65AB00E2
S31508003240226803F1A04303F588235A60302202FB63
S315080032500575637B2B66E37AA27A1B0543EA02436C
S31508003260227B43EA4253EB6528F003032B6702F0FF
S31508003270A5F97B6D33437B65237A13B13B6C3343E6
S315080032803B64637A13B1BB6B3343BB632279A3797F
S3150800329043EA0243084A93616179E37943EA0143C1
S315080032A007498B61054B56639E64BDE8F04102F001
S315080032B08BB900BFE56200080020045000000450E6
S315080032C00010045010B50124C3B2072804FA03F409
S315080032D004DD40F29711074802F0D4F802F06EF9BF
S315080032E0054B5A6D22EA04025A659C62BDE81040F5
S315080032F002F06AB9E56200080000045010B501241E
S31508003300C3B2072804FA03F404DD40F2B5110A48EB
S3150800331002F0B8F802F052F9084BDA6A224208D1EC
S315080033205B6B9C430CBF0124002402F04DF9204638
S3150800333010BD0024F9E700BFE5620008000004504C
S3150800334070B506460C46154622B940F28E210C4841
S3150800335002F098F824B94FF42070FEF73DFB0446B6
S315080033606D00013CB4FBF5F4064B250213EA042371
S3150800337004D040F2B321024802F084F8F56170BD2A
S315080033807B630008070080FF124B10B5984204467D
S3150800339004D040F24241104802F074F8012104F5C5
S315080033A08053596040F6AA6341F20502636100231F
S315080033B00A48A360E365E26004F500522361E3610D
S315080033C0E36490640348A365844204BF2365636588
S315080033D0516010BD00C005507B630008FFFF010067
S315080033E038B5294B044698420D4604D040F2693157
S315080033F0264802F047F82046FFF7C6FF012204F5E3
S3150800340080535A602B8AA26843F001031343AA7BB0
S3150800341043EA8223A360A3682A7D43EA4273A36032
S31508003420AB7C5BB1184B9C4202BFEA7CA3F5103318
S31508003430C3F8C821E36D43F08003E3652B7B204680
S31508003440D5E9011243F48053E360FFF779FF6B7BFC
S315080034500BB1102363616B7D1BB1A36843F4803302
S31508003460A360AB7D1BB1A36843F40043A360EB7D67
S315080034702A7E1B07120503F0E04302F4E002134319
S31508003480A3652B78636138BD00C005507B630008CF
S31508003490034B5A68D20702D5DA69002AF9D1704770
S315080034A000800A50054B9A689107FCD45A6892071F
S315080034B0F9D4DA69002AF6D1704700BF00800A50AD
S315080034C008B5FFF7E5FF0222014B1A6108BD00BFE8
S315080034D000800A5008B5FFF7E5FF0122024B03F505
S315080034E080514A601A6108BD00800A5008B5044B2D
S315080034F05968012903D1FFF7E3FF024B596008BD5C
S3150800350000800A5000A00A5010B5064CFFF7CAFF03
S315080035106368012B03D1FFF7E9FFFFF7C3FF0378C1
S31508003520E36010BD00800A50A8B94A680B78B2B9A2
S315080035304A7843EA42038A6812B1127843EA821348
S315080035408A7843EA8203CA6812B1127843EA4223A8
S31508003550054A936470477F21044801F093BF1278A7
S3150800356043EAC203E4E700BF00800A50AC630008E0
S3150800357010B9044B596470474FF48971024801F039
S3150800358081BF00BF00900A50AC63000810B9044B15
S31508003590596470474FF4A771024801F073BF00BF22
S315080035A000A00A50AC63000810B9044B19647047B0
S315080035B04FF4C571024801F065BF00BF00A00A506C
S315080035C0AC63000808B510B9044B186C08BD04486C
S315080035D040F2C51101F056FF0020F7E700800A50B7
S315080035E0AC63000808B520B949B101290AD0002002
S315080035F008BD4FF41D71054801F044FFF7E7044B79
S31508003600D86CF5E7024B186DF2E700BFAC6300080B
S3150800361000800A5018B939B1012908D0704740F21C
S315080036201231044801F02EBF034BDA647047024B8F
S315080036301A657047AC63000800800A5007B5094B45
S3150800364018689A889B7900906846ADF804208DF82A
S315080036500630FEF709FF0C20FEF73EFF002003B0F8
S315080036605DF804FBEB63000813B50024064A6846B8
S31508003670536F43F00103536700948DF80440FEF737
S3150800368027FE204602B010BD0040005030B58BB072
S315080036906C46174D0FCD0FC40FCD0FC495E8030028
S315080036A084E80300134BD3F84C2112031CD5A3F569
S315080036B0FE431C884FF6FF739C4208BF57248DF8BB
S315080036C01940FEF7D1FC204480F308008DF8180055
S315080036D00948FDF7D7F96846FEF7B4FB3220FEF72E
S315080036E031FD00200BB030BDD3F85041E4B2E6E717
S315080036F0F46300080080E00FC017530230B5094D87
S3150800370087B001AC0FCD0FC42B6801A82360242312
S315080037108DF80530FEF7AEFC3220FEF70DFD0020D1
S3150800372007B030BD1C6400086FF00403502110B5C3
S315080037300A480B4C13F0800F03F1010207D123440A
S315080037404C2A83F800131346F4D1002010BD03F069
S315080037500F03043B034419761346EBE700ED00E03C
S3150800376000E100E010B5044601F021FF024B1C60A1
S3150800377001F021FF002010BDFC12002010B501F059
S3150800378016FF034B1C6801F016FF204610BD00BF4C
S31508003790FC1200202DE9F0438DB01C4606AB064608
S315080037A089461846174600211822149D02F0A8F9E2
S315080037B0227903460AB18DF81820FB6163794FF028
S315080037C00108C3F10203DBB2CDE90333764B304679
S315080037D00293764B4A460193002329460093744B7D
S315080037E08DF81E8000F004FB0646002840F0AF80E6
S315080037F0A3684146EB63E3693A20EB64237E85F8C8
S31508003800483063696B64237C85F84030636A6B656E
S3150800381094F8203085F85030E36AEB6594F8283040
S3150800382085F858302368AB63FEF7AEF843460422A2
S315080038306169207CFFF7B0F943460222E169207EE0
S31508003840FFF7AAF93E7085F860604146A068FEF762
S315080038509BF86379002B32D141463620FEF794F85F
S31508003860A368562B02D0B3F5A06F08D1514AD2F8F7
S31508003870203223F0070343F00303C2F82032394607
S315080038802068FFF7F1F81021E2684B4B676903EBF4
S315080038904210C0F89414217C253241EA0741C0F849
S315080038A0AC14217EE06903EB421341EA00415960FA
S315080038B02379032B75D8DFE803F041244E6E3D4A81
S315080038C0D2F8283123F0070343F00103C2F8283160
S315080038D0A368562B02D0B3F5A06F07D1D2F82032D1
S315080038E023F0070343F00103C2F820323946206863
S315080038F0FFF78CF895F8603043F0040385F86030DC
S31508003900C1E7002795F8603043F0010385F8603079
S3150800391002220023616A94F82000FFF73DF9616AE4
S3150800392094F82020E36842EA014241F29C415B0197
S3150800393003F1A04303F570335A5097B90422AB6BD1
S31508003940052103F5805320681A65FEF725FE3046E3
S315080039500DB0BDE8F08395F8603043F0020385F8B2
S31508003960603000230422E16A94F82800FFF714F96E
S3150800397041F294420221E3685B0103F1A04303F597
S315080039807033995094F82820E16A03F5A55342EA62
S3150800399001421A60D2E795F86030012743F0030325
S315080039A0B4E72326D3E700BF9F5600080F57000841
S315080039B03F5700080080005000C0035010B5002093
S315080039C0144601F043FE022804D018B1C321024868
S315080039D001F058FD204610BD30640008034B022252
S315080039E0186800238068194600F090BF3810002038
S315080039F0302238B5037A0446534303F1A04303F54E
S31508003A008023DD6ED0E9032313449D4201D8AA42E0
S31508003A1004D94FF43E71054801F034FDD4E9030397
S31508003A2003449D4218BF284638BD00BF7E6400087F
S31508003A3030B51446054687B01046FFF7D9FF6369C7
S31508003A40024683423CBFD4E903315B181B1AABB16B
S31508003A501249049403910021CDE901310123009311
S31508003A602846D4E9001301F051FD20B14FF4347112
S31508003A700B4801F007FD002007B030BD0122627631
S31508003A8094F82D20002AF6D084F835301321E369FE
S31508003A90204698472046636A9847ECE7313A00087B
S31508003AA07E6400082DE9F04788B004460F4616469E
S31508003AB0984601F083FD8146002E00F0AD80237EF6
S31508003AC003F0FF02002B00F0E0802046FFF790FF8E
S31508003AD063698246984206D1637E23B940F27F31F4
S31508003AE06B4801F0CFFC6569AA459DBFD4E903324E
S31508003AF09B185D1BAAEB0505B54228BF354601F0A4
S31508003B005DFD94F82D308246002B40F096802A46BB
S31508003B103846616901F0FFFF63692E462B446361ED
S31508003B202CE06069037803F0FD01112940F08280DA
S31508003B30216B884205D1A3F111014B424B4184F810
S31508003B403430013E6369216B01328B4203F1010374
S31508003B5008BF236363619542E3D1D4E90323216B4C
S31508003B601344994208BF2263216B8A4201D88B42CB
S31508003B7004D84FF46D71464801F084FCD4E9032358
S31508003B8061691344994208BF626161698A4201D832
S31508003B908B4204D84FF471713D4801F073FC002341
S31508003BA0207A6376FDF72CFB20B140F211313848B4
S31508003BB001F068FC2046FFF71BFF636983423FD18B
S31508003BC00023E568237694F82D30656103B12563F3
S31508003BD02046636A98472F4B049403930023029365
S31508003BE023692A4601930123009363682168207A92
S31508003BF001F08CFC20B140F22D31254801F042FC41
S31508003C00207AFDF71DFB20B140F25131204801F022
S31508003C1039FC504601F0D8FC4846C8F8006001F067
S31508003C20D3FCD8F80030002B0CBF1B20002008B0AE
S31508003C30BDE8F08707F8013B84E72E4600228AE7AD
S31508003C400123207A23760DF11E01FDF761FB20B1D1
S31508003C504FF450710E4801F015FC9DF81E30207A7D
S31508003C60002BCDD00DF11F01FDF72AFB20B140F244
S31508003C704631074801F006FC9DF81F10207A0029F6
S31508003C80BED12246FFF7D4FEBAE71646C4E700BF00
S31508003C907E640008313A000870B504460568FFF7E7
S31508003CA06DFD844202D10020FFF75CFD95F93630A0
S31508003CB0002B11DB012203F01F015B099B0003F1B6
S31508003CC060438A4003F56143C3F88021C3F8802026
S31508003CD0BFF34F8FBFF36F8F287AFDF7D1FA20B164
S31508003CE04FF4ED71104801F0CDFB287AFDF72EFA56
S31508003CF020B14FF4EF710C4801F0C4FBFDF704FA4C
S31508003D0038B10A4B984204D04FF4F171064801F0D5
S31508003D10B9FB00232846C4E90033C4E90433A36089
S31508003D20AB6ABDE8704018477E640008058000F05D
S31508003D302DE9F84304460D4690F82C80DFF8AC9040
S31508003D408E18AE4228D094F82D3083B101F036FC97
S31508003D50237E07461BBB226B63699A4204D040F256
S31508003D60F911484601F08EFB384601F02DFC94F80F
S31508003D703430002BE5D0B8F1000F06D02B780A2B8B
S31508003D8003D10D212046E36998472046E36915F8D3
S31508003D90011B98470028D4D00020BDE8F8832046A8
S31508003DA0FFF726FEE1680138884238BF2069D4F853
S31508003DB030C03CBF00F1FF30401803469C450BD08D
S31508003DC013F80129112A01D0132A07D1A2F11103E8
S31508003DD05A425A4184F834202063C5E7994282BF83
S31508003DE0236903F1FF335B18E8E700BF7E64000828
S31508003DF0F0B50C460646154687B0382200212046FF
S31508003E001F4601F07DFE95E8030000232A69237604
S31508003E10EB6884E80300C4E904232A7DE36084F898
S31508003E202C20AA7D2363012384F8343084F83530A6
S31508003E300C9B84F82D2023620D9BE76163620E9B21
S31508003E40A3622B7A84F83630204B34607360204B9B
S31508003E50B360204B3361204B7361204BF360FDF751
S31508003E609BF930B11E4B984203D01024204607B068
S31508003E70F0BD002104F10800FDF716F90028F4D179
S31508003E800127184B0494CDE902032369009701938F
S31508003E906368E2682168207A01F038FB0446002846
S31508003EA0E3D195F90830002B0BDB03F01F025B0901
S31508003EB09B0003F16043974003F56143C3F88071A3
S31508003EC01F603046FFF74EFCD0E700BF313D0008C3
S31508003ED0A53A0008F1570008F7570008993C00086A
S31508003EE0038000F0313A000830B50E4C4161236872
S31508003EF08BB9206083600DE0891A9A681D46416176
S31508003F006AB113465A698A42F6D935B1A860521A77
S31508003F1083605A6130BD0025F4E72060F7E79860B2
S31508003F208260F7E70813002038B500F005FA002587
S31508003F30084B094C1A682368C31A2AB123B1516978
S31508003F40994203D3C91A5161206038BD55615B1A7D
S31508003F509268F2E7081300200413002038B5134DC1
S31508003F602B685B6993B1124A022014681C4401F05D
S31508003F7095FC204600F0E8F900230E492A680B70E4
S31508003F80D088800709D501230B7038BD022001F0BF
S31508003F9085FC022000F026FAEEE79268002AF4D0A3
S31508003FA050690344012BEBD9EFE700BF0813002043
S31508003FB0041300208314002070B516469DF81420BB
S31508003FC0C0E903360271049ABDF81830026000226F
S31508003FD004460D468260C380EEB900F0ADF9284468
S31508003FE0A0619DB12E4601F0E2FA0546FFF79CFF57
S31508003FF031462046FFF778FF104B1B68A34201D1D4
S31508004000FFF7ACFF284601F0D6FA02E0E3686561DF
S315080040107BB9002070BD00F08FF93044A061002DF7
S31508004020E0D1E3686561002BDDD02046216898471A
S31508004030D9E7204621689847EBE700BF0813002018
S3150800404000220C490B687BB183420AD183687AB196
S31508004050936083681BB15A6941690A445A61002012
S3150800406070471A469B68EEE70028EFD00220704793
S315080040700B60EEE70813002070B501F09FFA144EA6
S3150800408005463478FCB9134B1C60134B1C60134B64
S315080040901C8000F01FF9012001F000FC01F021FC52
S315080040A00F4B0246186020B9284601F08DFA2320E6
S315080040B070BD234640F2E7310A4800F0C7F90A4BBB
S315080040C0186001233370284601F07EFA0020EFE7D6
S315080040D0841400200813002004130020581400201C
S315080040E00C13002018FCFFFF0013002038B50C46FF
S315080040F00546A8B1A1B100230B7001F05FFA0121B2
S31508004100084B1B6833B901F05FFA002038BD9D42A1
S3150800411004D121702278002AF9D0F4E79B68F1E7E8
S315080041202220F3E70813002038B50021044640F2A0
S31508004130E730054B4FF47A721D680023E5FB04014E
S3150800414000F084F938BD00BF0C130020012300B528
S315080041508DB08DF80F30FFF7E7FF00230146CDE954
S315080041600033074A0DF10F0304A801F04AFB18B9FA
S315080041709DF80F30002BFBD10DB05DF804FB00BF96
S31508004180FD570008C2072DE9F04704460BD54D4AEE
S31508004190138801339BB21380FFF7C6FE4A4B1B6890
S315080041A00BB1FFF7DBFEA30740F18A8001F006FAA0
S315080041B04FF0000905464E46FFF7B6FEC846424F81
S315080041C03C680CB163698BB10022404B012E1A7012
S315080041D003D119F0020F18BF1E70002C6CD0FFF720
S315080041E0BDFE2846BDE8F04701F0EEB923465A69F8
S315080041F03AB91A792179914288BF1C469B68002BE7
S31508004200F5D1284601F0E0F92569DDB100F094F80A
S31508004210A269A0EB02094FEAE9734D4578EB03035F
S3150800422011DA23691344A361E368B4F806900136EA
S3150800423013B120462168984701F0C0F90546FFF7F3
S3150800424073FEBDE7A94601F0B9F982462046FFF795
S31508004250F7FE504601F0B8F92369002BE4D0B5EB18
S3150800426009054FEAE97363EB4303002B04DA40F2CE
S315080042702B51174801F006F9A38B33B1E28B13448F
S315080042809BB2B3F57A7F0FD2E38301F097F98146A3
S3150800429029462046FFF728FEA369226948461344A3
S315080042A0A36101F091F9BFE7A3F57A73E383A369E4
S315080042B0013D013BA361E8E7022000F07DF890E7A5
S315080042C0BDE8F08758140020081300208214002047
S315080042D0C264000810B50121002486B03E20ADF85E
S315080042E00810CDE903448DF804408DF80A4005947A
S315080042F0FDF74AFB01A8FFF707F9204602A98DF842
S315080043000840FFF711F920460F21FFF73FF90F2163
S315080043102046FFF749F9FFF7DDF8FFF7B9F8082255
S31508004320034B9C61034BC3F888219A6006B010BD05
S3150800433000800A5000E100E008B5FFF7A9F8014B34
S31508004340986908BD00800A50F8B5044601F02FF9AF
S315080043500746FFF79DF8164B9D6901F09BFA06463E
S315080043600020FFF72FF9830704D4731B032B01D80A
S31508004370AE420FD10021631B022B98BFEC1C0846E6
S31508004380B4F1FF3F2CBF2246621EFFF743F9022015
S3150800439001F084FA384601F00EF9064A137833B16B
S315080043A003498B6C43F001038B6400231370F8BD3B
S315080043B000800A5093100020830700F0010109D5F8
S315080043C00122064B41F002011A70054A936C23F04C
S315080043D0010393640020FFF7D9B800BF93100020AB
S315080043E000800A50830742BF0222014B1A647047B5
S315080043F000900A5010B50446FCF728FB4FF47A7271
S315080044009042B0FBF2F105D23621BDE810400C48C7
S3150800441001F038B80B4BB3FBF1F30B49884201D9CD
S315080044203C21F2E702FB04F0B0FBF3F0022806D9C0
S31508004430BDE810400323B0FBF3F0FBF799BE10BDAF
S315080044400565000840420F00E7CD9A3B53B94AB9C3
S31508004450002908BF00281CBF4FF0FF314FF0FF307E
S3150800446000F082B9ADF1080C6DE904CE00F006F84B
S31508004470DDF804E0DDE9022304B070472DE9F04FCA
S31508004480099D0C46002B4DD18A420F468446964616
S31508004490B2FA82F360D94BB102FA03FEC3F12002E5
S315080044A09F4000FA03FC20FA02F217434FEA1E4621
S315080044B01FFA8EF44FEA1C42B7FBF6F106FB11779A
S315080044C001FB04F042EA0742904208D91EEB0202B9
S315080044D001F1FF3702D2904200F231813946121AB1
S315080044E01FFA8CFCB2FBF6F006FB102200FB04F464
S315080044F04CEA024C644508D91EEB0C0C00F1FF325D
S3150800450002D2644500F21E81104640EA0140ACEB37
S31508004510040C002125B12CFA03F30022C5E9003268
S31508004520BDE8F08F8B4205D90DB1C5E90001002120
S315080045300846F5E7B3FA83F100294DD1A342C0F046
S31508004540F380904280F0F080064623460846002D08
S31508004550E6D0C5E90063E3E7002B40F0A3808A1A9A
S315080045604FEA1E471FFA8EF60121B2FBF7F407FB46
S3150800457014204FEA1C4242EA004206FB04F090422D
S315080045800FD91EEB020204F1FF382CBF4FF00109C8
S315080045904FF00009904203D9B9F1000F00F0CC8022
S315080045A04446121A1FFA8CFCB2FBF7F007FB1022DE
S315080045B000FB06F64CEA024C664508D91EEB0C0CC5
S315080045C000F1FF3202D2664500F2B3801046ACEB2A
S315080045D0060C40EA04409DE7C1F120068B4004FA28
S315080045E001FE22FA06F720FA06FCF4408A401F4329
S315080045F04EEA0C0300FA01FE4FEA17484FEA134940
S315080046001FFA87FCB4FBF8F008FB104449EA044497
S3150800461000FB0CF9A1450ED93C1900F1FF3A2CBF55
S315080046204FF0010B4FF0000BA14503D9BBF1000F6A
S3150800463000F08B805046A4EB09041FFA83F9B4FBFB
S31508004640F8F308FB134403FB0CFC49EA0444A445AD
S3150800465006D93C1903F1FF3801D2A4457BD8434655
S3150800466043EA0040A4EB0C04A0FB02984445CC4660
S31508004670434602D306D1CE4504D20138B9EB020C23
S3150800468068EB0703002D6CD0BEEB0C0264EB030449
S3150800469022FA01F304FA06F6CC4000211E43C5E9C6
S315080046A000643DE702FA03FEC3F1200104FA03F2AF
S315080046B000FA03FCCC404FEA1E4720FA01F11FFA24
S315080046C08EF6B4FBF7F00A4307FB1044110C41EAD7
S315080046D0044100FB06F48C420ED91EEB010100F1E1
S315080046E0FF382CBF4FF001094FF000098C4202D960
S315080046F0B9F1000F2CD04046091B92B2B1FBF7F472
S3150800470007FB141142EA014204FB06F1914207D95C
S315080047101EEB020204F1FF3801D291421ED844462C
S31508004720521A44EA004120E7861A64EB0303012083
S315080047300DE7F44402384AE7023C724431E702398D
S315080047407244CCE6F4440238DFE602383C4472E7A9
S3150800475002387144D0E7023B3C4481E7023C72448C
S31508004760DEE72946DCE600BF704700BF08B5064B02
S31508004770044613B10021AFF30080044B1B6803B154
S315080047809847204601F01CF8000000004814002055
S31508004790002310B504468360818119464366C281A9
S315080047A008228361C0E90033C0E904335C3001F0B4
S315080047B0A7F90D4B246263620C4BA3620C4BE362B0
S315080047C00C4B23630C4B9C4206D003F168029442BF
S315080047D002D0D0339C4205D104F15800BDE8104000
S315080047E001F096B910BD00BFFF590008215A00080C
S315080047F0595A00087D5A000810130020024A034936
S31508004800034801F089B800BF2C1000206D5D000830
S315080048103C10002041680C4B994210B5044601D063
S3150800482001F0A4FAA168094B994202D0204601F08A
S315080048309DFAE168064B994204D02046BDE810402F
S3150800484001F094BA10BD00BF1013002078130020A1
S31508004850E013002010B50B4B04210B4C0B4A2046E5
S315080048601A600022FFF794FF04F16800012209216B
S31508004870FFF78EFF04F1D00002221221BDE8104096
S31508004880FFF786BF4814002010130020FD470008D4
S31508004890014801F03EB900BF86140020014801F026
S315080048A039B900BF8614002010B50446FFF7F0FF9B
S315080048B0236A1BB1BDE81040FFF7F0BF044B236223
S315080048C0044B1B68002BF5D1FFF7C4FFF2E700BFC6
S315080048D015480008481400200FB407B5064904AB6C
S315080048E0086853F8042B8168019300F07BFA03B03B
S315080048F05DF804EB04B0704738100020024B0146FF
S31508004900186801F027B800BF381000202DE9F743D2
S315080049101D46574B04460E461F68904627B13B6A0C
S3150800492013B93846FFF7C0FFB8F1020F06D0B8F141
S31508004930010F00F29980002DC0F29680636ED907A8
S3150800494005D4A3899A0502D4A06D01F0E2F82146A0
S31508004950384601F00BFA616B41B104F14403994200
S3150800496002D0384600F046F9002363630023A361AA
S315080049706360A3891B0603D52169384600F03AF916
S31508004980A389B8F1020F23F44A6323F00303A38132
S3150800499060D001AB6A462146384601F00FFAA38972
S315080049A01843A0812DBB009D284600F06DF90646E8
S315080049B0002851D1DDF80090A9453FD14FF0FF35C9
S315080049C0B4F90C3043F00202A2810022A26004F17D
S315080049D047022260226101226261626ED60704D410
S315080049E0980502D4A06D01F095F8284603B0BDE8F5
S315080049F0F083002ED8D03B6A13B93846FFF754FF28
S31508004A00B8F1010F266002BFA38943F00103A38111
S31508004A10B4F90C3013F00802C4E904651ED0D907AE
S31508004A2045BF00226D42A560A26048BFA561626EBF
S31508004A30D20701D49B0513D50025D6E7484600F0D2
S31508004A4023F906460028B9D0A3894D4643F08003CA
S31508004A50A381D0E70025B3E7A946F5E7A260E6E714
S31508004A60A06D01F057F8E7E74FF0FF35BDE700BF47
S31508004A703810002038B5294B05460C46186818B179
S31508004A80036A0BB9FFF710FFB4F90C30190722D4E3
S31508004A90DA0607D409222A6043F040034FF0FF30B4
S31508004AA0A38133E0580712D5616B41B104F1440381
S31508004AB0994202D0284600F09DF800236363A38933
S31508004AC023F02403A3810023636023692360A38959
S31508004AD043F00803A38123694BB9A38903F4207320
S31508004AE0B3F5007F03D02146284601F08CF9B4F9C6
S31508004AF00C3013F001020AD00022A2606269524209
S31508004B00A261226942B913F08000C5D138BD990760
S31508004B1058BF6269A260F4E70020F7E73810002062
S31508004B2038B50023054D044608462B6000F046FEBE
S31508004B30431C02D12B6803B1236038BD4C140020F6
S31508004B4038B50446064D0846114600222A601A461C
S31508004B5000F03EFE431C02D12B6803B1236038BD2A
S31508004B604C14002038B50446064D08461146002266
S31508004B702A601A4600F02EFE431C02D12B6803B1A8
S31508004B80236038BD4C14002038B50446064D084647
S31508004B90114600222A601A46FEF710FF431C02D16E
S31508004BA02B6803B1236038BD4C14002070B50D4D39
S31508004BB000260D4C641BA410A64209D10B4D0026F5
S31508004BC00B4C01F06DF9641BA410A64205D170BD0B
S31508004BD055F8043B01369847EEE755F8043B01368D
S31508004BE09847F2E7941000209410002094100020B3
S31508004BF09810002038B50546002941D051F8043CE4
S31508004C000C1F002BB8BFE41800F0E0F81D4A136823
S31508004C1033B9636014602846BDE8384000F0DCB854
S31508004C20A34208D9206821188B4201BF19685B681E
S31508004C3009182160EDE71A465B680BB1A342FAD959
S31508004C4011685018A0420BD1206801445018116011
S31508004C508342E0D118685B68084453601060DAE75D
S31508004C6002D90C232B60D6E7206821188B4202BF95
S31508004C7019685B680918636008BF21605460CAE751
S31508004C8038BD00BF54140020024B0146186800F0D6
S31508004C9025B800BF3810002070B50F4E0C460546E3
S31508004CA0316811B900F004FB30602146284600F04F
S31508004CB0FFFA431C03D14FF0FF34204670BDC41CD5
S31508004CC024F00304A042F8D0211A284600F0F0FA8E
S31508004CD00130F2D1EFE700BF501400202DE9F04172
S31508004CE0CD1C064625F0030508350C2D38BF0C25C6
S31508004CF0002D01DBA94204D90C2333600020BDE84E
S31508004D00F081314F00F062F83B681C4644BB2946E7
S31508004D103046FFF7C1FF431C044650D13C68214684
S31508004D20002941D1002C44D02368304604EB0308FF
S31508004D3000F0BEFA80453CD1216830466D1A2946F6
S31508004D40FFF7AAFF013034D023682B4423603B6861
S31508004D50002B36D05A68A24229D100225A600EE0AA
S31508004D602268521B1DD40B2A16D96119A342256045
S31508004D7018BF5960636808BF396062514B60304696
S31508004D8000F02AF804F10B00231D20F00700C21AD0
S31508004D90B5D01B1AA350B2E7A3426268DED13A60C7
S31508004DA0EDE723466468B1E70C464968B8E7134659
S31508004DB0CEE70C233046336000F00EF89EE7056018
S31508004DC0DDE75B60FFDE00BF54140020014800F0F9
S31508004DD0A0BE00BF85140020014800F09BBE00BF9E
S31508004DE0851400202DE9F04F0D469DB014469846CF
S31508004DF0064618B1036A0BB9FFF756FD6B6ED9075D
S31508004E0005D4AB899A0502D4A86D00F082FEAB8959
S31508004E101B0701D52B699BB929463046FFF72AFEA1
S31508004E2070B16B6EDC0704D54FF0FF301DB0BDE8DE
S31508004E30F08FAB899805F7D4A86D00F06BFEF3E701
S31508004E400023CDF80C804FF00109DFF8B4810993EF
S31508004E5020238DF8293030238DF82A3023469A46A8
S31508004E6013F8012B0AB1252AF9D1BAEB040B0BD09A
S31508004E705B4622462946304600F071FE013000F0B6
S31508004E80A780099A5A4409929AF80030002B00F034
S31508004E909F8000234FF0FF320AF1010A049307931B
S31508004EA08DF853301A93CDE9052354460522544804
S31508004EB014F8011B00F0E3FF049AD8B9D10644BFE1
S31508004EC020238DF85330130744BF2B238DF8533016
S31508004ED09AF800302A2B15D0079A544600204FF02E
S31508004EE00A0C214611F8013B303B092B4BD9B0B1CE
S31508004EF0079214E0A0EB0803A24609FA03F313434A
S31508004F000493D2E7039B191D1B68002B0391BBBFB3
S31508004F105B4242F0020207930793B8BF04922378D4
S31508004F202E2B0AD163782A2B32D1039B02341A1D01
S31508004F301B6843EAE37303920593DFF8D4A00322C0
S31508004F402178504600F09BFF38B1A0EB0A004022BA
S31508004F50049B013482401343049314F8011B062270
S31508004F6028488DF8281000F08AFF00283FD0264BE5
S31508004F701BBB039B073323F0070308330393099BE3
S31508004F803B4409936AE70CFB02320C460120A8E76A
S31508004F90002301344FF00A0C19460593204610F8F1
S31508004FA0012B303A092A03D9002BC6D00591C4E74C
S31508004FB00CFB012104460123F0E703AB2A4604A9AA
S31508004FC030460093114BAFF300800746781CD6D1C4
S31508004FD06B6ED90705D4AB899A0502D4A86D00F083
S31508004FE099FDAB895B063FF51FAF09981EE703AB32
S31508004FF02A4604A930460093044B00F00BF8E4E770
S31508005000406500084A650008000000005F5B00086C
S31508005010466500082DE9FF470F7E914680460C46F7
S31508005020782F9A460C9E01F1430207D8622F0AD8B8
S31508005030002F00F0DD80582F00F0C38004F14206EF
S3150800504084F842703AE0A7F16303152BF6D801A15C
S3150800505051F823F0AD500008C15000083D50000833
S315080050603D5000083D5000083D500008C15000085A
S315080050703D5000083D5000083D5000083D500008CE
S31508005080D75100084F5100088F5100083D500008BD
S315080050903D500008F95100083D5000084F510008DE
S315080050A03D5000083D5000089751000833681A1D06
S315080050B01B68326004F1420684F842300123A8E0F6
S315080050C031682368081D30601E0601D50D6803E0A7
S315080050D05D06FBD5B1F90050002D616878DA2D2000
S315080050E00029A16084F843002DDA6D425D480A2341
S315080050F01646B5FBF3F103FB1157C75D06F8017DAC
S315080051002F460D46BB42F4D9082B0BD12368DF077F
S3150800511008D5236961689942DEBF302306F8013C49
S3150800512006F1FF36921B22614B4603AA21464046EA
S31508005130CDF800A000F025FD01306FD14FF0FF300B
S3150800514004B0BDE8F08723F004032360CDE72168A7
S315080051503368080653F8045B02D4490648BFADB263
S315080051606F2F33603F4814BF0A230823002184F8B1
S3150800517043106668002EA660BADB216821F0040198
S315080051802160002DB4D1002EB2D11646BCE72368A3
S3150800519043F02003236078273348236884F8457052
S315080051A01F06316851F8045B02D45F0648BFADB2EA
S315080051B03160D90744BF43F0200323601DB1102393
S315080051C0D4E72848E9E7236823F020032360F6E7B5
S315080051D024480A23CDE733682568181D61693060BD
S315080051E02E061B6801D5196002E06806FBD51980F2
S315080051F000231646236197E7336800211A1D32609B
S315080052001E686268304600F03AFE08B1801B60608E
S3150800521063682361002384F8433085E723693246AF
S3150800522049464046D047013088D023689B0714D4A6
S31508005230E068039B9842B8BF184681E701233246C7
S3150800524049464046D04701303FF478AF0135E36818
S3150800525003995B1AAB42F1DCEAE7002504F119066B
S31508005260F5E700BF516500086265000838B50023F8
S31508005270064D0446084611462B6000F0A2FA431C68
S3150800528002D12B6803B1236038BD00BF4C1400203F
S3150800529038B50023054D044608462B6000F096FAFB
S315080052A0431C02D12B6803B1236038BD4C1400207F
S315080052B038B50023054D044608462B60FBF73EFC2F
S315080052C0431C02D12B6803B1236038BD4C1400205F
S315080052D0FBF75EB908B500F007FBFAF7D3FF00F055
S315080052E010FBFFF7F5FFFAE70378407800F0FC00BB
S315080052F000EB03207D235843000C0638704700F066
S315080053003EB808B5FEF710FA00F050F8FEF796F921
S31508005310FEF7F4F9FEF7BAF9FBF760F9FEF7A4F918
S31508005320BDE8084000F034B808B5FBF717FCFBF7F2
S31508005330ABF9FBF71DFABDE8084000F077B808B5E9
S3150800534000F01BF8FEF798FEFEF748FBBDE808409C
S3150800535000F006B870477047704770477047704747
S31508005360FBF79EB9FBF7FEB908B5012304221846D8
S315080053700021FDF711FC002008BDFFF7F5BF08B5B1
S315080053800023042219460120FDF706FC002008BD6B
S3150800539008B501213A20FCF7F7FAFFF7B0FF01201C
S315080053A0FBF7F4F9BDE80840FBF730BA01213A20CB
S315080053B0FCF7EABA70B5002506462C46052C20D817
S315080053C0DFE804F003070B0F13175B210820FBF730
S315080053D04FFC0C210820FBF74BFCD1210820FBF7DA
S315080053E047FC80210820FBF743FC00210820FBF737
S315080053F03FFC6C1C2946E4B208202546FBF738FC1E
S315080054000624A4F10E03012B05D85A210820FBF720
S315080054102FFC0134D2E7102C05D1BDE870405D2180
S315080054200820FBF725BCB31F195DEFE708B5082070
S3150800543000F029F8BDE80840082000F02FB801233D
S3150800544007B520F07F4040EA8170019068468DF8E4
S315080054500030FFF7AFFF03B05DF804FBFEE710B5B9
S315080054603AB1002350F8234041F8234001339A42C9
S31508005470F8D110BD002070474FF4004070474FF434
S315080054807A707047FEE74FF060420123D2F8001E9B
S3150800549083400B430020C2F8003E70474FF060413E
S315080054A00122D1F8003E824023EA02030020C1F817
S315080054B0003E7047D0E9000318478368006818471C
S315080054C0C3680068184710B5044601213A20FCF75E
S315080054D05BFAA3782078B3FA83F3042261785B0930
S315080054E0FDF75AFB002010BD034659789B780078D3
S315080054F00BB9FBF79BBCFBF7B7BC034659789B78FF
