S01400004C5048525F536F6674776172652E73333700
S3150800000000100020611D0008C77D0008C77D000894
S31508000010C77D0008C77D0008C77D0008C77D0008A2
S31508000020C77D0008C77D0008C77D0008C77D000892
S31508000030C77D0008C77D0008C77D0008C77D000882
S31508000040C77D0008C77D0008C77D0008C77D000872
S31508000050C77D0008C77D0008C77D0008C77D000862
S31508000060C77D0008C77D0008C77D0008851B0008F6
S31508000070CF7C0008C77D0008C77D0008C77D00083B
S31508000080C77D0008C77D0008C77D0008C77D000832
S31508000090C77D000875270008C77D0008C77D0008CA
S315080000A0C77D0008C77D0008C77D0008C77D000812
S315080000B0C77D0008C77D0008C77D0008C77D000802
S315080000C0C77D0008C77D0008C77D0008C77D0008F2
S315080000D0C77D0008C77D0008C77D0008C77D0008E2
S315080000E0C77D0008C77D0008C77D0008C77D0008D2
S315080000F0C77D0008C77D0008C77D0008C77D0008C2
S31508000100C77D0008C77D0008C77D0008C77D0008B1
S31508000110C77D0008C77D0008C77D0008C77D0008A1
S31508000120C77D0008C77D0008C77D0008C77D000891
S31508000130C77D0008C77D0008C77D0008C77D000881
S31508000140C77D0008C77D0008C77D0008178200081C
S31508000150C77D0008C77D0008C77D0008C77D000861
S31508000160C77D0008C77D0008C77D0008C77D000851
S31508000170013800D0FCE7704708B500F0CDFF4FF412
S315080001807A7005F0F3F900F051FF0121164B0222AF
S315080001900420197000F05CFF20B14FF4EA7113488F
S315080001A007F025FE124B188807EE900AF8EE677AD4
S315080001B017EE900A05F0BEFC07A3D3E9002307F063
S315080001C04DFA07A3D3E9002305F054FB05F00AFD11
S315080001D0084B186008BD00BF9A9999999999A93F43
S315080001E09A99999999B95040EB150020EE8D000817
S315080001F0DB1500202C1200202DE9F04FC76997B0B7
S315080002008346209E08910C92129355EC104B8DED67
S31508000210000B7FB9102006F0BFFC0246CBF81C0085
S3150800022020B9A74BEF21A74807F0CEF9C0E9017717
S315080002300760C760DBF81C30196859B15A68012392
S31508000240584693404A608B6006F094FDDBF81C30F4
S3150800025000221A602B1EB7BF23F000430023012299
S315080002600193A8BF3360019F974BB8BF3260BB4369
S3150800027019D142F20F73129A1360C7F3130323437B
S3150800028000F0DB85219B53B9904B21E0904B0393FB
S315080002900833219A1360039817B0BDE8F08F8B4B8B
S315080002A003930333F5E79DED007B0022002351EC11
S315080002B0170B8DED0A7B07F039FC804650B10123F8
S315080002C0129A1360219B13B1824B219A1360824BB9
S315080002D00393E0E7C7F30A5614AA15A958469DEDF5
S315080002E00A0B06F0CFFF0290002E76D00B9BA6F2E3
S315080002F0FF36CDF84C80C3F3130343F07F53DDE993
S315080003000A0143F4401319460022744B05F0B2FA69
S3150800031065A3D3E9002307F0A1F965A3D3E9002370
S3150800032005F0AAFA04460D46304605F0F1FB62A32D
S31508000330D3E9002307F092F902460B4620462946E0
S3150800034005F09AFA04460D4607F038FC00220746DF
S3150800035000232046294607F0F3FB40B1384605F04E
S31508000360D7FB22462B4607F0E1FB00B9013F162FC3
S3150800037052D85B4B03EBC703DDE90A01D3E9002337
S3150800038007F0DEFB002849D0013F00231193149B98
S315080003909B1B5A1E4CBFC3F101030023079245BF9E
S315080003A00693002306930793002F39DB079B1097C4
S315080003B03B44079300230993089B092B66D8052B12
S315080003C0C5BF043B002401240893089B023B032B6A
S315080003D067D8DFE803F02D3A3859DDE914631E447F
S315080003E006F23243202BC9BFC3F14003C3F12003F1
S315080003F09F4006F21243D8BF04FA03F006F1FF360F
S31508000400C4BF24FA03F347EA030005F071FB01228F
S31508000410A1F1F873139276E70123B7E71190B6E7CF
S31508000420069BDB1B06937B42099300231093C3E7C5
S3150800043000230D930C9B002B56DC012399461A4684
S3150800044004930C920CE00123F3E700230D930C9B15
S31508000450FB1803F1010904934B46012BB8BF01238E
S31508000460DBF81C000021042202F114059D423FD945
S315080004704160584606F03EFC039000283BD1194BD4
S31508000480024640F2AF11CEE60123DFE7012400233E
S315080004900D9408934FF0FF330022994604931223D4
S315080004A0CFE701230D93F5E761436F63A787D23F33
S315080004B0B3C8608B288AC63FFB799F501344D33F45
S315080004C00A970008219700080000F07F06970008A1
S315080004D0FD960008DA960008D99600080000F83F4D
S315080004E0209800087A9700080C9B99460493B7E76A
S315080004F001315200B8E7DBF81C30B9F10E0F039A48
S315080005001A606FD8002C6DD0002F36DD07F00F0269
S31508000510A04BF8054FEA271403EBC20393ED007BC3
S315080005208DED0E7B17D59C4B04F00F044FF0030896
S31508000530D3E90823DDE90A0107F0BAF9CDE9000194
S31508000540954D5CB9DDE90E23DDE9000107F0B0F948
S31508000550CDE900012BE04FF00208F1E7E10709D5E4
S3150800056008F10108DDE90E01D5E9002307F076F860
S31508000570CDE90E0164100835E3E700F007817C42F7
S31508000580844B854D4FF0020804F00F02241103EB4B
S31508000590C203DDE90A01D3E9002307F05FF8002367
S315080005A0CDE90001002C40F0E580002BD0D1119B4D
S315080005B0DDE90045002B00F04C810022774B2046F0
S315080005C0294607F0BDFA002800F04381B9F1000F6B
S315080005D000F03F81049B002B00F3E480DDE90A3438
S315080005E0CDE90034159B002B02DB0E2F40F3428227
S315080005F00D9A002A40F06782099C0025DDF81880CC
S31508000600B8F1000F0DD0079B002B0ADD4345069A6B
S31508000610A8BF4346D21AA8EB03080692079AD31A2C
S315080006200793099B0BB30D9B002B00F0A682002CA9
S3150800063000F0A18229462246584606F0C5FC029AD1
S3150800064001460546584606F015FC029906465846E0
S3150800065006F090FB099B1B1B099300F09182099AEF
S315080006603146584606F0B0FC02900121584606F07D
S31508000670EBFB109B0446002B00F084821A460146C9
S31508000680584606F0A1FC089B0446012B03DC009B98
S31508000690002B00F07C820026236904EB830318698B
S315080006A008F0B0F8C0F120001096079B184410F027
S315080006B01F0000F09182C0F12003042B40F38182D1
S315080006C0C0F11C00069B034480440693079B034421
S315080006D00793069B002B05DD1A460299584606F035
S315080006E0CDFC0290079B002B05DD21461A4658468D
S315080006F006F0C4FC0446119B002B00F076822146C6
S31508000700029808F0CEF8002880F26F8200230A22A9
S315080007100299584606F050FB0D9B7E1E0290002B50
S3150800072000F05C82002329460A22584606F044FB5C
S31508000730049B0546002B03DC089B022B00F35E8214
S31508000740B8F1000F05DD29464246584606F096FCE4
S315080007500546109B002B00F0D0826968584606F0C3
S31508000760C9FA0746002840F07F820D4B024640F240
S31508000770EF2158E5E20706D508F10108D5E9002377
S3150800078006F06CFF0123641008350BE74FF00208EA
S315080007900DE700BF20980008F89700080000F03F12
S315080007A07A97000820460022AC4B294606F056FFE9
S315080007B07E1E08F10108049CCDE90001404605F0BB
S315080007C0A7F9DDE9002306F049FFA54B002205F04D
S315080007D053F8A1F15073CDE90E010F93002C3BD1CC
S315080007E00022A04BDDE9000105F044F802460B465D
S315080007F0CDE90023DDE90E2307F0C0F9002840F013
S315080008005781DDE90E2101F10043DDE9000107F01A
S3150800081097F900283FF4E2AE002425460C9BDDF844
S315080008200CA0DE434FF000082146584606F0A2FA0F
S31508000830002D00F0A980B8F1000F05D0A84503D017
S315080008404146584606F096FA2946584606F092FA60
S315080008509AE03E464C46B1E7834B03EBC40353E9A3
S315080008600201039B1C440D9B002B4AD002460B46F3
S3150800087000207E4907F01CF8DDE90E2304F0FAFF94
S31508000880DDF80CA0CDE90E01DDE9000107F096F9C7
S31508000890054605F03DF9024630350B46DDE900010F
S315080008A004F0E8FF0AF8015B02460B46CDE90001B1
S315080008B0DDE90E0107F062F9002865D100206C49D0
S315080008C0DDE9002304F0D6FF02460B46DDE90E01FA
S315080008D007F054F9002840F00D81A24500F0EA809F
S315080008E000225E4BDDE90E0106F0B8FE00225B4BE6
S315080008F0CDE90E01DDE9000106F0B0FECDE9000103
S31508000900C2E7DDE90E2306F0A9FEA046DDF80CA035
S31508000910CDE90E01DDE9000107F050F9054605F0BD
S31508000920F7F8024630350B46DDE9000104F0A2FF70
S315080009300AF8015B02460B46A245CDE900234FF0B3
S31508000940000223D1494BDDE90E0104F095FF02466A
S315080009500B46DDE9000107F011F9002840F0CA80CE
S3150800096000204249DDE90E2304F084FF02460B46C7
S31508000970DDE9000107F0E4F870B1C24608F1FF3876
S315080009801AF8013C302BF8D0374655E0334B06F0C1
S3150800099065FECDE90001BDE7DDE90A34CDE900349D
S315080009A0159B002BFFF628AE0E2F3FF725AE2E4BD4
S315080009B003EBC70393ED007B0C9B002B8DED047BAB
S315080009C002DAB9F1000F64D0DDF80CA0DDE90045C4
S315080009D0DDE904232046294606F06AFF07F0EEF80B
S315080009E0064605F095F8DDE9042306F037FE0246CB
S315080009F0204606F130040B46294604F03BFF0AF868
S31508000A00014B039C02460B46AAEB0404A14540F0A1
S31508000A10828004F031FF04460D46DDE9042307F021
S31508000A20ADF8002865D120462946DDE9042307F0FC
S31508000A307DF808B1F3075CD40299584606F09AF98E
S31508000A40002301378AF80030129B1F60219B002B78
S31508000A503FF421ACC3F800A01DE400BF0000244009
S31508000A6000001C4000001440209800080000E03FE9
S31508000A700000F03FA24B03EBC70393ED007B0C9BF2
S31508000A80002B8DED047B9FDAB9F1000F9CDC7FF417
S31508000A90C3AE00229B4BDDE9040106F0DFFDDDE96C
S31508000AA0002307F061F8044600287FF4B5AE3E46F9
S31508000AB02546B4E0DDE90A34CDE90034159B002B60
S31508000AC001DB0E2FD6DD089A012A36DC139A82B38B
S31508000AD003F23343099CDDF81880069A012158462B
S31508000AE01A440692079A1A44079206F0ADF9054683
S31508000AF086E53E4653469A4613F8012D392A06D10D
S31508000B00039A9A42F7D13022039901360A701A7865
S31508000B1001321A7038E700227B4B06F09FFD00224F
S31508000B20002304460D4607F001F800283FF450AFAD
S31508000B3082E7149BC3F13603CCE709F1FF34099B1E
S31508000B40A34208DBB9F1000FA3EB04040EDBDDF8C2
S31508000B5018804B46C1E7099B109AE31A0994DDF8F9
S31508000B60188000241A444B461092B6E7069BA3EB5E
S31508000B7009080023B1E7029E71E5099A029970E512
S31508000B80029672E5089B012B17DC009BABB9019B0B
S31508000B90C3F313039BB9019B23F00046360D3605B4
S31508000BA036B1069B012601330693079B013307934B
S31508000BB0109B002B7FF470AD1096012075E500267A
S31508000BC0F6E73FF486AD1C33069A1A449844069213
S31508000BD0079A1A4407927CE50346F4E7049B002B20
S31508000BE02BDC089B022B09DC27E0B9F1000F1DDC82
S31508000BF0089B022B1ADD3E46CDF81090049B002B6D
S31508000C007FF40CAE21460522584606F0D5F8014673
S31508000C100446029807F045FE00287FF7FFADDDF889
S31508000C200CA0312301360AF8013BFBE50D9B3E4635
S31508000C30CDF81090002B7FF483AD039F21460298D0
S31508000C4007F053FD039B00F13009049A07F8019B4E
S31508000C50FB1A9A4240F3CB8000230A22029958468F
S31508000C6006F0AAF80290E9E72A6905F10C010C30AA
S31508000C700232920007F024FD01223946584606F052
S31508000C80FDF9039BA846054603F1010ADDE903239E
S31508000C9013440793009B03F0010309930AF1FF33FA
S31508000CA021460298049307F020FD4146069000F17C
S31508000CB03009029807F0F5FD2A46214607465846A8
S31508000CC006F048FAC268014602B3584606F052F8DA
S31508000CD0002F3ADA01220299584606F0CFF9214642
S31508000CE0029007F0DEFD002803DC29D119F0010F78
S31508000CF026D0B9F1390F1DD132E02846C1E700BF29
S31508000D002098000800001440000024400A90029829
S31508000D1007F0C7FD0A990C90584606F02BF80C9A6E
S31508000D205ABB089B53B9099B43B9B9F1390F17D078
S31508000D30002F05DD069B03F1310901E0002F2ADAB1
S31508000D40DDF810A00AF8019B6EE5089B3B4304D129
S31508000D50009B03F00103002BBCD0B9F1390F36D143
S31508000D60049F392307F8013BBA46013F1AF8013CAC
S31508000D70392B5AD001333B7056E5002F06DB089B0A
S31508000D803B4306D1009B03F0010313B9002AA1DCFB
S31508000D90D6E7002AE1DC079B57460AF8019C53452B
S31508000DA02ED000230A220299584606F005F8A845CF
S31508000DB002904FF000034FF00A02414658460BD105
S31508000DC005F0FAFF804605460AF1010A66E7DDF8EE
S31508000DD010A009F10109B5E705F0EEFF294680469E
S31508000DE000230A22584605F0E7FF0546ECE7049B70
S31508000DF04FF00008002BCCBF1F460127039B1F445A
S31508000E0001220299584606F039F92146029007F060
S31508000E1048FD0028A8DC02D119F0010FA4D1BA4672
S31508000E2017F8013D302BFAD0FEE4039BBB429BD159
S31508000E303123039A01361370F6E4219B002B7FF4C5
S31508000E4025AA014BFFF744BAFD9600080348044B50
S31508000E50834202D0034B03B118477047081200209B
S31508000E600812002000000000064B0749C91A89101D
S31508000E7048BF0131491003D0044B0BB1014818474C
S31508000E80704700BF0812002008120020000000006A
S31508000E9010B5064C237843B9FFF7D8FF044B13B1B6
S31508000EA00448AFF300800123237010BDDA15002033
S31508000EB0000000004099000808B5054B1BB105491C
S31508000EC00548AFF30080BDE80840FFF7CDBF00BF77
S31508000ED0000000000812002040990008A3F5803A97
S31508000EE0704700BF174B002B08BF134B9D46FFF7F3
S31508000EF0F5FF00218B460F461348144A121A07F0CD
S31508000F00C6FB0E4B002B00D098470D4B002B00D08C
S31508000F1098470020002104000D000D48002802D043
S31508000F200C48AFF3008005F0C9FD2000290006F043
S31508000F307DFE05F037F800BF00000800000000003D
S31508000F4000000000001000200812002048160020AB
S31508000F50000000000000000010B5224805F038FC2B
S31508000F604FF4FA7004F002FB1F4805F04BFC1F48CB
S31508000F7005F02EFC0A242E2005F03CFC322004F055
S31508000F80F5FA013CF7D11A4805F03CFC194805F07A
S31508000F9039FC194805F036FC184805F033FC1248A8
S31508000FA005F030FC164805F02DFC00F0D5FC00F0E5
S31508000FB0F1F900F085FB0C4805F024FC114805F012
S31508000FC021FC00F005FD00F019FA00F0BBFB06480D
S31508000FD005F018FC0C4805F015FCBDE81040024861
S31508000FE005F010BCC08C0008C58C0008048D0008EC
S31508000FF0EC8D00081D8D0008458D00086D8D0008D4
S31508001000868D0008AC8D0008D48D000808B506F05A
S31508001010FDFD06F015FE4FF47A7004F0A7FABDE858
S315080010200840014805F0EEBBC58C000810B5102431
S3150800103000212246044807F02AFB2246BDE8104054
S315080010400021024807F023BBEB150020DB15002022
S315080010507FB5E8230428ADF80430ADF806000DD0B6
S31508001060012814D10B4BADF80C1002930A4B01A9B9
S31508001070186801F0DBF807B05DF804FB054BADF81E
S315080010800C100293054BADF814200493EEE76FF0AD
S315080010900300F0E7EB15002014100020DB150020F4
S315080010A070B50546FFF7C2FF0023184E022201213C
S315080010B004203370FFF7CCFF154B1C78CDB904F02C
S315080010C00703022B03D024F0070444F00204FFF7B9
S315080010D0ADFF012200230221104633707470FFF71A
S315080010E0B7FF88B1BDE870404FF4B071094806F003
S315080010F07EBE012DEBD104F00703032B1CBF04F0C1
S31508001100F80444F00304E2E770BD00BFEB150020C5
S31508001110DB150020EE8D000838B5FFF787FF0122A2
S315080011200023134C114604202370FFF791FF20B1CA
S3150800113040F26F110F4806F05AFE0F4B01201D783A
S31508001140FFF7AEFFFFF772FF0122002365F07F0568
S315080011500221104623706570FFF77AFF30B1BDE8AB
S31508001160384040F27D11034806F041BE38BD00BF45
S31508001170EB150020EE8D0008DB1500200A231A4423
S31508001180D2B29A420CD101280DD002280DD0C8B986
S315080011900D4B102A53F8210015D9103AD040704744
S315080011A00133DBB2EDE7094BF3E7094B0D2A53F898
S315080011B0210008D9A2F10E03032B4FEA500002D9E9
S315080011C0113AEBE700207047F48F0008C48F000837
S315080011D0948F00082DE9F84304462DED028B002074
S315080011E0FFF75EFFFFF722FF0623DFF814810222CE
S315080011F00121042088F80030FFF72AFF20B140F2C9
S31508001200EF11394806F0F3FD384F3E78FFF70EFF29
S3150800121008230222012104204FEA161988F8003013
S3150800122006F00F06FFF714FF20B140F2F9112E4819
S3150800123006F0DDFD4FF47A253B78324603F00303CA
S31508001240494620469D40FFF799FF08EE100A0120FF
S31508001250FFF726FFFFF760FFFFF7E8FE002388F891
S315080012600030022201210420FFF7F2FE7B785B079B
S31508001270F7D4FFF7DBFE012C2AD0022C0CBF04237F
S31508001280022302220121042088F80030FFF7E0FE3D
S3150800129020B140F21D21144806F0A9FDB54007EE1D
S315080012A0905AB8EE488AB8EE677A3B88C8EE077A4D
S315080012B007EE103AB8EEC77A67EE877A9FED0C7A92
S315080012C0012C67EE877A05D0022C0AD1094B02E079
S315080012D00323D6E7084BC3ED007ABDEC028BBDE8C5
S315080012E0F883064BF7E700BFEE8D0008DB150020F4
S315080012F000007A4420120020241200202812002020
S31508001300EB150020184B37B5186804F013FC174C7A
S31508001310CDE90001164A2146164805F059FA164B3A
S31508001320164D186804F006FC154ACDE90001214659
S31508001330284605F04DFA134B186804F0FBFB124AD1
S31508001340CDE900012146284605F042FA0F4B1868F8
S3150800135004F0F0FB0E4ACDE900012146284605F0C7
S3150800136037FA03B030BD00BF2C120020028E0008E9
S31508001370F68D0008098E000828120020358E000810
S31508001380268E000824120020538E00082012002002
S31508001390628E000838B50020FFF782FEFFF746FE8A
S315080013A00222114B50201A7004F0E0F801220420A2
S315080013B01146FFF74DFE04460C4D0D492A780D4897
S315080013C005F006FA24B140F256210B4806F00FFD47
S315080013D02B78212B06D0BDE8384040F25921064823
S315080013E006F005BD38BD00BFEB150020DB15002053
S315080013F0028E0008718E0008EE8D000870B533491C
S31508001400334805F0E5F90020FFF74AFEFFF70EFE20
S315080014100122002342262F4C0221104623706670B3
S31508001420FFF716FE0546324628492B4805F0D0F93F
S3150800143025B140F27321294806F0D9FC012206237A
S31508001440A6260221104623706670FFF701FE0546A0
S3150800145032461E49224805F0BBF925B14FF42071E2
S315080014601E4806F0C4FC0122072340260221104626
S3150800147023706670FFF7ECFD054632461349194896
S3150800148005F0A6F925B140F28D21144806F0AFFC07
S315080014900122082340250221104623706570FFF7B4
S315080014A0D7FD04462A4609490F4805F091F924B1A3
S315080014B04FF42771094806F09AFC04490B4805F0D1
S315080014C087F9BDE870400120FFF7EABD028E0008E3
S315080014D08B8E0008EB150020C28E0008EE8D0008E2
S315080014E0E78E00080E8F0008358F00085C8F00080D
S315080014F010B5102400212246044807F0C8F82246F1
S31508001500BDE810400021024807F0C1B80B160020BC
S31508001510FB150020F0B587B0FFF7EAFF4FF400701F
S3150800152004F024F80623224D224F234E2B70012364
S31508001530224C306801A9CDE90175ADF80C30049448
S31508001540ADF8143000F072FE20B14FF48F711C48CC
S3150800155006F04DFC23781B07E9D5FFF7C9FF0123E1
S315080015602B70ADF80C300323124A306801A9CDE977
S3150800157001250494ADF8143000F058FE20B14FF45C
S3150800158093710F4806F033FC637822781B0243EA0E
S315080015900243A278DFED0B6A134307EE903AF8EEA2
S315080015A0E77A87EEA67A084B83ED007A07B0F0BD96
S315080015B00B160020C000040014100020FB150020A4
S315080015C02490000800007A4730120020F0B587B052
S315080015D0FFF78EFF4FF4007003F0C8FF06231E4D79
S315080015E01E4F1F4E2B7001231E4C306801A9CDE9F2
S315080015F00175ADF80C300494ADF8143000F016FE01
S3150800160020B14FF4A071184806F0F1FB23781B07A8
S31508001610E9D5FFF76DFF04232B70104B3068CDE931
S3150800162001350123ADF80C30022301A90494ADF865
S31508001630143000F0FBFD20B14FF4A4710A4806F0FF
S31508001640D6FB2388DBBA07EE903AFAEECC7A074B3C
S31508001650C3ED007A07B0F0BD0B160020C0000400E9
S3150800166014100020FB1500202490000834120020D6
S315080016700C4B13B5186804F05DFA0B4CCDE9000164
S315080016800A4A21460A4805F0A3F80A4B186804F0E6
S3150800169051FA094ACDE900012146084805F098F8AB
S315080016A002B010BD30120020369000082D900008B8
S315080016B04090000834120020F68D00085A90000861
S315080016C030B587B0FFF714FF0C23174C5020237052
S315080016D003F04CFF154B01A9CDE901340123ADF800
S315080016E00C300823ADF81430114B124C18680494CA
S315080016F000F09CFD054622780F49104805F068F869
S3150800170025B140F26F110E4806F071FB2378C42B01
S3150800171004D04FF4B9710A4806F069FB07B0BDE872
S315080017203040FFF7E5BE00BF0B160020C0000400DE
S3150800173014100020FB15002036900008718E000852
S315080017402490000830B587B0FFF7D2FE2623274C31
S31508001750274D237038236370264B2868CDE901345A
S31508001760022301A9ADF80C3000F060FD20B140F26B
S315080017708711214806F03BFB20493822204805F00E
S3150800178027F813232370072363701A4B2868CDE9BB
S315080017900134022301A9ADF80C3000F047FD20B151
S315080017A040F29111144806F022FB14490722154805
S315080017B005F00EF826232370392363700D4B28682D
S315080017C0CDE90134022301A9ADF80C3000F02EFD55
S315080017D020B140F29911084806F009FB3922074959
S315080017E0074807B0BDE8304004F0F2BF0B160020EA
S315080017F014100020C000010024900008369000084C
S3150800180077900008A29000080122014B1A707047D1
S315080018101B1600204378027803F0FC0303EB02232F
S3150800182007EE103ADFED0D7AB8EEC77ADFED0C6AEF
S3150800183027EE277ADFED0B7A57EE267AF5EEC07A91
S31508001840B6EE007AF1EE10FA4CBF77EEC77A77EE6D
S31508001850877AFCEEE77A17EE900A704752B82F435C
S315080018600000803766663B42F5232DE9F04389B0D0
S315080018708DF80730284B294E0393022305460DF1B0
S315080018800707306803A90497ADF8143000F0CEFCBA
S3150800189018B1B621224806F0AAFA4FF4FA744FF0A6
S315080018A00209DFF88880013C22D202A806F0D1F9A5
S315080018B01C4B03A91860E0238DF807301A4B3068D3
S315080018C0CDE903370123ADF8143002AB06930223A2
S315080018D0ADF81C3000F0AAFC18B1CC21104806F06F
S315080018E086FA02A8FFF796FF286009B0BDE8F083DC
S315080018F002AB306803A9CDF80C800493ADF81490B8
S3150800190000F094FC0028CED1002CCED1C421044886
S3150800191006F06DFAC9E700BF800001001410002028
S31508001920CF900008641200208000040080000200A6
S3150800193010B5064C2046FFF797FF2368044A991E00
S315080019401160044A0233136010BD00BF6012002004
S31508001950581200205C1200204CF6FC1310B55020DB
S3150800196088B0ADF8003003F001FE144B03A90393C9
S315080019700223ADF8143001AB06930823ADF81C30EA
S315080019800F4BCDF810D0186800F050FC04469DF8AF
S3150800199004200C490C4804F01BFF24B140F227111F
S315080019A00A4806F024FA9DF80430152B04D04FF4A3
S315080019B09571064806F01BFA08B010BD80000400B1
S315080019C014100020D7900008718E0008CF900008E8
S315080019D007B5FFF7ADFF4FF47A7003F0B5FD0023A6
S315080019E00146CDE90033034A034806F0E2FB03B09B
S315080019F05DF804FB091800083812002010B5274CBA
S31508001A0001F022FC01F04AFE236F23F0070343F09E
S31508001A100303236706F065FA214B00209B6ADB0166
S31508001A205EBF4FF480321F4B9A62D4F8203123F000
S31508001A30070343F00203C4F82031D4F8283123F011
S31508001A40070343F00203C4F82831D4F8403123F0E1
S31508001A50030343F00203C4F84031D4F8603123F09D
S31508001A60030343F00203C4F86031D4F8403223F08C
S31508001A70030343F00203C4F84032D4F8003223F0DB
S31508001A80070343F00203C4F80032D4F8083223F0FF
S31508001A90070343F00203C4F8083210BD0080005063
S31508001AA00040005A0060005A08B53A20012101F0AA
S31508001AB07BF9BDE80840014800F00CBB0010002087
S31508001AC030B5294D9DB008AC0FCD0FC495E80F0071
S31508001AD084E80F002A2200210DF1460006F0D7FD02
S31508001AE0224B012410935623129308231593092396
S31508001AF017930523199303230E2200210DF11200D3
S31508001B008DF845408DF860408DF8443006F0BFFDED
S31508001B104FF47020164B08AACDE902030B238DF863
S31508001B2010300C238DF81130124B134805932023DF
S31508001B300693124B02A9009310AB8DF81D4003F0D3
S31508001B4039F8044618B17C210D4806F050F99DF87D
S31508001B501E304FF4E130002B0CBF0321002106F0A4
S31508001B6023F920461DB030BD109100080000015B26
S31508001B703C00015B1C160020CC12002068120020D5
S31508001B80DE900008014806F08FBA00BFCC1200208C
S31508001B9008B5044806F043F9BDE80840024806F0CF
S31508001BA03EB900BF4891000830910008082808B5DA
S31508001BB00ADC00280EDD013807280BD8DFE800F01C
S31508001BC00C140A1A0A0A0A1C202819D0402819D007
S31508001BD0102813D0D82108E003210123084604223F
S31508001BE002F0EAF9002008BD9221074806F0FFF83E
S31508001BF00E20F8E79F21F8E7AC21F6E7B921F4E7CC
S31508001C00C621F2E7D321F0E7609100081022024BC3
S31508001C10C3F8A020704700BF00D003501022024B23
S31508001C20C3F8A020704700BF00E0035070B5404DD0
S31508001C3088B001AC0FCD0FC495E8070084E807000B
S31508001C40012401213A2001F0AFF83A4E012129205A
S31508001C5001F0AAF8384B304601A903938DF81240D3
S31508001C6002F0CEFD234621460422022002F0A4F902
S31508001C70022122460846002302F09EF92346042242
S31508001C800321022002F098F9042223461146022075
S31508001C9002F092F9294D2A4B4FF44870C5F83437AB
S31508001CA04FF00213C5F83037A3F58033C5F8383737
S31508001CB01C23C5F8203703F0ADFD1420FFF7AEFF4F
S31508001CC003F0A8FD2320FFF7A1FF03F0A3FDB92128
S31508001CD03046FFF7A3FF06F05EF9FFF797FF0023EC
S31508001CE021461A46022002F067F9002302211A4605
S31508001CF0084602F061F9234600220321022002F079
S31508001D005BF9234600220421022002F055F93046E9
S31508001D1002F04AFD00212920C5F83417C5F8301706
S31508001D20C5F83817C5F8201701F03EF808B070BD99
S31508001D30A091000800C0055000127A0000C00350A8
S31508001D40020003000348044A0449121A921006F0D6
S31508001D503BB800BF5C9B00085C9B00084816002047
S31508001D6008B500F02FF8FFF7EDFF124B12498B422A
S31508001D7012D30020114B12498B4218D3FFF7B2F841
S31508001D80186850F82240586840F82240013298688E
S31508001D908242F5D30C33EAE70022F8E71C6844F8D8
S31508001DA0220001325C68A242F8D30833E4E7002235
S31508001DB0F8E700BF489900085499000854990008A4
S31508001DC0549900084FF480414FF0FF30114B124AE6
S31508001DD010B59A60D3F8882042F47002C3F88820B8
S31508001DE00E4A91660E4901F5005210660D48506676
S31508001DF00220C3F8D000BFF34F8FBFF36F8F0124C3
S31508001E004FF440330848C0F88041D36004600B6142
S31508001E1010BD00BF00ED00E0000000080090005073
S31508001E2000800044F7FF370000E100E0014B186826
S31508001E30704700BF1C100020084B1B6F03F00703F8
S31508001E40022B04D0032B05D0012B05D0FEE7044B4B
S31508001E5018687047034BFBE703487047008000503B
S31508001E601C10002024100020002D310108B5FFF7B2
S31508001E70E3FF054B1B6FC3F303330133B0FBF3F0EA
S31508001E80024B186008BD00BF0080005018100020E3
S31508001E900048704700B4C404014B1868704700BF77
S31508001EA024100020054B1860054B1B6F03F0070331
S31508001EB0032B01D1FFF7DABF704700BF24100020BB
S31508001EC00080005000487047002D31014FF0B443A0
S31508001ED09868C0F304400C280AD8DFE800F00B091C
S31508001EE009090909072119091B1D1F000F48704711
S31508001EF0002070479B6803F04073B3F1807F11D0D0
S31508001F00B3F1007F10D00A4A002B08BF104670476D
S31508001F100848704708487047084870470848704797
S31508001F20084870470848704708487047405DC6002B
S31508001F3000093D00C0EA210180BA8C010048E80189
S31508001F40005A62020024F40080841E0040420F00FA
S31508001F50014B1868704700BF201000200346054A49
S31508001F600549106803448B428CBF4FF0FF3013605D
S31508001F70704700BF281000200000042008B5012182
S31508001F803A2000F011FF012304220321002002F069
S31508001F9013F8002005F0FEFF0122354B3549C3F83A
S31508001FA044244FF40022A3F550335A66324BD3F833
S31508001FB0FC20D20146D4D1F8803023F0030343F045
S31508001FC00203C1F880304FF4607000F015FF2A4B09
S31508001FD000F5D520D3F8F02000F2FC4042F00102CB
S31508001FE0C3F8F020D3F8FC2042F08072C3F8FC2036
S31508001FF0224AA3F55D431A60214B0222B0FBF3F097
S31508002000204B01381861C3F8F0204FF48072C3F8EA
S3150800201004234FF060431C4A0020C3F8B02F1B4A24
S31508002020C3F8802ED3F8002E42F48072C3F8002E2F
S31508002030FF2283F82020D3F8002E22F48072C3F8FA
S31508002040002E08BDD3F8FC2022F08072C3F8FC20CD
S31508002050D1F8802022F0030242F00202C1F8802063
S31508002060D3F8FC2042F08072C3F8FC20ABE700BF2F
S3150800207000D003500080005000ED00E0FF03004050
S31508002080F8590D00000004E055CEACC50900010062
S315080020904FF06043D3F8802E30B5D20715D501240A
S315080020A00B4D8440D5F8FC2042F08072C5F8FC2020
S315080020B0D3F8002E2243C3F8002E53F82020002A16
S315080020C0F0D003F82010002030BD1120FCE700BF37
S315080020D000ED00E02DE9FF47044618B939214D48BF
S315080020E005F085FE2368B3F1B64F09D04A4A9342F4
S315080020F07BD04F21474804B0BDE8F04705F077BECE
S315080021002E20012100F050FE01230A226179207950
S3150800211001F052FF01230A22E179A07901F04CFF70
S315080021200A27DFF80081DFF800913C4D267994F8FC
S3150800213005A0032E05D839F8163023FA0AF3DA076C
S3150800214004D440F2FE31404605F051FE3022012308
S3150800215002FB065603FA0AF306F5015633606420B5
S3150800216003F058FB267994F805A0032E06D82C4BC5
S3150800217033F8163023FA0AF3DB0704D440F22D416C
S31508002180404605F034FE3022012302FB065603FAC8
S315080021900AF306F582566420336003F03BFB013FE1
S315080021A0C4D12068B0F1B64F21D10323C5F8E8346D
S315080021B06279237943EA0243C5F8EC34E279A379D4
S315080021C043EA0243C5F8F03440F20113ADF8003093
S315080021D0E36869460293A3680193237C8DF80C3063
S315080021E001F0D4FF04B0BDE8F0872F2089E70A4B39
S315080021F09842E9D10323C5F8F8346279237943EA8A
S315080022000243C5F8FC34E279A37943EA0243C5F8E8
S315080022100035D9E7BC9100080080065000C003507D
S315080022205E920008F69100085E92000838B50546E9
S3150800223002F0F0F8044C012801D1013C00D138BD68
S31508002240284601F0D5FFF6E7E1930400032838B5E0
S3150800225004460D4605D8094B33F81030CB40DB074A
S3150800226004D440F2FE31064805F0C1FD30230122B0
S315080022705C43044BAA401A5138BD00BF6692000859
S31508002280F691000840E00350032838B504460D4689
S3150800229005D8094B33F81030CB40DB0704D440F29D
S315080022A02D41064805F0A3FD302301225C43044B6B
S315080022B0AA401A5138BD00BF66920008F691000878
S315080022C040D0035038B504784578032C05D8094B17
S315080022D033F81430EB40DB0704D44FF48961064821
S315080022E005F085FD302301225C43044BAA401A51B0
S315080022F038BD00BF66920008F691000840F003500A
S3150800230070B505780446032D467805D80C4B33F886
S315080023101530F340DB0704D44FF48361094805F010
S3150800232066FD1022302313FB0523074A9B58F3400A
S3150800233003F00100A3780BB980F0010070BD00BF5F
S3150800234066920008F691000830C003502DE9F04F58
S315080023509A46564B85B01B7806460F461546DDF855
S315080023603C909DF844B0DDF85080002B00F0978033
S31508002370072A00F296800E9B002B00F09280B9F196
S31508002380000F00F08E80129BB3F5006F00F3898072
S31508002390012803D1109B002B00F08380444B03EBEC
S315080023A005131B7B002B7ED0424C10220021684669
S315080023B006F06DF904EB45141022A7BB39462046F2
S315080023C006F065F943F210036380BBF1000F03D1F1
S315080023D0E37843F00303E370364A0E9B02EB451C91
S315080023E0CCE90193129B6901581E9DF84C30C0F345
S315080023F00A0003F003039B0643EA001E53582E48BF
S31508002400012E00EA03004EEA0003CDF800A053505F
S3150800241017D0B8F1000F2ED19CF8023068F30413D8
S315080024208CF8023027E00021204606F030F94FF4F8
S3150800243044736380BBF1000FCED1E37843F03003D9
S31508002440C9E713230CF1100ECCF80C309CE80F00EA
S315080024508EE80F006FF00301DCF81C20109B61F377
S315080024609F02012FCCF81C20CCF8143003D1CCF8ED
S315080024701890CCF8043000270D4A290102EB051301
S3150800248042F80180159A28465A60694622469F6096
S315080024905E7302F0A5F8384605B0BDE8F08F074828
S315080024A0FAE70748F8E70748F6E700BF3C160020B2
S315080024B0E4130020E41200200F80FFF3028000F0EE
S315080024C0018000F0078000F038B5124B05461B78EE
S315080024D0DBB1E0B105F021FD0F4A00231146147B5C
S315080024E054B92B6001251A0101EB03131D738C5097
S315080024F005F019FD204638BD0133082B02F11002FC
S31508002500EDD105F010FD0548F5E70548F3E7054860
S31508002510F1E700BF3C160020E4130020048000F019
S31508002520028000F0018000F038B505F0F6FC0023C3
S3150800253005460B4A147B6CB90133082B02F11002CD
S31508002540F8D101F0C5FF074B28461C7005F0EBFCD7
S31508002550204603E0284605F0E6FC034838BD00BFE0
S31508002560E41300203C160020058000F00D4B10B542
S315080025701B78044693B1072812D805F0CEFC0A4BFF
S3150800258003EB04131A7B2AB100241C7305F0CBFC59
S31508002590204610BD05F0C7FC0448FAE70448F8E7EA
S315080025A00448F6E73C160020E4130020068000F0F5
S315080025B0028000F0018000F0154B13B5186800235F
S315080025C001908DF8043005F0A8FC124B1C7824B154
S315080025D005F0A9FC104802B010BD01221A7005F0DA
S315080025E0A2FC0E4B01A81C731C7783F82C4083F8B9
S315080025F03C4083F84C4083F85C4083F86C4083F891
S315080026007C4008238DF8073001F0A0FF2046E2E75A
S315080026106E9200083C160020038000F0E4130020A8
S315080026200A4A08B512785AB107280BD8084A02EBA5
S3150800263000131B7B43B1002101F068FF002008BD91
S315080026400448FCE70448FAE70448F8E73C16002083
S31508002650E4130020028000F0018000F0078000F0FB
S315080026600A4A08B512785AB107280BD8084A02EB65
S3150800267000131B7B43B1012101F048FF002008BD70
S315080026800448FCE70448FAE70448F8E73C16002043
S31508002690E4130020028000F0018000F0078000F0BB
S315080026A00A4A08B5127852B107280AD8084A02EB2E
S315080026B000131B7B3BB102F015F8002008BD054846
S315080026C0FCE70548FAE70548F8E700BF3C1600208E
S315080026D0E4130020028000F0018000F0078000F07B
S315080026E00D4B1B7893B1072812D889B10B4B03EB16
S315080026F000131B7B73B10A4B1A6D012383401342E7
S3150800270014BF0123002300200B707047054870474B
S3150800271005487047054870473C160020E41300201A
S3150800272000000450028000F0018000F0078000F0ED
S315080027300B4A10B512780C4662B107280CD859B165
S31508002740084A02EB00131B7B43B101F0E7FF207038
S31508002750002010BD0448FCE70448FAE70448F8E7F7
S315080027603C160020E4130020028000F0018000F0EF
S31508002770078000F0184B2DE9F0411F6D5B6D1F4077
S3150800278000D5FEE701260025144CDFF858803742AD
S3150800279018D02368C8F85060A3B1A168284601314B
S315080027A06268A1609847637B012B0BD150B90C4B2B
S315080027B003EB45131A7B60F341021A731A7F60F321
S315080027C041021A770135082D4FEA460604F110042E
S315080027D0DDD1BDE8F08100BF00000450E4130020FD
S315080027E0E412002000200450044BD3F88420D206BB
S315080027F0FBD4D3F88400C0F3811070470040005022
S3150800280038B5124B0546D3F880300C4603F003035F
S31508002810022B0BD0032B0DD0012B0FD1FFF70CFB8E
S315080028200E2305B1286004B1236038BDFFF74EFBBF
S315080028300723F6E7FFF7FAFA0623F2E7044841F218
S31508002840DF1105F0D4FA00231846EAE700800050A5
S315080028507292000838B51A4B0546D3F820010C4683
S3150800286000F00700062821D8DFE800F028040C1439
S3150800287010181C00FFF7DAFA052305B1286004B121
S31508002880236038BDFFF708FB0323F6E7FFF71EFBB7
S315080028900723F2E7FFF716FB0223EEE7FFF7C6FA70
S315080028A00623EAE7FFF7F8FA0423E6E7054841F2C4
S315080028B05C2105F09CFA00231846DEE70123DCE7D5
S315080028C0008000507292000838B5194B0546D3F8B7
S315080028D028310C4603F00703013B052B20D8DFE817
S315080028E003F003131B0F0B17FFF7A0FA052305B117
S315080028F0286004B1236038BDFFF798FA0623F6E787
S31508002900FFF7E4FA0723F2E7FFF7C6FA0323EEE731
S31508002910FFF7C2FA0423EAE7FFF7D4FA0223E6E749
S31508002920044841F2640105F062FA00231846DEE71E
S315080029300080005072920008F7B50027144B0197E3
S31508002940D3F88041064604F00304022C0D4614D041
S31508002950032C0DD0012C14D1394601A8FFF77AFFB4
S3150800296010240EB1019B336005B12C6003B0F0BD95
S31508002970FFF7ACFA07240190F3E7FFF7A3FA0190F3
S31508002980EFE741F2B131034805F031FA3C46E8E792
S315080029900080005072920008002337B50193194B46
S315080029A00546D3F820320C4603F00703042B1FD83C
S315080029B0DFE803F025030F141900002101A8FFF72B
S315080029C083FF12230DB1019A2A6004B1236003B074
S315080029D030BDFFF77BFA07230190F3E705F001FA0C
S315080029E00A230190EEE7FFF7B3FA09230190E9E716
S315080029F041F22301044805F0FAF90023E2E701232E
S31508002A00E0E700BF008000507292000838B5104B0E
S31508002A100546D3F840310C4603F00303022B0BD0CE
S31508002A20032B0DD0012B0FD105F0DBF90A2305B1D5
S31508002A30286004B1236038BDFFF78AFA0923F6E750
S31508002A4005F0D2F90C23F2E701230020EFE700BFD7
S31508002A5000800050002337B50193184B0546D3F87C
S31508002A6060320C4603F00703013B032B1FD8DFE84F
S31508002A7003F0020E1914002101A8FFF7EBFE10233C
S31508002A800DB1019A2A6004B1236003B030BD00215C
S31508002A9001A8FFF7BBFF1123F2E7FFF717FA072391
S31508002AA00190EDE7FFF70EFA02230190E8E741F2FD
S31508002AB0C801034805F09BF90023E1E700800050B0
S31508002AC072920008002337B50193184B0546D3F8D0
S31508002AD094320C4603F00703013B032B1FD8DFE8AB
S31508002AE003F0020E1914002101A8FFF7B3FE102304
S31508002AF00DB1019A2A6004B1236003B030BD0021EC
S31508002B0001A8FFF783FF1123F2E7FFF7DFF9072391
S31508002B100190EDE7FFF7D6F902230190E8E741F2C5
S31508002B20FB01034805F063F90023E1E70080005044
S31508002B307292000873B500240F4B0194D3F87032D3
S31508002B40064603F00303012B0D4607D0022B11D0CE
S31508002B5041F22611094805F04AF904E0214601A880
S31508002B60FFF754FF11240EB1019B336005B12C60A9
S31508002B7002B070BD1524F6E7008000507292000876
S31508002B8038B5164B0546D3F800020C4600F0070088
S31508002B90042819D8DFE800F020030B0F130005F00E
S31508002BA020F90A2305B1286004B1236038BDFFF770
S31508002BB0CFF90923F6E705F017F90C23F2E7FFF733
S31508002BC055F90F23800AEDE7054841F26F4105F0F4
S31508002BD00EF900231846E5E70123E3E700800050D5
S31508002BE07292000838B5164B0546D3F808020C460B
S31508002BF000F00700042819D8DFE800F020030B0FBF
S31508002C00130005F0EEF80A2305B1286004B1236025
S31508002C1038BDFFF79DF90923F6E705F0E5F80C231B
S31508002C20F2E7FFF723F90F23800AEDE7054841F29B
S31508002C30A74105F0DCF800231846E5E70123E3E79A
S31508002C40008000507292000838B5104B0546D3F83C
S31508002C5040320C4603F00303022B0BD0032B0DD096
S31508002C60012B0FD105F0BDF80A2305B1286004B180
S31508002C70236038BDFFF76CF90923F6E705F0B4F8C9
S31508002C800C23F2E701230020EFE700BF0080005085
S31508002C9038B5104B0546D3F860310C4603F00303EC
S31508002CA0022B0BD0032B0DD0012B0FD105F099F871
S31508002CB00A2305B1286004B1236038BDFFF748F937
S31508002CC00923F6E705F090F80C23F2E70123002024
S31508002CD0EFE700BF00800050B0F5207F10B52ED07A
S31508002CE009D8B0F5007F24D003D868B1B0F5C07F05
S31508002CF00AD000241BE0B0F5607FFAD1124BD3F856
S31508002D008040C4F3011412E00F4B1C6F230B13F021
S31508002D100E0FC4F303340AD0072C08D00F2C06D0A4
S31508002D20032C04D040F28521084805F060F8601CA1
S31508002D3010BD054BD3F89040C4F30464F7E7024B83
S31508002D401C6FC4F38024F2E70080005072920008DA
S31508002D504FF4803238B5104B04469A6600200D466B
S31508002D60FFF7BAFF41F671320C4B6043DC69DA6350
S31508002D705A6804F4803422F440125DB9084988423E
S31508002D8094BF00200120000502435A600CB10022BE
S31508002D90DA6338BD0349F2E700900050000003509B
S31508002DA0005A6202002D310138B5430904460D4622
S31508002DB00ED140F22F310D4805F019F8002304F022
S31508002DC01F0485B103F580530122A2401A6038BD5D
S31508002DD0012B04D0022B04D040F23D31EBE7044B23
S31508002DE0EDE7044BEBE703F50053EDE772920008B5
S31508002DF06480005068800050002130B5802885B076
S31508002E000446CDE9001100F09F8035D85E2846D8E3
S31508002E105E2844D8DFE800F09E43434343434343D8
S31508002E204343434343434343434343434343434364
S31508002E3043434343434343439EAB9EABBBBBBBBBEE
S31508002E40BBABC550DB7450ABABAB434343434343C7
S31508002E504343ABABAB7CE5AB4343434343434343B9
S31508002E604343434343BB9E9E9EE05050EA8B61C05A
S31508002E704343434343939E00B0F5B06F00F09180FF
S31508002E8030D8B0F5207F72D00FD8B0F5C07F61D0AA
S31508002E90B0F5007F61D0B0F5807F00F0878040F202
S31508002EA09441554804F0A3FF51E0B0F5607F69D01E
S31508002EB00DD8B0F5407FF2D1FEF7D8FF04464FF49F
S31508002EC02070FFF709FFB4FBF0F4640858E0B0F58A
S31508002ED0806F5CD0B0F5A06FE1D100216846FFF79E
S31508002EE05BFD34E0B0F5106F76D016D8B0F5E06F1C
S31508002EF077D00AD8B0F5C06F69D0B0F5D06FCED10B
S31508002F0000216846FFF73CFE21E0B0F5F06FC6D118
S31508002F1000216846FFF7BCFE19E0B0F5406F3BD0CC
S31508002F200AD8B0F5206F61D0B0F5286FB7D1002167
S31508002F306846FFF7FFFD0AE0B0F5486FAFD10021FC
S31508002F406846FFF7BFFD02E0FEF776FF009000989F
S31508002F5005B030BDFEF78AFFF8E7FEF76DFF0546B8
S31508002F602046FFF7B9FEB5FBF0F50095EFE7FEF74B
S31508002F707DFF04464FF42070FFF7AEFEB4FBF0F475
S31508002F800094E4E701A8FFF73BFC019DE8E7002170
S31508002F906846FFF75FFCDAE700216846FFF794FC0E
S31508002FA0D5E700216846FFF7C7FCD0E74FF0E023D6
S31508002FB002911B695B0705D5FEF758FF0290029B35
S31508002FC00093C4E703A902A8FFF720FDF7E700214D
S31508002FD06846FFF71BFDBAE700216846FFF702FEC1
S31508002FE0B5E700216846FFF72FFEB0E700216846DF
S31508002FF0FFF730FDABE700BF7292000808B58020E6
S31508003000FFF7FAFE034B98429EBF4FF48032024BFD
S315080030101A6708BD005A620200A000501FB5034691
S315080030200020B3F5807F019000F0C28063D85D2B45
S3150800303054D84C2B06D82D2B46D8232B2AD840F209
S315080030407951A4E04D3B102BF9D801A252F823F090
S31508003050A73100083F3000083F3000083F3000081D
S31508003060593100083F3000083F3000082B3200086D
S31508003070773100081D310008213200083F3000086A
S315080030803F3000083F3000083F3000083F30000856
S3150800309035320008243B092BD1D801A252F823F077
S315080030A0A7310008A7310008A7310008A731000892
S315080030B0A73100083F300008973100083F30000864
S315080030C039310008DD3100083D2B00F082803E2BA7
S315080030D0B5D1002001A9FFF7B7FD60E0802BAED17E
S315080030E0574B1B6F03F00703013B032B4DD8DFE853
S315080030F003F04A47878FB3F5F06F6AD021D8B3F546
S31508003100B06F48D00FD8B3F5607F00F0858096D3AE
S31508003110B3F5806F47D0B3F5A06F90D1002001A911
S31508003120FFF73AFC3BE0B3F5D06F57D0B3F5E06F45
S31508003130CFD0B3F5C06F82D1002001A9FFF766FC96
S315080031402DE0B3F5206F70D00BD8B3F5086F4AD0D1
S31508003150B3F5106F7FF473AF002001A9FFF742FDA6
S315080031601DE0B3F5406F5BD0B3F5486F62D0B3F599
S31508003170286F7FF464AF002001A9FFF7DBFC0EE09F
S31508003180052301930BE00223FBE740F2C6412D48D5
S3150800319004F02DFE03E0002001A9FFF7CDFB0198FE
S315080031A005B05DF804FB002001A9FFF753FBF6E71D
S315080031B04FF0E02302901B695B0705D5FEF756FE24
S315080031C00D230393039BDCE703A902A8FFF71EFC64
S315080031D0F8E7002001A9FFF75BFDE0E7002001A959
S315080031E0FFF7CEFCDBE7164BD3F8003103F00303F9
S315080031F0022B07D0032B09D0012B0BD1FEF74CFE6F
S315080032000323BEE7FEF7A4FE0923BAE704F0E7FDA9
S315080032100823B6E70123B4E701A9FFF7F1FABEE7E9
S31508003220002001A9FFF750FBB9E7002001A9FFF725
S3150800323011FCB4E7002001A9FFF744FCAFE700BF83
S3150800324000800050729200084FF48012034B5A66B1
S315080032504FF48032024B9A62704700BF00900050CC
S315080032600050005A38B5036804460F2B04D940F6B7
S315080032706D317C4804F0BBFD63680F2B04D94FF40D
S315080032803761784804F0B3FDA3680F2B04D940F6DC
S315080032907331744804F0ABFD237B0F2B04D940F639
S315080032A07631704804F0A3FD637B0F2B04D940F6F2
S315080032B079316C4804F09BFDA37B3F2B04D940F67B
S315080032C07C31684804F093FDE37B3F2B04D940F634
S315080032D07F31644804F08BFD2369032B04D940F63B
S315080032E08231604804F083FD6369032B04D940F6F4
S315080032F085315C4804F07BFDE369032B04D940F66D
S315080033008831584804F073FD8020FFF787FE0328AC
S3150800331000F083804FF48012534B4FF0A0615A6639
S3150800332045F60E02514BC3F88020514A91624FF47C
S31508003330803102F5805291629A6DD203FCD4996D60
S3150800334011F08041FBD1D4E90002120542EA00627D
S31508003350E07B0243207B42EA0042607B42EA00327D
S31508003360A07B42EA80121A619869D4E904521206CF
S3150800337042EA856200F000400243A07EE57E0243F1
S31508003380207E42EA0042607E42EA00229A611A6A78
S31508003390E06922F00F0242EA8502364D00283DD147
S315080033A01A6294F82420996A94F82000D2002940D9
S315080033B042EA40120A4394F8211042EA011242F402
S315080033C080329A622C49294A936D31EA0303FBD16C
S315080033D04FF08071264881621369A56823F470034B
S315080033E043EA055313614FF00043836194F8223092
S315080033F00BB9224B996294F823303BB94FF48032CB
S315080034001E4B9A62194A936D5B00FCD494F82530DA
S315080034101BB1164B1A4AC3F8802038BD024342F046
S31508003420080202281A6208D119614FF408529961F4
S3150800343014484FF47F4104F032FD0C4994F82230C9
S315080034408A6A94F820001B062A4043EA401313436D
S3150800345094F8242043EAC20394F8232043EA02435B
S315080034608B62D3E772920008009000500040005A21
S315080034700050005AC7FFFEFE030001000060005A14
S31508003480F1A7FFFF3440005A014B93F9000070473B
S31508003490FE110020436810B5072B044604D940F6F0
S315080034A0B3512A4804F0A3FCA368032B04D940F6B9
S315080034B0B551264804F09BFC2378032B04D940F623
S315080034C0B751224804F093FC94F90130002B04DA32
S315080034D040F6B9511D4804F08AFC4FF400011C4A15
S315080034E0637851664FF4D151022002F5B832516221
S315080034F018494F2B48604FF0010028BF4F2301F5AC
S31508003500805148601169C903FCD4217843EA012334
S315080035105361D4E901131B0143EA0123617B0B4381
S31508003520217B43EA41039360E37BA17B1B0143EACA
S315080035304113617C0B43217C43EA41035360A37C1E
S3150800354013B16FF4D153536210BD00BF72920008D5
S315080035500090005000100250014B1880704700BFC1
S31508003560F6110020014B1880704700BFF4110020A7
S31508003570B0F5207F38B577D00ED8B0F5007F61D08A
S3150800358003D890B3B0F5C07F2FD040F21231BDE812
S3150800359038403D4804F02BBCB0F5607FF5D13B4A76
S315080035A04C1ED2F8FC5015F080751EBFD2F8FC30C0
S315080035B023F08073C2F8FC30032C04D940F2F221C0
S315080035C0314804F014FC324AD2F8803023F0300334
S315080035D043EA0413C2F8803035B12C4AD2F8FC30DD
S315080035E043F08073C2F8FC3038BD4C1E012C0AD952
S315080035F0102903D8274BCB40DB0704D440F2C72158
S31508003600214804F0F4FB04F059FC04F065FC4FF47F
S315080036108031214B1E4A1967136F23F4704343EA1E
S3150800362004331367FEF722FC0446FFF7DDF8C0F102
S315080036300201204604F04AFC00F040F8BDE8384094
S31508003640FFF7DCBC4C1E1F2C04D940F206310E488D
S3150800365004F0CDFB0E4AD2F8903023F0F85343EA33
S315080036600463C2F89030BFE74C1E012C04D94FF40E
S315080036704371054804F0BBFB054A136F23F48063C6
S3150800368043EA84231367AFE77292000800ED00E06F
S3150800369000800050100101000090005008B501217B
S315080036A0022000F02FF804F009FC04F015FC4FF492
S315080036B08032014B1A6708BD0090005008B54FF4D8
S315080036C0C070FFF799FBBDE808400449884294BFDB
S315080036D0012102214FF42070FFF74ABF80F0FA0259
S315080036E0024A536B0342FCD1704700BF00400950A1
S315080036F0034A0179D36E23F030030B43D366704730
S3150800370000400050F8B50446244BD3F88420D00670
S31508003710FBD4D3F88430C3F381139C423CD0FEF724
S315080037208BFB012C05460BD11D4B984204D940F260
S3150800373081711C4804F05BFB0121284604F0C6FB96
S3150800374004F0E4FB4FF00072174B07465A66204612
S3150800375004F0ECFB4FF48063104E621E934033670F
S31508003760736E9A0103D4D6F884309B060AD5384678
S3150800377004F0D0FB022C0FD12846BDE8F840002102
S3150800378004F0A4BBD6F884309906E9D540F28F71C7
S31508003790044804F02CFBE3E7F8BD00BF00400050E6
S315080037A0005A6202A19200080060005010B50C464B
S315080037B008B9FEF741FB074B21461B783BB1064B80
S315080037C0984204D80120BDE81040FFF79BBF0220AD
S315080037D0F9E700BF3D160020005A62024FF000428A
S315080037E038B5244B244C5A664AF6CD33656C0146E7
S315080037F005F00105236428BB0120FFF771FF636804
S31508003800DB0715D51D4B586008461D4B226BD207A2
S315080038100CD4984208D1072415B1174B194A1A64D3
S3150800382004F085FB204638BD0130EFE79842F2D018
S315080038300024F1E70132236B13F0080305D08A420E
S31508003840F8D1E8E700220E49F5E78A42E3D02021BD
S315080038500A4A91620121A2F5805251600649084A36
S31508003860886A800603D49342D5D00133F8E7934299
S31508003870DDE700BF00900050004009500060095085
S3150800388040420F003254FFFF4FF0004238B5164B46
S3150800389001465A664AF6CD33144C154A656C2364BC
S315080038A043780B205B0043F00103D363FFF718FF4F
S315080038B063688A7823F4F87343EA02136360CA7864
S315080038C04B7943EA0223A3600A798B7943EA0223F8
S315080038D023610878FFF782FFEB0744BF054B236493
S315080038E004F025FB012038BD009000500040095027
S315080038F0004000503254FFFF0F2870B5044605D922
S3150800390040F61C61124804F072FA0F244FF0004288
S31508003910104B11495D6E03F580535A664AF6CD334E
S315080039204E6C80200B64FFF7DBFE0B6A23F00F0357
S3150800393023430B62F30744BF084B0B64002DA2BF59
S315080039404FF00042064B5A6604F0F1FA70BD00BF0C
S31508003950A192000800800050004009503254FFFF31
S3150800396000A0005010B504F0E7FA042300F58051D2
S3150800397000F500520B6113610B6113610B61136152
S315080039800B611361202341F2020103610023C36026
S31508003990836041614FF4A0218361836541620549D3
S315080039A0C36103628362C36243630365D1640363CD
S315080039B010BD00BFFF3F0D0338B5174B04469842AC
S315080039C00D4607D0154B984204D04FF4B3711448EE
S315080039D004F00DFA25B92046BDE8384004F0ACBA23
S315080039E0012204F580535A6040F6FF71204605F01F
S315080039F00F0204F09DFAA263782104F099FA05F003
S31508003A0001036A0748BF43F00203A26C02F00302EF
S31508003A109A42FAD138BD00BF0000015B00000A5087
S31508003A20D0920008F8B505460C46164622B94FF45A
S31508003A3009716B4804F0DBF96A4B9D4202D19CB9C7
S31508003A4056240DE0684B9D4247D040F22721644832
S31508003A5004F0CDF944B940F27631614804F0C7F96B
S31508003A602046FFF7C9F90446AB68D80745D5B442DE
S31508003A7004D240F231215A4804F0B9F9B4FBF6F4FD
S31508003A806F68013CFF2C07F0010704D940F2392181
S31508003A90534804F0ACF924064FB32821284604F00D
S31508003AA047FAAB6C99071CD1AB6CDA071BD4AE6C22
S31508003AB016F0020619D140F24621494804F097F952
S31508003AC0284604F039FA2B69314623F07F4323430D
S31508003AD02B61BDE8F840FFF76FBF002CC4D157240F
S31508003AE0BEE70526ECE70926EAE70626E8E72B6996
S31508003AF023F07F4323432B61F8BD6B68012B04D069
S31508003B0040F25921364804F072F9AB6DDB07AB6811
S31508003B1048BF760003F0E003402B42D009D893B1A2
S31508003B20202B1AD040F29B21BDE8F8402C4804F01F
S31508003B305EB9602B42D0802BF4D106EB4603A34234
S31508003B4047D801230DE0B6EB141F04D940F28121B2
S31508003B50234804F04CF9102303E0B6EBD40F1AD827
S31508003B60082373436401B4FBF3F4204F203CB7EBFE
S31508003B70C40F4FEAC40604D240F2A621184804F03E
S31508003B8036F928463E40012104F0D2F92E63BDE8F5
S31508003B90F84004F0CDB940F28621114804F027F91F
S31508003BA0DEE70623B4FBF3F3B34201D30623D8E7D3
S31508003BB040F28B210A4804F01AF9F7E7B6EB940F9E
S31508003BC001D80423CDE74FF42471054804F00FF912
S31508003BD0F7E740F29521024804F009F9B1E700BF7A
S31508003BE0D09200080000015B00000A50F8FF7F0031
S31508003BF02DE9F0419846436804460E4617461BB120
S31508003C0040F6FF7104F094F92046FFF7ABFEF18900
S31508003C10737B62690B43318A22F44C520B4322F0C0
S31508003C200F0213436361A168337E327B21F0804122
S31508003C3021F0E2011A430A4371690A43A260B26895
S31508003C401AB9A26842F00042A260F069002874D04E
S31508003C50857A027A6D04A16845EA82556C4A0A405B
S31508003C601543828802F4C0421543427845EA820524
S31508003C70427B45EAC205827B45EA0215827845EA17
S31508003C808225A560D0E90421E5680A4361492940EF
S31508003C900A43817942EA8122C17942EA4122E260F5
S31508003CA002785D49012A14D1E26842F00402E26012
S31508003CB08C4200F09180594A94420CBF01224FF081
S31508003CC0FF32520102F1A04242F2944102F57032EB
S31508003CD014E0032A7AD1E26842F00402E2608C42D8
S31508003CE078D04E4A94420CBF01224FF0FF3241F27F
S31508003CF09441520102F1A04202F570320225555054
S31508003D00427A04F580518A621AB1E26842F4006286
S31508003D10E260C27A5AB1E26842F40042E2603E4A80
S31508003D2094425BD1027B3E4902F00F024A67626AFF
S31508003D30C17B22F003020A4362623FB197F8202052
S31508003D4004F58050002A53D001220262B8F1000F10
S31508003D5027D004F5805113B14FF400438B652E4BE1
S31508003D60B8F822009C4298F821304ED02B4A94424B
S31508003D700DD10122112B34BF01270227294DB0F599
S31508003D80006FAF5494BF01270227274DAF54A26D89
S31508003D90034322F4F95222F01E021343A3650123BA
S31508003DA08B6505212046FFF707FEB2681AB1204643
S31508003DB07168FFF737FE20463178FFF7FDFDA36CE3
S31508003DC0DB4313F4405FFAD1BDE8F081023A012AD9
S31508003DD085D96DE700228AE7002272E70F4A9442E6
S31508003DE001BF027B0E4902F00F02C1F880209EE750
S31508003DF0E16997F8222097F8215021F009012A4312
S31508003E000A4342F00102C261A0E70022B2E700BFFE
S31508003E10E39BBDFFFFF9F0870000015B00000A5035
S31508003E2000900350401600203E160020134B70B534
S31508003E30984205460C4606D0114B984203D070218D
S31508003E40104803F0D4FF1CB972210E4803F0CFFFC7
S31508003E50237B802B03D176210A4803F0C8FF637BB6
S31508003E60032B03D97921074803F0C1FF0023214614
S31508003E702846BDE870401A46FFF7BABE0000015B47
S31508003E8000000A50D09200082B4B70B598420546A0
S31508003E900C4643D119B98C21284803F0A8FF5620AF
S31508003EA0FFF7BCF80C2807D0A0F10903012B03D9AA
S31508003EB0A0F11103012B3AD8637B032B03D9AA215E
S31508003EC01E4803F094FF237B802B03D0AC211B48AC
S31508003ED003F08DFF6369B3F1804F03D0AE21174815
S31508003EE003F085FF238A23F400539BB2B3F5805F62
S31508003EF003D0B021114803F07AFFA368013BB3F55C
S31508003F00165F03D3B2210D4803F071FF0023214643
S31508003F102846BDE870401A46FFF76ABE8A21074858
S31508003F2003F065FF1CB98C21044803F060FF9E214D
S31508003F30024803F05CFFBFE70000015BD09200086F
S31508003F40032838B504460D4605D8094B33F8103012
S31508003F50CB40DB0704D440F22D41064803F047FF67
S31508003F60302301225C43044BAA401A5138BD00BFD6
S31508003F7032930008F691000840D00350032838B55C
S31508003F8004460D4605D8094B33F81030CB40DB07FD
S31508003F9004D440F2FE31064803F029FF30230122FB
S31508003FA05C43044BAA401A5138BD00BF329300083F
S31508003FB0F691000840E0035003282DE9F041044635
S31508003FC00D461746984605D81D4B33F81030CB409A
S31508003FD0DB0704D44FF4B0711A4803F008FF37B171
S31508003FE029462046B8F1000F20D0FFF7A9FF0F2178
S31508003FF0072D04EB440688BFA5F108034FEA061609
S31508004000114895BFAB009B0004360C3607FA03F23D
S315080040109940304403F0AFFF7FB929462046B8F1EE
S31508004020000F06D0BDE8F041FFF78ABFFFF7A6FFED
S31508004030DDE7BDE8F041FFF7A1BFBDE8F08100BFAD
S31508004040329300080293000830C00350F8B50646BC
S315080040500F461546002A6AD003F00304836823F442
S315080040604073836003F052FFB26882EA042303F4C4
S3150800407040735340B36003F04DFF37B9B6F1B64FFE
S315080040800DD12E20FEF7B8FE0746B3689A0717D556
S31508004090012C1BD0022C27D064B9264B17E0264BDF
S315080040A09E4201D12F20EDE740F22F11234803F05D
S315080040B09EFEB3684FF4B271204803F098FE08E0FC
S315080040C0012C13D0022CE7D11D4B00E01D4B9F425B
S315080040D0F0D91D4B1B5D6B430AD140F27511BDE843
S315080040E0F840164803F083BE184BF0E7184BEEE786
S315080040F0A3EBC504013C3C44B4FBF3F4013C0CD5EA
S3150800410040F27B110D4803F072FE4FF4BE710B4866
S3150800411003F06DFEB368B461F8BDB4F5007FF4D260
S31508004120B3689B07F7D5002C08BF0124F3E740F2D4
S315080041301511D4E780841E00008006503A930008C3
S31508004140002D3101404B4C0069930008809FD50033
S3150800415040548900B0F1B64F38B504460D4607D02D
S31508004160084B984204D040F29511074803F03FFEE9
S31508004170043425B104F580540123236038BD04F5C1
S315080041800054F9E7008006503A930008B0F1B64F9C
S3150800419038B504460D4607D0124B984204D04FF462
S315080041A0D571114803F023FE0023104A236404F551
S315080041B00053DA636A7804F108037AB903F5805381
S315080041C002221A602046D5E901122B7BFFF73EFF33
S315080041D020462978BDE83840FFF7BCBF03F50053F1
S315080041E0EEE700BF008006503A930008FFFF1F0065
S315080041F0B0F1B64F70B50AD0824B98421DD08248AE
S3150800420040F2012103F0F3FD6FF0030070BD7F4B10
S315080042109968C26B12F4C06F15D091050FD5FD22AF
S315080042205A7009221A700022026493F901100129B2
S3150800423000D15A7093F90100E8E7754BE8E756058F
S31508004240EFD5FE22ECE71C78082C00F2D680DFE8D2
S3150800425014F009001F004500530070007E009C0002
S31508004260A700CB004C880A88E5060AD5120A02F090
S31508004270060242F0F002012119704263C160012072
S31508004280C4E702F0FE02A10748BF42F00102F2E7C6
S31508004290160608D5802100F50052D1634FF608723C
S315080042A01A80022318E05506E9D5402400F5005285
S315080042B0D4634A88D40604D502221A700B7843635D
S315080042C0DDE796076AD507221A701B7901EBC30347
S315080042D01B89012BD3D10823C360D0E71506D9D48F
S315080042E05406CCD5402400F50052D4634A88920778
S315080042F054D503221A708CE74C880A88E60643BF11
S31508004300120A02F0060242F0F00202F0FE02650707
S3150800431009D51C7942F0010201EBC401098901297A
S3150800432004BF0821C160042119700123C3604263D8
S31508004330A5E71406AED45206A1D5402400F50052CE
S31508004340D4634A88560729D507221A7097E71A7937
S315080043505D8801EBC2042689AE420FD800240132DB
S31508004360D2B21A715C804C886507C2D4E40702D4BD
S31508004370012A7FF64EAF08221A7092E76268691C16
S315080043805980525D42630622DFE7160682D4550637
S315080043907FF575AF402400F50052D4630522A9E7DE
S315080043A094067FF56CAF20261A7900F5005401EBC8
S315080043B0C2010A89456AE6635C88A24281BF4968E8
S315080043C0661C5E800D5559888A42D4D90424012A70
S315080043D0C46004D0013A914201D10822C2601A7819
S315080043E0092A3FF420AF4AE7D2057FF548AF4FF4D4
S315080043F0807100F50052D16313E74FF609321A802F
S3150800440011E700BF008006503A93000864140020A4
S3150800441070140020B0F1B64F38B504460D4607D1E2
S3150800442021B940F26A31254803F0E1FC244B13E038
S31508004430244B98420DD040F26931204803F0D7FC4E
S3150800444025B940F26A311D4803F0D1FC6FF003002C
S3150800445038BD00292AD01C4B2269D00744BF202228
S31508004460E2606A88910702D529890029EED05207A9
S3150800447002D52A8A002AE9D04FF480721A600022EF
S315080044809D601A71C023E3606369DB0514D420229A
S3150800449004F50053DA630D4A2046DA63236C43F4C5
S315080044A0FC632364BDE83840FFF7A2BE40F26A31D8
S315080044B0024803F09CFCCEE7636AE5E73A930008F6
S315080044C0641400200080065070140020FFFF1F00AF
S315080044D04FF400120B4B10B5C3F88020BFF34F8F73
S315080044E0BFF36F8F0024FF22074B21465C6520200F
S315080044F09A625C60FEF758FC2146BDE81040212010
S31508004500FEF752BC00E100E000000450072838B569
S3150800451004460D4603DD7721084803F068FC1F2C86
S3150800452003D99121064803F062FC064A064B002D82
S3150800453008BF13460122A2401A6038BD6D930008D1
S315080045409D930008401004504020045010B50446BE
S3150800455018B991211F4803F04AFC23781B0613F06B
S31508004560604F03D092211B4803F041FCE3780F2BE0
S3150800457003D9A321174803F03AFC01212020FEF7AE
S3150800458013FC01212120FEF70FFC0122124B5A6071
S31508004590227812069A606178A27842EA01429A6104
S315080045A0FF229A6200229A631A644FF000425A6503
S315080045B04FF0FF324FF4001103F500531A65074A0E
S315080045C0C2F88011E3781B01DBB282F8153311605B
S315080045D010BD00BF6D9300080000045000E100E024
S315080045E02DE9F0410126C3B2072805460C46904638
S315080045F006FA03F603DDEC21364803F0F8FB1CB98E
S31508004600ED21344803F0F3FB236823F47C1323F0ED
S315080046100F031BB1F0212F4803F0E9FBA37A1B0413
S3150800462013F47C0F04D040F209112A4803F0DFFB8B
S31508004630E37A1B0513F07E6F04D040F20B11254870
S3150800464003F0D5FB237B5B0513F0FE5F04D040F235
S315080046500D11204803F0CBFB1F4B204F1E65AB0006
S31508004660226803F1A04303F588235A60302202FB2F
S315080046700575637B2B66E37AA27A1B0543EA024338
S31508004680227B43EA4253EB6528F003032B6703F0CA
S3150800469044FC7B6D33437B65237A13B13B6C334310
S315080046A03B64637A13B1BB6B3343BB632279A3794B
S315080046B043EA0243084A93616179E37943EA01438D
S315080046C007498B61054B56639E64BDE8F04103F0CC
S315080046D02ABC00BF6D930008002004500000045057
S315080046E00010045010B50124C3B2072804FA03F4D5
S315080046F004DD40F29711074803F079FB03F00DFC3F
S31508004700054B5A6D22EA04025A659C62BDE81040C0
S3150800471003F009BC6D9300080000045010B501248D
S31508004720C3B2072804FA03F404DD40F2B5110A48B7
S3150800473003F05DFB03F0F1FB084BDA6A224208D16D
S315080047405B6B9C430CBF0124002403F0ECFB204662
S3150800475010BD0024F9E700BF6D930008000004505F
S3150800476070B506460C46154622B940F28E210C480D
S3150800477003F03DFB24B94FF42070FEF73DFB0446D9
S315080047806D00013CB4FBF5F4064B250213EA04233D
S3150800479004D040F2B321024803F029FBF56170BD4D
S315080047A003940008070080FF124B10B59842044690
S315080047B004D040F24241104803F019FB012104F5E8
S315080047C08053596040F6AA6341F2050263610023EB
S315080047D00A48A360E365E26004F500522361E361D9
S315080047E0E36490640348A365844204BF2365636554
S315080047F0516010BD00C0055003940008FFFF01007A
S3150800480038B5294B044698420D4604D040F2693122
S31508004810264803F0ECFA2046FFF7C6FF012204F506
S3150800482080535A602B8AA26843F001031343AA7B7C
S3150800483043EA8223A360A3682A7D43EA4273A360FE
S31508004840AB7C5BB1184B9C4202BFEA7CA3F51033E4
S31508004850C3F8C821E36D43F08003E3652B7B20464C
S31508004860D5E9011243F48053E360FFF779FF6B7BC8
S315080048700BB1102363616B7D1BB1A36843F48033CE
S31508004880A360AB7D1BB1A36843F40043A360EB7D33
S315080048902A7E1B07120503F0E04302F4E0021343E5
S315080048A0A3652B78636138BD00C0055003940008E2
S315080048B0034B5A68D20702D5DA69002AF9D170473C
S315080048C000800A50054B9A689107FCD45A689207EB
S315080048D0F9D4DA69002AF6D1704700BF00800A5079
S315080048E008B5FFF7E5FF0222014B1A6108BD00BFB4
S315080048F000800A5008B5FFF7E5FF0122024B03F5D1
S3150800490080514A601A6108BD00800A5008B5044BF8
S315080049105968012903D1FFF7E3FF024B596008BD27
S3150800492000800A5000A00A5010B5064CFFF7CAFFCF
S315080049306368012B03D1FFF7E9FFFFF7C3FF03788D
S31508004940E36010BD00800A50A8B94A680B78B2B96E
S315080049504A7843EA42038A6812B1127843EA821314
S315080049608A7843EA8203CA6812B1127843EA422374
S31508004970054A936470477F21044803F038BA1278D1
S3150800498043EAC203E4E700BF00800A5034940008F3
S3150800499010B9044B596470474FF48971024803F003
S315080049A026BA00BF00900A503494000810B9044B88
S315080049B0596470474FF4A771024803F018BA00BF4C
S315080049C000A00A503494000810B9044B19647047C3
S315080049D04FF4C571024803F00ABA00BF00A00A5096
S315080049E03494000808B510B9044B186C08BD04487F
S315080049F040F2C51103F0FBF90020F7E700800A50E2
S31508004A003494000808B520B949B101290AD0002014
S31508004A1008BD4FF41D71054803F0E9F9F7E7044BA3
S31508004A20D86CF5E7024B186DF2E700BF349400081E
S31508004A3000800A5018B939B1012908D0704740F2E8
S31508004A401231044803F0D3B9034BDA647047024BBA
S31508004A501A6570473494000800800A5007B5094B58
S31508004A6018689A889B7900906846ADF804208DF8F6
S31508004A700630FEF709FF0C20FEF73EFF002003B0C4
S31508004A805DF804FB7394000813B50024064A6846CB
S31508004A90536F43F00103536700948DF80440FEF703
S31508004AA027FE204602B010BD0040005030B58BB03E
S31508004AB06C46174D0FCD0FC40FCD0FC495E80300F4
S31508004AC084E80300134BD3F84C2112031CD5A3F535
S31508004AD0FE431C884FF6FF739C4208BF57248DF887
S31508004AE01940FEF7D1FC204480F308008DF8180021
S31508004AF00948FDF7D7F96846FEF7B4FB3220FEF7FA
S31508004B0031FD00200BB030BDD3F85041E4B2E6E7E2
S31508004B107C9400080080E00FC017530230B5094D99
S31508004B2087B001AC0FCD0FC42B6801A823602423DE
S31508004B308DF80530FEF7AEFC3220FEF70DFD00209D
S31508004B4007B030BDA49400086FF00403502110B5D7
S31508004B500A480B4C13F0800F03F1010207D12344D6
S31508004B604C2A83F800131346F4D1002010BD03F035
S31508004B700F03043B034419761346EBE700ED00E008
S31508004B8000E100E010B5044603F0C0F9024B1C60D2
S31508004B9003F0C0F9002010BD7C14002010B503F006
S31508004BA0B5F9034B1C6803F0B5F9204610BD00BFE4
S31508004BB07C1400202DE9F0438DB01C4606AB064652
S31508004BC089461846174600211822149D03F05FFDF2
S31508004BD0227903460AB18DF81820FB6163794FF0F4
S31508004BE00108C3F10203DBB2CDE90333764B304645
S31508004BF00293764B4A460193002329460093744B49
S31508004C008DF81E8000F004FB0646002840F0AF80B1
S31508004C10A3684146EB63E3693A20EB64237E85F893
S31508004C20483063696B64237C85F84030636A6B653A
S31508004C3094F8203085F85030E36AEB6594F828300C
S31508004C4085F858302368AB63FEF7AEF8434604226E
S31508004C506169207CFFF7B0F943460222E169207EAC
S31508004C60FFF7AAF93E7085F860604146A068FEF72E
S31508004C709BF86379002B32D141463620FEF794F82B
S31508004C80A368562B02D0B3F5A06F08D1514AD2F8C3
S31508004C90203223F0070343F00303C2F820323946D3
S31508004CA02068FFF7F1F81021E2684B4B676903EBC0
S31508004CB04210C0F89414217C253241EA0741C0F815
S31508004CC0AC14217EE06903EB421341EA00415960C6
S31508004CD02379032B75D8DFE803F041244E6E3D4A4D
S31508004CE0D2F8283123F0070343F00103C2F828312C
S31508004CF0A368562B02D0B3F5A06F07D1D2F820329D
S31508004D0023F0070343F00103C2F82032394620682E
S31508004D10FFF78CF895F8603043F0040385F86030A7
S31508004D20C1E7002795F8603043F0010385F8603045
S31508004D3002220023616A94F82000FFF73DF9616AB0
S31508004D4094F82020E36842EA014241F29C415B0163
S31508004D5003F1A04303F570335A5097B90422AB6B9D
S31508004D60052103F5805320681A65FEF725FE3046AF
S31508004D700DB0BDE8F08395F8603043F0020385F87E
S31508004D80603000230422E16A94F82800FFF714F93A
S31508004D9041F294420221E3685B0103F1A04303F563
S31508004DA07033995094F82820E16A03F5A55342EA2E
S31508004DB001421A60D2E795F86030012743F00303F1
S31508004DC0B4E72326D3E700BFFD7F00086D800008FF
S31508004DD09D8000080080005000C0035010B50020D8
S31508004DE0144603F0E2F8022804D018B1C321024899
S31508004DF002F0FDFF204610BDB8940008034B0222BE
S31508004E00186800238068194601F004BD3810002090
S31508004E10302238B5037A0446534303F1A04303F519
S31508004E208023DD6ED0E9032313449D4201D8AA42AC
S31508004E3004D94FF43E71054802F0D9FFD4E90303BB
S31508004E4003449D4218BF284638BD00BF0695000892
S31508004E5030B51446054687B01046FFF7D9FF636993
S31508004E60024683423CBFD4E903315B181B1AABB137
S31508004E701249049403910021CDE9013101230093DD
S31508004E802846D4E9001302F0F0FF20B14FF434713C
S31508004E900B4802F0ACFF002007B030BD0122627655
S31508004EA094F82D20002AF6D084F835301321E369CA
S31508004EB0204698472046636A9847ECE7514E000813
S31508004EC0069500082DE9F04788B004460F461646B1
S31508004ED0984603F022F88146002E00F0AD80237E26
S31508004EE003F0FF02002B00F0E0802046FFF790FF5A
S31508004EF063698246984206D1637E23B940F27F31C0
S31508004F006B4802F074FF6569AA459DBFD4E9033270
S31508004F109B185D1BAAEB0505B54228BF354602F06E
S31508004F20FCFF94F82D308246002B40F096802A46E6
S31508004F303846616903F0C4FB63692E462B446361F6
S31508004F402CE06069037803F0FD01112940F08280A6
S31508004F50216B884205D1A3F111014B424B4184F8DC
S31508004F603430013E6369216B01328B4203F1010340
S31508004F7008BF236363619542E3D1D4E90323216B18
S31508004F801344994208BF2263216B8A4201D88B4297
S31508004F9004D84FF46D71464802F029FFD4E903237B
S31508004FA061691344994208BF626161698A4201D8FE
S31508004FB08B4204D84FF471713D4802F018FF002364
S31508004FC0207A6376FDF72CFB20B140F21131384880
S31508004FD002F00DFF2046FFF71BFF636983423FD1AE
S31508004FE00023E568237694F82D30656103B12563BF
S31508004FF02046636A98472F4B049403930023029331
S3150800500023692A4601930123009363682168207A5D
S3150800501002F02BFF20B140F22D31254802F0E7FEC1
S31508005020207AFDF71DFB20B140F25131204802F0ED
S31508005030DEFE504602F077FF4846C8F8006002F0E8
S3150800504072FFD8F80030002B0CBF1B20002008B0D8
S31508005050BDE8F08707F8013B84E72E4600228AE779
S315080050600123207A23760DF11E01FDF761FB20B19D
S315080050704FF450710E4802F0BAFE9DF81E30207AA1
S31508005080002BCDD00DF11F01FDF72AFB20B140F210
S315080050904631074802F0ABFE9DF81F10207A00291A
S315080050A0BED12246FFF7D4FEBAE71646C4E700BFCC
S315080050B006950008514E000870B504460568FFF7C6
S315080050C06DFD844202D10020FFF75CFD95F936306C
S315080050D0002B11DB012203F01F015B099B0003F182
S315080050E060438A4003F56143C3F88021C3F88020F2
S315080050F0BFF34F8FBFF36F8F287AFDF7D1FA20B130
S315080051004FF4ED71104802F072FE287AFDF72EFA78
S3150800511020B14FF4EF710C4802F069FEFDF704FA6E
S3150800512038B10A4B984204D04FF4F171064802F0A0
S315080051305EFE00232846C4E90033C4E90433A360AD
S31508005140AB6ABDE87040184706950008058000F070
S315080051502DE9F84304460D4690F82C80DFF8AC900C
S315080051608E18AE4228D094F82D3083B102F0D5FEC1
S31508005170237E07461BBB226B63699A4204D040F222
S31508005180F911484602F033FE384602F0CCFE94F890
S315080051903430002BE5D0B8F1000F06D02B780A2B57
S315080051A003D10D212046E36998472046E36915F89F
S315080051B0011B98470028D4D00020BDE8F883204674
S315080051C0FFF726FEE1680138884238BF2069D4F81F
S315080051D030C03CBF00F1FF30401803469C450BD059
S315080051E013F80129112A01D0132A07D1A2F11103B4
S315080051F05A425A4184F834202063C5E7994282BF4F
S31508005200236903F1FF335B18E8E700BF069500083A
S31508005210F0B50C460646154687B0382200212046CA
S315080052201F4603F034FA95E8030000232A6923761B
S31508005230EB6884E80300C4E904232A7DE36084F864
S315080052402C20AA7D2363012384F8343084F8353072
S315080052500C9B84F82D2023620D9BE76163620E9BED
S31508005260A3622B7A84F83630204B34607360204B67
S31508005270B360204B3361204B7361204BF360FDF71D
S315080052809BF930B11E4B984203D01024204607B034
S31508005290F0BD002104F10800FDF716F90028F4D145
S315080052A00127184B0494CDE902032369009701935B
S315080052B06368E2682168207A02F0D7FD0446002870
S315080052C0E3D195F90830002B0BDB03F01F025B09CD
S315080052D09B0003F16043974003F56143C3F880716F
S315080052E01F603046FFF74EFCD0E700BF515100085B
S315080052F0C54E0008598100085F810008B9500008AA
S31508005300038000F0514E000830B50E4C4161236809
S315080053108BB9206083600DE0891A9A681D46416141
S315080053206AB113465A698A42F6D935B1A860521A43
S3150800533083605A6130BD0025F4E72060F7E798607E
S315080053408260F7E78814002038B500F005FA0025D2
S31508005350084B094C1A682368C31A2AB123B1516944
S31508005360994203D3C91A5161206038BD55615B1A49
S315080053709268F2E7881400208414002038B5134D8B
S315080053802B685B6993B1124A022014681C4402F028
S3150800539039FF204600F0E8F900230E492A680B7009
S315080053A0D088800709D501230B7038BD022002F08A
S315080053B029FF022000F026FAEEE79268002AF4D0C8
S315080053C050690344012BEBD9EFE700BF881400208E
S315080053D0841400204316002070B516469DF8142044
S315080053E0C0E903360271049ABDF81830026000223B
S315080053F004460D468260C380EEB900F0ADF9284434
S31508005400A0619DB12E4602F081FD0546FFF79CFF7F
S3150800541031462046FFF778FF104B1B68A34201D19F
S31508005420FFF7ACFF284602F075FD02E0E368656108
S315080054307BB9002070BD00F08FF93044A061002DC3
S31508005440E0D1E3686561002BDDD0204621689847E6
S31508005450D9E7204621689847EBE700BF8814002063
S3150800546000220C490B687BB183420AD183687AB162
S31508005470936083681BB15A6941690A445A610020DE
S3150800548070471A469B68EEE70028EFD0022070475F
S315080054900B60EEE78814002070B502F03EFD144E4E
S315080054A005463478FCB9134B1C60134B1C60134B30
S315080054B01C8000F01FF9012002F0A4FE02F0C5FED0
S315080054C00F4B0246186020B9284602F02CFD23200F
S315080054D070BD234640F2E7310A4800F0D3FB0A4B79
S315080054E0186001233370284602F01DFD0020EFE7FF
S315080054F0441600208814002084140020D8150020A3
